:100000000C947E020C94FE400C94D3400C94A840B7
:100010000C947D400C9452400C9427400C94FC3F6F
:100020000C94D13F0C9429410C9429410C94294102
:100030000C94AF020C94AF020C94AF020C94AF027C
:100040000C94AF020C94AF020C94AF020C94AF026C
:100050000C9433410C94AF020C94AF020C94873F84
:100060000C94AF020C94513F0C94273F0C94AF02B8
:100070000C94AF020C94AF020C94AF020C94AF023C
:100080000C94AF020C94AF020C94AF020C94AF022C
:100090000C94F13E0C94C73E0C94AF020C945E415C
:1000A0000C94AF020C94AF020C94AF020C94AF020C
:1000B0000C94AF020C94AF020C94AF020C94AF02FC
:1000C0000C94AF020C94AF020C94AF020C94AF02EC
:1000D0000C94AF020C94AF020C94AF020C94AF02DC
:1000E0000C94AF020C9468190C94732E0C94B30406
:1000F0000C9492040C94360C0C9415030C945F032E
:100100000C94DC2B0C94873D0C944A140C949C4961
:100110000C9465140C94B12A0C942A2C0C9486042B
:100120000C9409330C94632C0C94D6260C948F30C9
:100130000C94FA3D0C9450030C94AD2A0C94944901
:100140000C943E280C94DA170C94BB040C94711593
:100150000C9419030C9480040C942D340C947F059A
:100160000C9404310C94CF180C948D490C947B346E
:100170000C94B7040C9420140C9428330C949849D4
:100180000C9454130C94FF0B0C94753A0C941513A7
:100190000C948E040C94A0110C9465240C944C13B4
:1001A0000C940E2A0C9452330C94A72A0C945013DE
:1001B0000C948A040C9436250C946B080C947303ED
:1001C0000C94D3230C945A140C9449080C941A4997
:1001D0000C94C12B0C94C3030C941A030C9481034C
:1001E0000C9472260C9486490C94853E0C949F04C2
:1001F0000C94C1040C94150C0C9458140C946C338E
:100200000C949B040C9419270C9495040C94A90449
:100210000C94CB3A0C94AD040C94A03A0C944B1C67
:100220000C9458080C9498080C94A52A0C941B0361
:100230000C945D140C94A4300C9415040C944E147E
:100240000C941F310C94C5210C94082C0C9423039E
:100250000C9413520C9482420C94DB250C94642E63
:100260000C9467270C9466140C9431320C949629E4
:100270000C9429240C944B340C949A490C948617B2
:100280000C94A92A0C9464130C94221F0C94AC3186
:100290000C9423490C94812F0C94A5040C944611C2
:1002A0000C94C0040C94C5040C9496490C941F063D
:1002B0000C942B0C0C94D8021F1C1F1E1F1E1F1FFA
:1002C0001E1F1E32313A35323A3235004465632002
:1002D0003137203230323000000022002500280063
:1002E0002B002E003100340002010000050108013E
:1002F0000B0100002100240027002A002D003000FF
:10030000330001010000040107010A01005EBCE2A4
:10031000613FDD83C29C7E20A3FD1F419DC3217FE1
:10032000FCA2401E5F01E3BD3E6082DC237D9FC1D5
:10033000421CFEA0E1BF5D0380DE3C62BEE0025CC9
:10034000DF81633D7C22C09E1D43A1FF4618FAA4B5
:1003500027799BC584DA3866E5BB5907DB856739A1
:10036000BAE406581947A5FB7826C49A653BD98795
:10037000045AB8E6A7F91B45C6987A24F8A6441A89
:1003800099C7257B3A6486D85B05E7B98CD2306E75
:10039000EDB3510F4E10F2AC2F7193CD114FADF361
:1003A000702ECC92D38D6F31B2EC0E50AFF1134D55
:1003B000CE90722C6D33D18F0C52B0EE326C8ED049
:1003C000530DEFB1F0AE4C1291CF2D73CA94762835
:1003D000ABF517490856B4EA6937D58B5709EBB521
:1003E00036688AD495CB2977F4AA4816E9B7550B15
:1003F00088D6346A2B7597C94A14F6A8742AC89609
:10040000154BA9F7B6E80A54D7896B3500000A0BDB
:1004100002090C0D0E080703040100000000000093
:1004200000000000000000000000000000000000CC
:100430000000000000000000121110000000000089
:1004400000000000000000000000000000000000AC
:100450000000000020002300260029002C002F00AF
:100460003200000100000301060109010505050530
:10047000070508080808020202020A0A080804041C
:10048000040401010101010101010303030303034A
:100490000303040707070C0C0C0C0C0C0C0C0202D9
:1004A000020206060606060606060B0B0B0B0B0BD6
:1004B0000B0B010210202008081020401020408063
:1004C0000201020108040201010204081020408018
:1004D00080402010080402018004020180402010A6
:1004E00008040201080402010102040810204080EF
:1004F00001020408102040808242135211241FBEC2
:10050000CFEFD1E2DEBFCDBF00E00CBF1BE0A0E02B
:10051000B2E0E4E6FEEA00E00BBF02C007900D92F5
:10052000A438B107D9F722E1A4E8BBE001C01D92CD
:10053000A739B207E1F712E0CDE7D2E000E006C04C
:1005400021970109802FFE010E94E754CC37D10783
:1005500080E00807A9F70E941A460C9420570C94D3
:100560000000FC01A089B18982E08C93A485B58547
:100570001C92A685B7858FEC8C93108EA489B589C3
:1005800086E08C93A289B3898C9180618C93A28937
:10059000B3898C9188608C93A289B3898C9180688F
:1005A0008C930288F389E02D80818F7D808308956C
:1005B0008091790E90917A0E891B990B0895DC0138
:1005C000CB0133E0880F991FAA1FBB1F3A95D1F7C3
:1005D000009721E0A207B105FCF421E020936E0E04
:1005E0002FB720936F0EF89490936D0E80936C0E3E
:1005F000909387008093860080916F0E8FBF8091CB
:100600008100887F809381008091810090916E0E9F
:10061000892B80938100089523E0B595A795979540
:1006200087952A95D1F722E0D9CFFC01818D928D53
:100630000895089508950895DC01ED91FC910190CD
:10064000F081E02D1994AF92BF92CF92DF92EF929A
:10065000FF920F931F93CF93DF936C017B018B016C
:10066000040F151FEB015E01AE18BF08C017D107BC
:1006700059F06991D601ED91FC910190F081E02D46
:10068000C6011995892B79F7C501DF91CF911F918B
:100690000F91FF90EF90DF90CF90BF90AF900895B3
:1006A000FC01538D448D252F30E0842F90E0821B78
:1006B000930B541710F0CF96089501970895FC01FD
:1006C000918D828D981761F0A28DAE0FBF2FB11D55
:1006D0005D968C91928D9F5F9F73928F90E00895AD
:1006E0008FEF9FEF0895FC01918D828D981731F067
:1006F000828DE80FF11D858D90E008958FEF9FEFBB
:100700000895FC01918D228D892F90E0805C9F4F90
:10071000821B91098F73992708958BEE9EE00E94AA
:10072000810321E0892B09F420E0822F089588E8D5
:100730009FE00E94810321E0892B09F420E0822FB1
:100740000895FC01A48DA80FB92FB11DA35ABF4F66
:100750002C91848D90E001968F739927848FA689C0
:10076000B7892C93A089B1898C91837080648C9314
:10077000938D848D981306C00288F389E02D8081C3
:100780008F7D80830895EF92FF920F931F93CF93F5
:10079000DF93EC0181E0888F9B8D8C8D98131AC0BC
:1007A000E889F989808185FF15C09FB7F894EE89A3
:1007B000FF896083E889F989808183708064808300
:1007C0009FBF81E090E0DF91CF911F910F91FF904B
:1007D000EF900895F62E0B8D10E00F5F1F4F0F73F3
:1007E0001127E02E8C8D8E110CC00FB607FCFACFAE
:1007F000E889F989808185FFF5CFCE010E94A103A8
:10080000F1CFEB8DEC0FFD2FF11DE35AFF4FF0827E
:100810009FB7F8940B8FEA89FB8980818062CFCFE4
:100820006FEF8BEE9EE00C94C303CF93DF93EC014C
:10083000888D8823B9F0AA89BB89E889F9898C91C8
:1008400085FD03C0808186FD0DC00FB607FCF7CF84
:100850008C9185FFF2CF808185FFEDCFCE010E9484
:10086000A103E9CFDF91CF91089580E090E0892B3B
:1008700029F00E94970381110E94000080E090E01F
:10088000892B29F00E948D0381110E94000080E0D5
:1008900090E0892B49F080E090E0892B29F00E94BC
:1008A000000081110E94000080E090E0892B49F057
:1008B00080E090E0892B29F00E94000081110C94C7
:1008C000000008958150823108F05AC0E82FF0E00E
:1008D0008827E259FB4F8F4F0C94E7548E04920403
:1008E000800486048A04C00495049B049F04A50424
:1008F000A904AD04B304B704C004BB04C104C50417
:10090000809180008F77809380000895809180008F
:100910008F7DF9CF80918000877FF5CF84B58F7769
:1009200084BD089584B58F7DFBCF8091B0008F7713
:100930008093B00008958091B0008F7DF9CF8091B1
:1009400090008F77809390000895809190008F7D24
:10095000F9CF80919000877FF5CF8091A0008F77AD
:100960008093A00008958091A0008F7DF9CF8091A1
:10097000A000877FF5CF809120018F7780932001A1
:100980000895809120018F7DF9CF80912001877F8C
:10099000F5CF1F93CF93DF93282F30E0F901E45F69
:1009A000FB4F8491F901EE54FB4FD491F901E459C6
:1009B000FB4FC491CC23A9F0162F81110E94620431
:1009C000EC2FF0E0EE0FFF1FE852FD4FA591B49120
:1009D0008FB7F894EC91111108C0D095DE23DC9309
:1009E0008FBFDF91CF911F910895DE2BF8CFBF927B
:1009F000CF92DF92EF92FF920F931F93CF93DF93EB
:100A0000C12CC7E0D0E003E210E0EE24E394F12C27
:100A100060E080918A120E94C904C8010197F1F731
:100A200020918B1230E0F901E45FFB4F8491F901D2
:100A3000EE54FB4FD490F901E459FB4FB490BB2026
:100A4000A9F081110E946204EB2DF0E0EE0FFF1F70
:100A5000EE5AFB4FA591B491EC91DE2239F0C7011B
:100A60000C2E01C0880F0A94EAF7C82A61E0809131
:100A70008A120E94C904C8010197F1F7219708F072
:100A8000C7CF8C2DDF91CF911F910F91FF90EF90E9
:100A9000DF90CF90BF900895CF93DF9360E0809177
:100AA0008C120E94C90483E290E00197F1F70E9442
:100AB000F704C82FD0E0DC2FCC270E94F704C82B06
:100AC00061E080918C120E94C904C2FD13C083E0D2
:100AD000D695C7958A95E1F7BE0190E080E00E9427
:100AE000255220E030E040E85EE30E948652DF912C
:100AF000CF91089560E070E080EC9FE7F8CF81E04F
:100B00008093980B1092970B1092960B60E083E401
:100B10000C94C904CF93DF9390E0FC01EE54FB4F9B
:100B2000249184599B4FFC0184918823D1F090E05B
:100B3000880F991FFC01EE50FD4FA591B491FC0167
:100B4000E852FD4FC591D49161110EC09FB7F89442
:100B50008C91E22FE0958E238C932881E223E88309
:100B60009FBFDF91CF9108958FB7F894EC91E22B5E
:100B7000EC938FBFF6CF3FB7F8948091EA0D909138
:100B8000EB0DA091EC0DB091ED0D26B5A89B05C025
:100B90002F3F19F00196A11DB11D3FBFBA2FA92FFC
:100BA000982F8827BC01CD01620F711D811D911DF9
:100BB00042E0660F771F881F991F4A95D1F7089565
:100BC0008F929F92AF92BF92CF92DF92EF92FF925D
:100BD0006B017C010E94BB054B015C01C114D10477
:100BE000E104F104B9F00E94BB05681979098A098A
:100BF0009B09683E73408105910580F321E0C21A8C
:100C0000D108E108F10888EE880E83E0981EA11C47
:100C1000B11CE4CFFF90EF90DF90CF90BF90AF90EA
:100C20009F908F9008952FB7F8946091E60D709182
:100C3000E70D8091E80D9091E90D2FBF089508957B
:100C4000FC01908190539A3008F090E081818053AC
:100C50002AE0929F800D112408952091BA0B260F4F
:100C60003327331F21323105ECF42091E50EFC01CE
:100C700090E080E0243069F082E00895A091BA0B02
:100C80002191AC014656544FA40FB52FB11D2C93A2
:100C90000196861798F38091BA0B680F6093BA0B90
:100CA00080E0089581E008951092E50E81E0809340
:100CB000C40E1092BF0E61E084E10E94C90461E09D
:100CC00085E10E94C904E9EBF0E080818E7F80839A
:100CD00080818D7F808388E48093B80085E4809351
:100CE000BC000895CF93DF9391E09093990B8823F4
:100CF000B9F0C091B800D091BA008091BC008A7B55
:100D00008093BC0060E084E10E94C90460E085E15A
:100D10000E94C9040E945406D093BA00C093B80040
:100D2000DF91CF910895CF92DF92EF92FF920F93D0
:100D30001F93CF93DF93D82FC62F613208F098C04E
:100D40000E94BB056B017C018091E50E81116BC097
:100D500081E08093E50E8093C40E9FEF9093C30EC5
:100D60001092C20E9C0F9093C10E8093C00E809182
:100D7000C00EDD0FD82BD093C00E8091BF0E8130F6
:100D800009F078C01092BF0E0E94BB056B017C0178
:100D90008091C00E8093BB008091E70E9091E80E89
:100DA000A091E90EB091EA0E892B8A2B8B2BA1F032
:100DB0000E94BB050091E70E1091E80E2091E90E0C
:100DC0003091EA0E6C197D098E099F0906171707E5
:100DD0002807390708F448C08091BC0083FDD8CFAC
:100DE00085EC8093BC000E94BB056B017C01809167
:100DF000E50E813009F440C08091C20E8C1710F4CA
:100E0000C091C20EEFE9FEE0A5ECBEE080E08C13DD
:100E100055C08C2FDF91CF911F910F91FF90EF90D4
:100E2000DF90CF9008958091E70E9091E80EA09109
:100E3000E90EB091EA0E892B8A2B8B2B09F484CF13
:100E40000E94BB050091E70E1091E80E2091E90E7B
:100E50003091EA0E6C197D098E099F090617170754
:100E60002807390708F070CF8091E60E0E947206BD
:100E7000C0E0CFCF85EEB5CF8091E70E9091E80E20
:100E8000A091E90EB091EA0E892B8A2B8B2B09F4E5
:100E9000AECF0E94BB050091E70E1091E80E2091A5
:100EA000E90E3091EA0E6C197D098E099F0906172B
:100EB00017072807390708F09ACFD6CF91919D934D
:100EC0008F5FA5CFCF92DF92EF92FF920F931F9388
:100ED000CF93DF93D0919E0E81E0D13208F09CC079
:100EE000C0919D0E0E94BB056B017C018091E50EB7
:100EF00081116CC082E08093E50E81E08093C40E86
:100F00008FEF8093C30E1092C20ED093C10EADE747
:100F1000BEE0EFE9FEE080E0D8138DC01092C00E75
:100F20008091C00ECC0FC82BC093C00E8091BF0E15
:100F3000813009F084C01092BF0E0E94BB056B0186
:100F40007C018091C00E8093BB008091E70E909150
:100F5000E80EA091E90EB091EA0E892B8A2B8B2B1B
:100F6000A1F00E94BB050091E70E1091E80E2091C0
:100F7000E90E3091EA0E6C197D098E099F0906175A
:100F800017072807390708F442C08091BC0083FD89
:100F9000D8CF85EC8093BC000E94BB056B017C011F
:100FA0008091E50E823009F44CC08091C30E8F3FD2
:100FB00009F469C08091C30E803209F466C0809143
:100FC000C30E803309F463C084E026C08091E70E2D
:100FD0009091E80EA091E90EB091EA0E892B8A2B30
:100FE0008B2B09F483CF0E94BB050091E70E109173
:100FF000E80E2091E90E3091EA0E6C197D098E09F8
:101000009F09061717072807390708F06FCF809147
:10101000E60E0E94720685E010927C0E10929E0EE3
:1010200010927B0EDF91CF911F910F91FF90EF9067
:10103000DF90CF9008959D9191938F5F6DCF85EE56
:10104000A9CF8091E70E9091E80EA091E90EB091A2
:10105000EA0E892B8A2B8B2B09F4A2CF0E94BB05A9
:101060000091E70E1091E80E2091E90E3091EA0E02
:101070006C197D098E099F0906171707280739077C
:1010800008F08ECFC4CF80E0C7CF82E0C5CF83E029
:10109000C3CFE0917A0E8091790EE81730F4F0E03A
:1010A000EB53F14F808190E008958FEF9FEF08950B
:1010B00090917A0E8091790E2FEF3FEF981748F4B8
:1010C000E92FF0E0EB53F14F208130E09F5F9093E8
:1010D0007A0EC9010895CF92DF92EF92FF920F939B
:1010E0001F93CF93DF937C01CB018A0120917B0E6C
:1010F000222389F0EB016B01C40ED51ECC15DD0552
:1011000069F06991D701ED91FC910190F081E02D9A
:10111000C7011995F3CF642F0E942D06C801DF91F6
:10112000CF911F910F91FF90EF90DF90CF90089596
:10113000CF93DF931F92CDB7DEB7698320917B0EEB
:101140002223F9F020919E0E203258F021E030E069
:10115000FC013383228390E080E00F90DF91CF91F8
:10116000089580917C0EE82FF0E0E358F14F9981CB
:1011700090838F5F80937C0E80939E0E81E090E041
:10118000ECCF61E0CE0101960E942D06F7CF682FCB
:1011900080E790E10C949808DC012C911196ED9178
:1011A000FC91F8948181822B81839281322F30953A
:1011B0009323928387E090E00197F1F78181832365
:1011C000818383E290E00197F1F790817894EFECCE
:1011D000F0E03197F1F7922381E009F480E008957F
:1011E000FC0190810180F281E02D292F209560FF84
:1011F00014C0F8948281822382838181892B818328
:10120000A3E2B0E01197F1F78281982B9283789452
:1012100087ED90E00197F1F70895F8948281822399
:1012200082838181892B8183AFEFB0E01197F1F741
:101230008281982B928378948FE090E0EBCFDF92BD
:10124000EF92FF920F931F93CF93DF93EC01D62E73
:10125000E42E08E010E0FF24F39461E08D2D8F214F
:1012600009F460E0CE010E94F008FF0C0150110962
:10127000A1F7E11010C0F894E981FA819181888189
:10128000809589238183E981FA8192818881809583
:10129000892382837894DF91CF911F910F91FF90E2
:1012A000EF90DF900895EF92FF920F931F93CF93EB
:1012B000DF938C017B0140E065E50E941F09E70197
:1012C00088E0E80EF11C699140E0C8010E941F0906
:1012D000CE15DF05C1F7DF91CF911F910F91FF90E0
:1012E000EF900895FC0190810180F281E02DF89447
:1012F0008181292F20958223818378943DE743E0E3
:1013000050E0315029F1DA011197F1F780818923FA
:10131000C1F3F8948281822382838181892B818326
:101320007894ABE7B7E01197F1F7F89481818223C5
:101330008183A3E1B1E01197F1F78081982381E0E7
:1013400009F080E07894E3E6F6E03197F1F708954C
:1013500080E008956F927F928F929F92AF92BF929A
:10136000CF92DF92EF92FF920F931F93CF93DF9371
:101370008C01EB018091BB109091BC100E9472090E
:10138000811102C080E050C0B8018091BB109091E3
:10139000BC100E94530940E06EEB8091BB1090910D
:1013A000BC100E941F098E016E0189E0C80ED11C7D
:1013B0007E01A090BB10B090BC1088E0882E912CCC
:1013C000712C66246394C5010E94CC088111762893
:1013D000660CA1E08A1A9108B1F7F70171927F01BA
:1013E000EC15FD0531F78091BB109091BC100E9467
:1013F0007209813039F6FE018191811104C0EE1627
:10140000FF06D1F7BFCF89E090E0815049F0D801C5
:10141000ED918D01E927F0E0E45FFC4F9491F5CF69
:1014200081E028852913AECFDF91CF911F910F91D5
:10143000FF90EF90DF90CF90BF90AF909F908F90F4
:101440007F906F9008950F931F93CF93DF9300D0F9
:1014500000D000D0CDB7DEB78C01BE016F5F7F4FEB
:101460000E94AA09811105C060E070E08EEF92EC45
:101470003EC06A8170E0762F6627770F770F770F6F
:10148000298148E0249F90011124262B372BF80155
:1014900080818031E1F468856623C9F070E08F8136
:1014A000AB01481B5109CA019695982F882797953B
:1014B00087950E94D354CB018097B90153E0660F02
:1014C000771F5A95E1F760789C01260F371F213866
:1014D00054EE35074CF2B901330F880B990B0E947B
:1014E000275220E030E040E05CE30E9486522996DB
:1014F0000FB6F894DEBF0FBECDBFDF91CF911F9125
:101500000F910895FC0120812EBD9B0121503109CE
:1015100041F051810DB407FEFDCF4EB55EBD419344
:10152000F5CF61507109860F971F0DB407FEFDCFEF
:101530002EB5FC0120830895E091730EF091740E96
:1015400080819091720E892B80830895E091730EB3
:10155000F091740E90818091720E80958923808322
:1015600008958EBD00000DB407FEFDCF8EB5089521
:101570008FEF0C94B10A0F931F93CF93DF93EC017D
:101580000E9413068B010E94B80A8F3F69F00E94E7
:101590001306601B710B6C177D07A8F380E0DF91C9
:1015A000CF911F910F91089581E0F9CFAF92BF9233
:1015B000CF92DF92EF92FF920F931F93CF93DF931F
:1015C00000D000D01F921F92CDB7DEB78C017B01F7
:1015D0006A018091760E8333E1F45801A40EB51EA2
:1015E000A016B10609F46FC00E94A60A80EF0E94FF
:1015F000B10A812F0E94B10A802F0E94B10A0F5FA9
:101600001F4FF70181917F010E94B10A0E949C0A3D
:10161000E7CF5B01A40EB51E8433C1F40E94A60A75
:1016200019830A838D2D80688B83CC8264E070E0FF
:10163000CE0101960E94820AAE14BF0409F441C093
:10164000F70181917F010E94B10AF6CF0E94A60A9C
:101650000F3F110509F028F419820A8384E08B8377
:101660000CC017FD17C019820A8333E01695079541
:101670003A95E1F7007E0C600B8386E0C816D10432
:10168000A0F5F701DE011496EA15FB0599F08191AA
:101690008D93FACFC80126E0969587952A95E1F7B4
:1016A000807E19830A830115104C10F48461D7CF12
:1016B0008C61D5CFB6016D5F7F4FCE0101960E9440
:1016C000820A0E949C0AC60128960FB6F894DEBFD3
:1016D0000FBECDBFDF91CF911F910F91FF90EF9083
:1016E000DF90CF90BF90AF90089563E070E0CE019F
:1016F00001960E94820AF70181917F010E94B10A3E
:10170000AE14BF04C1F7DDCFCF93DF931F92CDB7E7
:10171000DEB7898341E050E0BE016F5F7F4F90E00C
:1017200080E00E94D60A0F90DF91CF91089590E05B
:101730002091760E233339F40C96982F990F990F38
:10174000990F80E008954896F8CFDA01E091770E7E
:10175000F0E0FE2FEE27E60FF71F90E0982F882786
:10176000A901BD018E0F9F1F0C94D60ACF93DF9362
:101770001F921F92CDB7DEB779836A8322E030E0F3
:10178000AE014F5F5F4F60E170E00E94A50B0F90CC
:101790000F90DF91CF910895CF93DF931F921F9207
:1017A000CDB7DEB779836A8322E030E0AE014F5FC8
:1017B0005F4F64E070E00E94A50B0F900F90DF91E7
:1017C000CF910895CF93DF931F92CDB7DEB72091CD
:1017D000770E30E0322F2227260F371F90E0982F08
:1017E0008827498341E050E0BE016F5F7F4F820F41
:1017F000931F0E94D60A0F90DF91CF910895CF9347
:10180000DF931F92CDB7DEB76983DC01ED91FC91C8
:101810000280F381E02D41E050E0BE016F5F7F4F19
:1018200019950F90DF91CF910895CF93DF931F9279
:10183000CDB7DEB76983DC01ED91FC910280F381C5
:10184000E02D41E050E0BE016F5F7F4F19950F9092
:10185000DF91CF910895FC019485FB018485981355
:1018600003C081E0983008F080E00895CF93DF93C3
:101870001F92CDB7DEB76983DC01ED91FC91028048
:10188000F381E02D41E050E0BE016F5F7F4F19957D
:101890000F90DF91CF910895089561E0FC0184815C
:1018A0000E94C9048091DD0B81111092DD0B089517
:1018B0008CBD9DBD0895CF93DF93EC018091DD0B2E
:1018C000811109C081E08093DD0B809125109091FA
:1018D00026100E94580C60E08C81DF91CF910C940F
:1018E000C904CF92DF92EF92FF920F931F93CF9391
:1018F000DF93EC01162F69017A018E81882389F02C
:101900008F8198859C012F5F3F4F38872F838230CE
:10191000924018F40E94B80AF3CFCE010E944D0CF9
:101920001E82CE010E945B0C8CE291E00E94BB0AF9
:10193000812F80640E94B10A08E110E0D701C6013E
:10194000002E04C0B695A795979587950A94D2F76F
:101950000E94B10A08501109083F8FEF180771F76C
:101960008FEF0E94B10A10E00E94B80A8A8787FFB1
:1019700004C01F3F11F01F5FF7CFDF91CF911F9180
:101980000F91FF90EF90DF90CF900895CF92DF926C
:10199000EF92FF920F93CF93DF93EC01690182E105
:1019A000411551056105710599F08B85833039F03A
:1019B00089E0440F551F661F771F8A95D1F79A015A
:1019C000AB0168E1CE010E94710C882319F084E01C
:1019D0008D832DC08EEF0E94B10A76018EEFD81A4A
:1019E000F70181917F010E94B10AEC14FD04C1F757
:1019F0008FEF0E94B10A8FEF0E94B10A0E94B80ACD
:101A00008A878F71853071F4011116C0CE010E9452
:101A10004D0C81E0DF91CF910F91FF90EF90DF901F
:101A2000CF90089581E18D83CE010E944D0CCE01AF
:101A30000E944D0C80E0EECF88E592E00E94BB0A48
:101A4000811102C085E1C4CF20E030E0A9016DE042
:101A5000CE010E94710C882311F084E1B9CF0E945D
:101A6000B80A8111FACFD2CF0F934091DF0B50917A
:101A7000E00B6091E10B7091E20B4115510561059E
:101A8000710589F0082F23EE3BE090E080E00E9492
:101A9000C60C882349F01092DF0B1092E00B1092D5
:101AA000E10B1092E20B81E00F9108950F93CF9319
:101AB000C82F8091DE0B811105C0C1E08C2FCF9122
:101AC0000F91089540913E0250913F026091400273
:101AD000709141020C2F23EE3BE090E080E00E94E9
:101AE000C60C811102C0C0E0E9CFCC2331F381E004
:101AF0000E94340D8823B9F31092DE0BDFCFAF9232
:101B0000BF92CF92DF92EF92FF921F93CF93DF931A
:101B10006B017C01142F80913E0290913F02A091B5
:101B20004002B09141028C159D05AE05BF0509F438
:101B3000ADC081E00E94560D8823E1F1809106003E
:101B40008823A1F08091000090910100A0910200F3
:101B5000B0910300C816D906EA06FB0639F4809155
:101B6000070090910800892B09F44FC0C092000033
:101B7000D0920100E0920200F092030080910B00ED
:101B8000A7019601833039F099E0220F331F441FDB
:101B9000551F9A95D1F761E190E080E00E94710CA9
:101BA000882391F083E08093050090E080E00E941C
:101BB0004D0C80E0DF91CF911F91FF90EF90DF906F
:101BC000CF90BF90AF9008950E941306EB010E9442
:101BD000B80A80930A008F3F79F40E9413066C1BA9
:101BE0007D0B6D32714098F38FE08093050090E09B
:101BF00080E00E944D0CD9CF8E3FC1F510920800B5
:101C00001092070081E080930600C3EEDBE083EED4
:101C1000A82E8DE0B82E0E94B80A8993AC16BD0696
:101C2000D1F780910700909108009E5F9093080083
:101C30008093070020910900222319F0811592401A
:101C4000E8F0809106008823C9F080910700909108
:101C500008009C012F5F3F4F30930800209307003E
:101C60008230924028F40E94B80AEFCF8DE0BDCFB9
:101C700090E080E00E944D0C10920600C0923E025F
:101C8000D0923F02E0924002F09241024091DE0B7E
:101C9000412B4093DE0B81E08DCF4F925F926F928C
:101CA0007F928F929F92AF92BF92CF92DF92EF92EC
:101CB000FF920F931F93CF93DF93EC0142305105B6
:101CC0006105710590F480E0DF91CF911F910F9134
:101CD000FF90EF90DF90CF90BF90AF909F908F904C
:101CE0007F906F905F904F90089589859A85AB851E
:101CF000BC850196A11DB11D84179507A607B707DE
:101D000010F3CB88DC88ED88FE888F89803109F05C
:101D100042C0BB27A72F962F852F480159012A01C2
:101D20003B01C80ED91EEA1EFB1E80913E02909117
:101D30003F02A0914002B0914102C816D906EA06BE
:101D4000FB0699F58F898031C1F5B301A2015527B2
:101D500066277727440F551F4D51544FFA01918242
:101D600080828091DE0B81608093DE0B8A898230D5
:101D700080F08D819E81AF81B8858C0D9D1DAE1D3B
:101D8000BF1D8093DF0B9093E00BA093E10BB0930A
:101D9000E20B81E099CFDB01CA01E7E0B695A79598
:101DA00097958795EA95D1F7B8CF40E0C701B6017E
:101DB0000E947F0D8111C6CF86CFB301A2014F775C
:101DC000552766277727440F551F440F551F4D5140
:101DD000544FFA0180829182A282B382C2CF8F9245
:101DE0009F92AF92BF92CF92DF92EF92FF920F93AA
:101DF0001F93CF93DF93FC0181859285A385B485E2
:101E00000196A11DB11D84179507A607B70770F4A9
:101E100080E0DF91CF911F910F91FF90EF90DF90C5
:101E2000CF90BF90AF909F908F90089583889488B3
:101E3000A588B6888789803189F5BB27A72F962F7B
:101E4000852FE9016A017B018F01BC01CD01680D7D
:101E5000791D8A1D9B1D80903E0290903F02A090AC
:101E60004002B090410286169706A806B90601F511
:101E7000F8018789803111F5DD24EE24FF24F60175
:101E8000EE0FFF1FED51F44F80819181B0E0A0E093
:101E900088839983AA83BB8381E0BBCFDB01CA011E
:101EA000C7E0B695A79597958795CA95D1F7C9CFFD
:101EB00040E00E947F0D8111DBCFAACFE894C7F8E4
:101EC000DD24EE24FF24F601EE0FFF1FEE0FFF1FAF
:101ED000ED51F44F80819181A281B381BF70D8CF41
:101EE0008F929F92AF92BF92CF92DF92EF92FF922A
:101EF0000F931F93CF93DF93EC018D8181110EC05F
:101F000080E0DF91CF911F910F91FF90EF90DF90D4
:101F1000CF90BF90AF909F908F9008950B891C89B0
:101F20002D893E89041715072607370748F34A010C
:101F30005B01823031F48A869B86AC86BD8681E067
:101F4000E0CF81149104A104B10449F41E821F82E0
:101F5000188619861A861B861C861D86F0CF0A8570
:101F60001B852C853D85EB8DFC8D858590E0099644
:101F7000B901A8014150510961097109082E04C035
:101F800076956795579547950A94D2F77501640140
:101F9000E1E0CE1AD108E108F10804C0F694E79414
:101FA000D794C7948A95D2F7C416D506E606F706E5
:101FB00020F0012B022B032B11F58F89988DA98D11
:101FC000BA8D8E839F83A887B9878E010A5F1F4FC2
:101FD000C114D104E104F10409F4ADCF4E815F8155
:101FE0006885798598018B8D9C8D0E94EF0E91E01C
:101FF000C91AD108E108F1088111EACF81CFC41ACA
:10200000D50AE60AF70AE1CF3F924F925F926F92AC
:102010007F928F929F92AF92BF92CF92DF92EF9278
:10202000FF920F931F93CF93DF93CDB7DEB72C971B
:102030000FB6F894DEBF0FBECDBF5C01DC015B962E
:102040008D909C905C9716964D905D906D907C90D5
:102050001997411451046104710409F468C0BFEF79
:102060004B1A5B0A6B0A7B0A312CF401818592853D
:10207000A385B4859C01AD012F5F3F4F4F4F5F4F4C
:1020800029873A874B875C87730162011D821E8214
:102090001F821886F40181859285A385B4852D81E0
:1020A0003E814F815885281739074A075B0708F09A
:1020B00056C089859A85AB85BC858C159D05AE0576
:1020C000BF0550F482E0C82ED12CE12CF12C92E017
:1020D000492E512C612C712C9E012F5F3F4FB7016F
:1020E000A601C4010E94EF0E8823C9F189819A815B
:1020F000AB81BC81892B8A2B8B2B09F126013701FF
:102100009FEF491A590A690A790A2D813E814F8148
:1021100058852F5F3F4F4F4F5F4F2D833E834F8337
:1021200058873FEFC31AD30AE30AF30AB3CFF40187
:1021300040805180628073803324339496CFC414DE
:10214000D504E604F70409F70FEF1FEF2FEF3FE088
:10215000B701A601C4010E944D0E811119C080E093
:102160002C960FB6F894DEBF0FBECDBFDF91CF9196
:102170001F910F91FF90EF90DF90CF90BF90AF90A5
:102180009F908F907F906F905F904F903F900895B9
:10219000D50116964D915D916D917C9119974115E0
:1021A00051056105710539F097018601C4010E944E
:1021B0004D0E8823A1F2D5011696CD92DD92ED92B7
:1021C000FC921997332051F0D701C6010196A11D49
:1021D000B11DF40180839183A283B383F5018789C4
:1021E000908DA18DB28D892B8A2B8B2B39F4848114
:1021F000C78AD08EE18EF28E80688483F501848157
:102200008062848381E0ACCF1F93CF93DF93EC0196
:10221000162F8C8187FF2AC06E857F8588899989D2
:1022200041E00E947F0D882361F1EA8980E2E89F06
:10223000F0011124ED51F44F309719F18D81823066
:1022400040F48B899C89AD89BE89848F958FA68F38
:10225000B78F8F89988D938F828F8F89988DA98D55
:10226000BA8DB58BA48B8C818F778C83111103C0B1
:102270008C818F7E8C83812FDF91CF911F910C9465
:10228000560D80E0DF91CF911F9108951F93CF935A
:10229000DF93EC018D81813031F090E080E0DF91BF
:1022A000CF911F9108958C8181FFF7CF82FD1BC0D4
:1022B00090E080E00E945B0C0E94B80A182F90E02A
:1022C00080E00E944D0C1F3F41F78C8185FF1EC0AE
:1022D0008D81882321F060E0CE010E9404118C8161
:1022E0008F7D8C83DACF4B895C896D897E898A8565
:1022F0009B85AC85BD8584179507A607B707C1F2F6
:10230000CE010E94700F8111D3CFC7CF4091DF0B58
:102310005091E00B6091E10B7091E20B452B462B45
:10232000472B21F080E00E94340DB7CF80618C8371
:102330002A853B85317080E092E0821B930BAFCF02
:102340009F92AF92BF92CF92DF92EF92FF920F9344
:102350001F93CF93DF9300D01F921F92CDB7DEB7AC
:102360008C016D83DC0115968C911597813009F0F5
:10237000B9C014968C9181FFB5C082FD9FC0D80171
:102380005B96ED91FC915C971A96AD90BD90CD90C7
:10239000DC901D9794809A94B601A50189E076950A
:1023A0006795579547958A95D1F79422B1E0BB225E
:1023B000992009F49FC0D8015B96ED91FC915C9740
:1023C0001696CD90DD90ED90FC901997B2E0CB1A67
:1023D000D108E108F108858504C0CC0CDD1CEE1C99
:1023E000FF1C8A95D2F74685578560897189C40E8E
:1023F000D51EE61EF71EC90CD11CE11CF11CA11450
:10240000B10409F00AC1F8014285538564857585D8
:1024100083899489A589B689481759076A077B0774
:1024200008F4FBC081E00E94560D882309F45AC0CD
:10243000C0923E02D0923F02E0924002F0924102EE
:102440008091DE0B81608093DE0BF501ED51F44F3E
:102450008D818083F80182859385A485B585019659
:10246000A11DB11D82879387A487B58743895489AD
:1024700065897689481759076A077B0738F42481EC
:10248000838B948BA58BB68B20682483D8011496FC
:102490008C9183FD9FC081E090E00F900F900F9092
:1024A0000F900F90DF91CF911F910F91FF90EF90C0
:1024B000DF90CF90BF90AF909F900895F80143892F
:1024C00054896589768982859385A485B585481761
:1024D00059076A077B0709F452CFC8010E94700FA1
:1024E00081114DCF81E090E0D80113969C938E939B
:1024F000129749C0D80116964D915D916D917C91CE
:102500001997A114B10409F071C041155105610575
:10251000710589F557968D919D910D90BC91A02DD7
:102520000097A105B10509F04FC0C8010E94041031
:102530008823C1F2D8015B96ED91FC915C971696C9
:10254000CD90DD90ED90FC901997B2E0CB1AD108B8
:10255000E108F108858504C0CC0CDD1CEE1CFF1CD5
:102560008A95D2F74685578560897189C40ED51E34
:10257000E61EF71E48CF9E012F5F3F4FCF010E94FE
:10258000EF0E811103C090E080E087CF89819A81AE
:10259000AB81BC81F801238D348DF901278948EF87
:1025A0005FEF60E070E0203121F048EF5FEF6FEF08
:1025B0007FE084179507A607B70730F0C8010E948F
:1025C00004108111F8CE8ECFF80186839783A087FF
:1025D000B187F1CEF8018581882309F483CF61E0CA
:1025E000C8010E940411811156CF7CCF6A017B0182
:1025F000B2E0CB1AD108E108F108858504C0CC0C03
:10260000DD1CEE1CFF1C8A95D2F746855785608934
:102610007189C40ED51EE61EF71E41E0C701B60142
:102620000E947F0D811111CF5DCFFF920F931F93F9
:10263000CF93DF93EB01FC01178A168A2A812111BF
:1026400009C02B81211106C02C81211103C02D81CD
:10265000222301F141155105E9F08A01FC01F08CBA
:1026600080E591E00E94580CAE014E5F5F4F24E080
:1026700030E06CE070E08F2D0E94A50BB8018F2D2B
:102680000E94B60B81E090E0DF91CF911F910F91F6
:10269000FF90089580E0F7CFFC018485958508952B
:1026A000FC0184899589089522E733E0FC01318398
:1026B0002083FB014089518962897389FC0142832F
:1026C0005383648375830895DC01ED91FC91048C40
:1026D000F58DE02D1994809154029091550220E5DA
:1026E00030E08130910529F08230910531F521E506
:1026F00030E030935302209352028630910531F539
:1027000025E530E030935302209352028B3091053F
:1027100031F52AE530E030935302209352028031A4
:10272000910531F524E93FE13093530220935202A1
:10273000459739F589E99FE120C08330910511F56E
:1027400022E530E030935302209352028730910506
:1027500011F526E530E030935302209352028C307D
:10276000910511F520E93FE1309353022093520285
:102770008131910511F585E99FE190935302809392
:102780005202089584309105F1F423E530E030934E
:1027900053022093520288309105D1F527E530E0AD
:1027A00030935302209352028D309105D1F521E9E7
:1027B0003FE1309353022093520282319105D1F5CB
:1027C00086E99FE1DACF8530910509F096CF24E5BF
:1027D00030E030935302209352028A30910509F081
:1027E00095CF29E530E030935302209352028F3089
:1027F000910509F094CF23E93FE1309353022093F0
:1028000052028431910509F093CF88E99FE1B5CF59
:102810008930910511F728E530E030935302209379
:1028200052028E30910519F722E93FE130935302AD
:10283000209352028331910521F787E99FE19DCFD3
:102840008091980B8823F9F02091960B3091970B8B
:1028500080911A0E90911B0E281739075CF061E0E9
:1028600083E40E94C9041092970B1092960B109269
:10287000980B08958091960B9091970B01969093E9
:10288000970B8093960B08950E9410040E941004E9
:102890000C941004FC01768765870895DC01ED91A6
:1028A000FC91068CF78DE02D199591E0892708950C
:1028B000862F089581E08627089521E0FC01848514
:1028C000883008F020E0822F0895089590E080E09D
:1028D0000895CF93DF93EC0181E080937B0E87E531
:1028E00080939D0E10927C0E10929E0E90E080E0E0
:1028F0000E94C708CE010E94C7080E94620761E0DB
:1029000087E50E94930610927A0E8093790E8823B1
:1029100039F080E790E10E945808DF91CF91089547
:102920008FEFFBCF81E080937B0E88E680939D0E36
:1029300010927C0E10929E0E6FE080E790E10E9454
:1029400098080E94620761E088E60E949306109250
:102950007A0E8093790E80E790E10E9458080895DE
:102960000F931F93CF93DF93EC0188819981009798
:1029700059F02A813B812617370730F081E0DF913B
:10298000CF911F910F9108958B016F5F7F4F0E9430
:102990002356009759F0998388831B830A832C81DF
:1029A0003D81232B59F7FC011082E8CF80E0E7CF6F
:1029B000FC0180819181009711F00C949A55089543
:1029C000FB0101900020E9F73197AF01461B570B3F
:1029D000DC01ED91FC910280F381E02D19948F923E
:1029E0009F92AF92BF92EF92FF920F931F93CF935C
:1029F000DF93CDB7DEB7A1970FB6F894DEBF0FBE59
:102A0000CDBF7C01FA01CB0119A2223008F42AE0E3
:102A10008E010F5D1F4F822E912CB12CA12CBF0176
:102A2000A50194010E946353F901CA016A300CF5B3
:102A3000605DD8016E938D01232B242B252B79F714
:102A400090E080E0109721F0BD01C7010E94E014E2
:102A5000A1960FB6F894DEBF0FBECDBFDF91CF9128
:102A60001F910F91FF90EF90BF90AF909F908F902C
:102A70000895695CDECFCF92DF92EF92FF920F93C1
:102A80001F93CF93DF936B01770FEE08FF08F7FEDC
:102A90001BC0EC016DE20E941C038C0144275527EA
:102AA000BA014C195D096E097F092AE0CE010E9426
:102AB000EF14800F911FDF91CF911F910F91FF9025
:102AC000EF90DF90CF9008952AE0B701A601DF9143
:102AD000CF911F910F91FF90EF90DF90CF900C94CA
:102AE000EF148F929F92AF92BF92CF92DF92EF92AC
:102AF000FF920F931F93CF93DF937C018B016C01A7
:102B000082E0C80ED11C4701E5E08E0E911CD0E09A
:102B1000C0E0F60141916F0150E070E060E02AE012
:102B2000C8010E94EF145C016EE2C8010E941C0300
:102B30008A0D9B1DC80FD91FC814D90451F7F7017E
:102B4000458150E070E060E02AE0C8010E94EF1487
:102B50008C0F9D1FDF91CF911F910F91FF90EF90F0
:102B6000DF90CF90BF90AF909F908F9008952F925D
:102B70003F924F925F926F927F928F929F92AF920D
:102B8000BF92CF92DF92EF92FF921F93CF93DF938A
:102B9000EC016A017B01722EAB019601CB01B601FB
:102BA0000E94AE5464E873E0811126C046015701CB
:102BB000E894B7F82FEF3FEF4FE75FE7C501B401A7
:102BC0000E94AE5481110CC02FEF3FEF4FE75FE73B
:102BD000C501B4010E94205268E873E0181664F041
:102BE0002FEF3FEF4FE75FE4C701B6010E94A95402
:102BF0001816B4F46CE873E0CE01DF91CF911F9109
:102C0000FF90EF90DF90CF90BF90AF909F908F900C
:102C10007F906F905F904F903F902F900C94E014B6
:102C20002FEF3FEF4FE75FECC701B6010E94205244
:102C300087FDE0CF20E030E0A901C701B6010E9486
:102C40002052312C212C87FF09C06DE2CE010E9459
:102C50001C031C01F7FAF094F7F8F09410E060E020
:102C600070E080E09FE3711641F020E030E040E248
:102C700051E40E9401541F5FF6CFA70196010E9404
:102C800095532B013C010E947A544B015C012AE0D0
:102C9000BC01A401CE010E94EF147C01E20CF31CE4
:102CA0001123C1F1C501B4010E9425529B01AC0161
:102CB000C301B2010E9494534B015C016EE2CE014C
:102CC0000E941C03E80EF91E115020F120E030E0B4
:102CD00040E251E4C501B4010E9486522B013C013F
:102CE0000E947A544B01B12CA12C2AE0B501A40119
:102CF000CE010E94EF14E80EF91EC501B4010E9436
:102D000025529B01AC01C301B2010E9494534B01B7
:102D10005C01DACFC701DF91CF911F91FF90EF9057
:102D2000DF90CF90BF90AF909F908F907F906F90EB
:102D30005F904F903F902F90089560E973E00C945E
:102D4000E014CF93DF93BC0188E89FE00E943B151D
:102D5000EC0188E89FE00E949D168C0F9D1FDF917B
:102D6000CF910895CF93DF93AB01BC0122E088E8B7
:102D70009FE00E94B715EC0188E89FE00E949D1635
:102D80008C0F9D1FDF91CF9108950F931F93CF93C9
:102D9000DF93EC010E94E0148C01CE010E949D168D
:102DA000800F911FDF91CF911F910F9108958F9206
:102DB0009F92AF92BF92EF92FF920F931F93CF9388
:102DC000DF9300D01F92CDB7DEB719821A821B8223
:102DD0001C8284E690E0A0E0B0E08093EF0E909338
:102DE000F00EA093F10EB093F20E8E010F5F1F4F05
:102DF0007E0185E0E80EF11C0E9413066093F30E3D
:102E00007093F40E8093F50E9093F60E8BEE9EE089
:102E10000E945F0397FF45C00E9413068090F30E47
:102E20009090F40EA090F50EB090F60E6819790906
:102E30008A099B098090EF0E9090F00EA090F10E01
:102E4000B090F20E681579058A059B05F8F2898124
:102E50008130F9F48A818F3FE1F48B818F3FC9F48F
:102E60008C818F3FB1F463E973E088E89FE00E94B2
:102E7000C51681E00F900F900F900F90DF91CF91CA
:102E80001F910F91FF90EF90BF90AF909F908F9008
:102E900008956DEA73E088E89FE00E94C51680E01F
:102EA000E9CFF80181938F01EE16FF0609F0A4CF58
:102EB000CECF6115710511F00C94E01490E080E024
:102EC00008950F931F93CF938C01C62F81E08093B9
:102ED0007B0E87E580939D0E10927C0E10929E0EC5
:102EE00090E080E00E94C708C8010E94C7088C2FAC
:102EF00090E00E94C7080E94620768EC73E088E8CF
:102F00009FE0CF911F910F910C945917609160022F
:102F100081E090E00E94611760E570E080E090E061
:102F20000E94E00560915E0282E090E00E946117DD
:102F300060E570E080E090E00E94E00560915C0256
:102F400083E090E00E94611760E570E080E090E02F
:102F50000E94E00560915A0284E090E00E946117AF
:102F600060E570E080E090E00E94E005609158022A
:102F700089E190E00E94611760E570E080E090E0F8
:102F80000E94E005609156028BE190E00E9461177B
:102F900060E570E080E090E00E94E00560915402FE
:102FA0008CE190E00E94611760E570E080E090E0C5
:102FB0000C94E00560916C0285E090E00E9461173E
:102FC00060E570E080E090E00E94E005609186029C
:102FD00086E090E00E94611760E570E080E090E09C
:102FE0000E94E0056091840288E090E00E946117F1
:102FF00060E570E080E090E00E94E00560916A0288
:1030000089E090E00E94611760E570E080E090E068
:103010000E94E005609180028AE090E00E946117C2
:1030200060E570E080E090E00E94E0056091880239
:103030008BE090E00E94611760E570E080E090E036
:103040000E94E00560917E028CE090E00E94611792
:1030500060E570E080E090E00E94E0056091680229
:103060008DE090E00E94611760E570E080E090E004
:103070000E94E00560917A028EE090E00E94611764
:1030800060E570E080E090E00E94E00560918202DF
:103090008FE090E00E94611760E570E080E090E0D2
:1030A0000E94E0056091780280E190E00E94611743
:1030B00060E570E080E090E00E94E00560916602CB
:1030C00081E190E00E94611760E570E080E090E0AF
:1030D0000E94E0056091740282E190E00E94611715
:1030E00060E570E080E090E00E94E00560917C0285
:1030F00083E190E00E94611760E570E080E090E07D
:103100000E94E0056091720284E190E00E946117E4
:1031100060E570E080E090E00E94E005609164026C
:1031200085E190E00E94611760E570E080E090E04A
:103130000E94E0056091700286E190E00E946117B4
:1031400060E570E080E090E00E94E005609176022A
:1031500081E290E00E94611760E570E080E090E01D
:103160000E94E00560916E0288E190E00E94611784
:1031700060E570E080E090E00E94E00564E28AE1B2
:1031800090E00E94611760E570E080E090E00E94AE
:10319000E00565ED73E088E89FE00C94C51680912A
:1031A000940B9091950B0196853091050CF08CC095
:1031B0009093950B8093940B8091940B9091950B29
:1031C0000197E1F462EE73E08BEE9EE00E945917E6
:1031D0006CED79E08BEE9EE00E9459170E9444143A
:1031E0006BEE73E08BEE9EE00E94591761E576E08E
:1031F0008BEE9EE00E9459170E9444148091940B1C
:103200009091950B0297E1F46BEE73E08BEE9EE0EC
:103210000E9459176CED79E08BEE9EE00E945917E1
:103220000E94441464EF73E08BEE9EE00E945917F5
:1032300061E576E08BEE9EE00E9459170E944414EF
:103240008091940B9091950B0397E1F464EF73E0F8
:103250008BEE9EE00E9459176CED79E08BEE9EE0BC
:103260000E9459170E9444146DEF73E08BEE9EE0AC
:103270000E94591761E576E08BEE9EE00E94591797
:103280000E9444148091940B9091950B0497F9F44B
:103290006DEF73E08BEE9EE00E9459176CED79E0C4
:1032A0008BEE9EE00E9459170E94441462EE73E078
:1032B0008BEE9EE00E94591761E576E08BEE9EE072
:1032C0000E9459170C94441481E090E071CF089546
:1032D00080918E0B90918F0B0197E9F480916C0295
:1032E00090916D020196853191050CF0A6C29093E4
:1032F0006D0280936C0266E074E08BEE9EE00E94AB
:10330000591760916C0270916D028BEE9EE00E94E5
:103310003B150E94441480918E0B90918F0B029765
:10332000E9F4809186029091870201968932910595
:103330000CF086C2909387028093860260E174E06D
:103340008BEE9EE00E945917609186027091870271
:103350008BEE9EE00E943B150E94441480918E0BE0
:1033600090918F0B0397E9F48091840290918502EC
:103370000196853691050CF066C290938502809384
:1033800084026AE174E08BEE9EE00E94591760911E
:103390008402709185028BEE9EE00E943B150E9494
:1033A000441480918E0B90918F0B049721F580919E
:1033B00088029091890201969093890280938802F5
:1033C00020916002309161022817390724F430936C
:1033D00089022093880264E274E08BEE9EE00E94F2
:1033E000591760918802709189028BEE9EE00E94CD
:1033F0003B150E94441480918E0B90918F0B059782
:10340000E9F480916A0290916B02019685319105F1
:103410000CF01CC290936B0280936A026EE274E01F
:103420008BEE9EE00E94591760916A0270916B02C8
:103430008BEE9EE00E943B150E94441480918E0BFF
:1034400090918F0B0697E9F4809180029091810210
:103450000196893291050CF0FCC190938102809312
:10346000800268E374E08BEE9EE00E945917609141
:103470008002709181028BEE9EE00E943B150E94BB
:10348000441480918E0B90918F0B0797E9F48091F3
:103490007E0290917F020196853691050CF0DCC189
:1034A00090937F0280937E0262E474E08BEE9EE054
:1034B0000E94591760917E0270917F028BEE9EE010
:1034C0000E943B150E94441480918E0B90918F0BAB
:1034D000089721F580918202909183020196909342
:1034E00083028093820220918802309189022817FA
:1034F000390724F430938302209382026CE474E051
:103500008BEE9EE00E9459176091820270918302B7
:103510008BEE9EE00E943B150E94441480918E0B1E
:1035200090918F0B0997E9F480916802909169025C
:103530000196853191050CF092C1909369028093B8
:10354000680266E574E08BEE9EE00E945917609178
:103550006802709169028BEE9EE00E943B150E940A
:10356000441480918E0B90918F0B0A97E9F480910F
:103570007A0290917B020196893291050CF072C11A
:1035800090937B0280937A0260E674E08BEE9EE07B
:103590000E94591760917A0270917B028BEE9EE037
:1035A0000E943B150E94441480918E0B90918F0BCA
:1035B0000B97E9F480917802909179020196853613
:1035C00091050CF052C190937902809378026AE6DB
:1035D00074E08BEE9EE00E94591760917E0270911C
:1035E0007F028BEE9EE00E943B150E944414809166
:1035F0008E0B90918F0B0C9721F580917C0290910E
:103600007D02019690937D0280937C02209182023C
:10361000309183022817390724F430937D022093D8
:103620007C0264E774E08BEE9EE00E945917609183
:103630007C0270917D028BEE9EE00E943B150E9401
:10364000441480918E0B90918F0B0D97E9F480912B
:103650006602909167020196853191050CF008C1D0
:1036600090936702809366026EE774E08BEE9EE0B3
:103670000E94591760916602709167028BEE9EE07E
:103680000E943B150E94441480918E0B90918F0BE9
:103690000E97E9F480917402909175020196893237
:1036A00091050CF0E8C0909375028093740268E86D
:1036B00074E08BEE9EE00E94591760917402709145
:1036C00075028BEE9EE00E943B150E94441480918F
:1036D0008E0B90918F0B0F97E9F48091720290916D
:1036E00073020196853691050CF0C8C09093730261
:1036F0008093720262E974E08BEE9EE00E9459179B
:1037000060917202709173028BEE9EE00E943B15F5
:103710000E94441480918E0B90918F0B409721F55D
:103720008091760290917702019690937702809330
:10373000760220917C0230917D022817390724F40B
:1037400030937702209376026CE974E08BEE9EE072
:103750000E94591760917602709177028BEE9EE07D
:103760000E943B150E94441480918E0B90918F0B08
:103770004197E9F480916402909165020196853148
:1037800091050CF07EC0909365028093640266EA16
:1037900074E08BEE9EE00E94591760916402709174
:1037A00065028BEE9EE00E943B150E9444148091BE
:1037B0008E0B90918F0B4297E9F48091700290915B
:1037C00071020196893291050CF05EC090937102EE
:1037D0008093700260EB74E08BEE9EE00E945917BC
:1037E00060917002709171028BEE9EE00E943B1519
:1037F0000E94441480918E0B90918F0B439709F097
:1038000049C080916E0290916F02019685369105B4
:10381000F4F590936F0280936E026AEB74E08BEE86
:103820009EE00E94591760916E0270916F028BEEBC
:103830009EE00E943B150C94441484E190E057CD27
:1038400088E290E077CD84E690E097CD84E190E047
:10385000E1CD88E290E001CE84E690E021CE84E1E3
:1038600090E06BCE88E290E08BCE84E690E0ABCE29
:1038700084E190E0F5CE88E290E015CF84E690E018
:1038800035CF84E190E07FCF88E290E09FCF84E65F
:1038900090E0BFCF089520918E0B30918F0B213097
:1038A0003105E9F480916C0290916D020197181630
:1038B00019060CF08BC290936D0280936C0266E047
:1038C00074E08BEE9EE00E94591760916C0270913B
:1038D0006D028BEE9EE00E943B150E944414809185
:1038E0008E0B90918F0B0297E9F480918602909154
:1038F00087020197181619060CF06DC29093870283
:103900008093860260E174E08BEE9EE00E9459177E
:1039100060918602709187028BEE9EE00E943B15BB
:103920000E94441480918E0B90918F0B0397E9F4C1
:10393000809184029091850201978A3091050CF460
:103940004DC290938502809384026AE174E08BEE0D
:103950009EE00E94591760918402709185028BEE5F
:103960009EE00E943B150E94441480918E0B909122
:103970008F0B0497E9F48091880290918902019756
:10398000883291050CF42DC29093890280938802AD
:1039900064E274E08BEE9EE00E9459176091880209
:1039A000709189028BEE9EE00E943B150E944414A8
:1039B00080918E0B90918F0B0597E9F480916A02AC
:1039C00090916B020197181619060CF00DC2909396
:1039D0006B0280936A026EE274E08BEE9EE00E94BE
:1039E000591760916A0270916B028BEE9EE00E9403
:1039F0003B150E94441480918E0B90918F0B06977B
:103A0000E9F48091800290918102019718161906BD
:103A10000CF0EDC1909381028093800268E374E022
:103A20008BEE9EE00E945917609180027091810296
:103A30008BEE9EE00E943B150E94441480918E0BF9
:103A400090918F0B0797E9F480917E0290917F020D
:103A500001978A3091050CF4CDC190937F02809339
:103A60007E0262E474E08BEE9EE00E945917609142
:103A70007E0270917F028BEE9EE00E943B150E94B9
:103A8000441480918E0B90918F0B0897E9F48091EC
:103A90008202909183020197883291050CF4ADC1A6
:103AA00090938302809382026CE474E08BEE9EE03C
:103AB0000E94591760918202709183028BEE9EE002
:103AC0000E943B150E94441480918E0B90918F0BA5
:103AD0000997E9F48091680290916902019718169C
:103AE00019060CF08DC1909369028093680266E517
:103AF00074E08BEE9EE00E9459176091680270910D
:103B000069028BEE9EE00E943B150E944414809156
:103B10008E0B90918F0B0A97E9F480917A02909125
:103B20007B020197181619060CF06DC190937B0269
:103B300080937A0260E674E08BEE9EE00E94591753
:103B400060917A0270917B028BEE9EE00E943B15A1
:103B50000E94441480918E0B90918F0B0B97E9F487
:103B6000809178029091790201978A3091050CF446
:103B70004DC190937902809378026AE674E08BEEEF
:103B80009EE00E94591760917E0270917F028BEE39
:103B90009EE00E943B150E94441480918E0B9091F0
:103BA0008F0B0C97E9F480917C0290917D02019734
:103BB000883291050CF42DC190937D0280937C0294
:103BC00064E774E08BEE9EE00E94591760917C02DE
:103BD00070917D028BEE9EE00E943B150E94441482
:103BE00080918E0B90918F0B0D97E9F48091660276
:103BF000909167020197181619060CF00DC1909369
:103C00006702809366026EE774E08BEE9EE00E948E
:103C1000591760916602709167028BEE9EE00E94D8
:103C20003B150E94441480918E0B90918F0B0E9740
:103C3000E9F48091740290917502019718161906A3
:103C40000CF0EDC0909375028093740268E874E004
:103C50008BEE9EE00E94591760917402709175027C
:103C60008BEE9EE00E943B150E94441480918E0BC7
:103C700090918F0B0F97E9F48091720290917302EB
:103C800001978A3091050CF4CDC090937302809314
:103C9000720262E974E08BEE9EE00E945917609117
:103CA0007202709173028BEE9EE00E943B150E949F
:103CB000441480918E0B90918F0B4097E9F4809182
:103CC0007602909177020197883291050CF4ADC08D
:103CD00090937702809376026CE974E08BEE9EE01D
:103CE0000E94591760917602709177028BEE9EE0E8
:103CF0000E943B150E94441480918E0B90918F0B73
:103D00004197E9F480916402909165020197181639
:103D100019060CF08DC0909365028093640266EAE8
:103D200074E08BEE9EE00E945917609164027091DE
:103D300065028BEE9EE00E943B150E944414809128
:103D40008E0B90918F0B4297E9F4809170029091C5
:103D500071020197181619060CF06DC0909371024C
:103D60008093700260EB74E08BEE9EE00E94591726
:103D700060917002709171028BEE9EE00E943B1583
:103D80000E94441480918E0B90918F0B439709F001
:103D900058C080916E0290916F0201978A30910510
:103DA0000CF44CC090936F0280936E026AEB74E047
:103DB0008BEE9EE00E94591760916E0270916F0227
:103DC0008BEE9EE00E943B150C94441430936D02E0
:103DD00020936C0274CD81E090E090CD8AE090E079
:103DE000B0CD88E290E0D0CD81E090E0F0CD81E0F0
:103DF00090E010CE8AE090E030CE88E290E050CEA5
:103E000081E090E070CE81E090E090CE8AE090E09A
:103E1000B0CE88E290E0D0CE81E090E0F0CE81E0BC
:103E200090E010CF8AE090E030CF88E290E050CF71
:103E300081E090E070CF81E090E090CF8AE090E068
:103E4000B1CF089580918E0B90918F0B01968531A3
:103E500091050CF096C290938F0B80938E0B64ECBF
:103E600074E088E89FE00E94591780918E0B909132
:103E70008F0B0E94A11680918E0B90918F0B029751
:103E8000E1F463ED74E08BEE9EE00E9459176CED57
:103E900079E08BEE9EE00E9459170E9444146DED6C
:103EA00074E08BEE9EE00E94591761E576E08BEEA0
:103EB0009EE00E9459170E94441480918E0B9091AD
:103EC0008F0B0397E1F46DED74E08BEE9EE00E94A2
:103ED00059176CED79E08BEE9EE00E9459170E9415
:103EE000441467EE74E08BEE9EE00E94591761E582
:103EF00076E08BEE9EE00E9459170E944414809158
:103F00008E0B90918F0B0497E1F467EE74E08BEECB
:103F10009EE00E9459176CED79E08BEE9EE00E94C6
:103F200059170E94441461EF74E08BEE9EE00E94EA
:103F3000591761E576E08BEE9EE00E9459170E94CA
:103F4000441480918E0B90918F0B0597E1F461EFF3
:103F500074E08BEE9EE00E9459176CED79E08BEED9
:103F60009EE00E9459170E9444146BEF74E08BEEA0
:103F70009EE00E94591761E576E08BEE9EE00E947C
:103F800059170E94441480918E0B90918F0B0697C5
:103F9000E1F46BEF74E08BEE9EE00E9459176CED3C
:103FA00079E08BEE9EE00E9459170E94441465E070
:103FB00075E08BEE9EE00E94591761E576E08BEE8E
:103FC0009EE00E9459170E94441480918E0B90919C
:103FD0008F0B0797E1F465E075E08BEE9EE00E94A1
:103FE00059176CED79E08BEE9EE00E9459170E9404
:103FF00044146FE075E08BEE9EE00E94591761E576
:1040000076E08BEE9EE00E9459170E944414809146
:104010008E0B90918F0B0897E1F46FE075E08BEEBB
:104020009EE00E9459176CED79E08BEE9EE00E94B5
:1040300059170E94441469E175E08BEE9EE00E94DE
:10404000591761E576E08BEE9EE00E9459170E94B9
:10405000441480918E0B90918F0B0997E1F469E1E4
:1040600075E08BEE9EE00E9459176CED79E08BEEC7
:104070009EE00E9459170E94441463E275E08BEEA3
:104080009EE00E94591761E576E08BEE9EE00E946B
:1040900059170E94441480918E0B90918F0B0A97B0
:1040A000E1F463E275E08BEE9EE00E9459176CED3F
:1040B00079E08BEE9EE00E9459170E9444146DE255
:1040C00075E08BEE9EE00E94591761E576E08BEE7D
:1040D0009EE00E9459170E94441480918E0B90918B
:1040E0008F0B0B97E1F46DE275E08BEE9EE00E9482
:1040F00059176CED79E08BEE9EE00E9459170E94F3
:10410000441467E375E08BEE9EE00E94591761E569
:1041100076E08BEE9EE00E9459170E944414809135
:104120008E0B90918F0B0C97E1F467E375E08BEEAB
:104130009EE00E9459176CED79E08BEE9EE00E94A4
:1041400059170E94441461E475E08BEE9EE00E94D2
:10415000591761E576E08BEE9EE00E9459170E94A8
:10416000441480918E0B90918F0B0D97E1F461E4D4
:1041700075E08BEE9EE00E9459176CED79E08BEEB6
:104180009EE00E9459170E9444146BE475E08BEE88
:104190009EE00E94591761E576E08BEE9EE00E945A
:1041A00059170E94441480918E0B90918F0B0E979B
:1041B000E1F46BE475E08BEE9EE00E9459176CED24
:1041C00079E08BEE9EE00E9459170E94441465E549
:1041D00075E08BEE9EE00E94591761E576E08BEE6C
:1041E0009EE00E9459170E94441480918E0B90917A
:1041F0008F0B0F97E1F465E575E08BEE9EE00E9472
:1042000059176CED79E08BEE9EE00E9459170E94E1
:1042100044146FE575E08BEE9EE00E94591761E54E
:1042200076E08BEE9EE00E9459170E944414809124
:104230008E0B90918F0B4097E1F46FE575E08BEE5C
:104240009EE00E9459176CED79E08BEE9EE00E9493
:1042500059170E94441469E675E08BEE9EE00E94B7
:10426000591761E576E08BEE9EE00E9459170E9497
:10427000441480918E0B90918F0B4197E1F469E685
:1042800075E08BEE9EE00E9459176CED79E08BEEA5
:104290009EE00E9459170E94441463E775E08BEE7C
:1042A0009EE00E94591761E576E08BEE9EE00E9449
:1042B00059170E94441480918E0B90918F0B429756
:1042C000E1F463E775E08BEE9EE00E9459176CED18
:1042D00079E08BEE9EE00E9459170E9444146DE72E
:1042E00075E08BEE9EE00E94591761E576E08BEE5B
:1042F0009EE00E9459170E94441480918E0B909169
:104300008F0B4397E1F46DE775E08BEE9EE00E9422
:1043100059176CED79E08BEE9EE00E9459170E94D0
:10432000441467E875E08BEE9EE00E94591761E542
:1043300076E08BEE9EE00E9459170E944414809113
:104340008E0B90918F0B0197F9F467E875E08BEE77
:104350009EE00E9459176CED79E08BEE9EE00E9482
:1043600059170E94441463ED74E08BEE9EE00E94A6
:10437000591761E576E08BEE9EE00E9459170C9488
:10438000441481E090E067CD0895809138029091C7
:1043900039020196803191050CF0E6C19093390203
:1043A0008093380280913802909139020197E1F4AC
:1043B00061E975E08BEE9EE00E9459176CED79E0A3
:1043C0008BEE9EE00E9459170E9444146AE975E042
:1043D0008BEE9EE00E94591761E576E08BEE9EE041
:1043E0000E9459170E94441480918E0B90918F0B5C
:1043F0000E94A11680913802909139020297E1F44F
:104400006AE975E08BEE9EE00E9459176CED79E049
:104410008BEE9EE00E9459170E94441463EA75E0F7
:104420008BEE9EE00E94591761E576E08BEE9EE0F0
:104430000E9459170E9444148091380290913902C9
:104440000397E1F463EA75E08BEE9EE00E94591752
:104450006CED79E08BEE9EE00E9459170E944414A7
:104460006CEA75E08BEE9EE00E94591761E576E0FC
:104470008BEE9EE00E9459170E94441480913802EE
:10448000909139020497E1F46CEA75E08BEE9EE0BE
:104490000E9459176CED79E08BEE9EE00E9459174F
:1044A0000E94441465EB75E08BEE9EE00E94591764
:1044B00061E576E08BEE9EE00E9459170E9444145D
:1044C00080913802909139020597E1F465EB75E02F
:1044D0008BEE9EE00E9459176CED79E08BEE9EE02A
:1044E0000E9459170E9444146EEB75E08BEE9EE01B
:1044F0000E94591761E576E08BEE9EE00E94591705
:104500000E94441480913802909139020697E1F498
:104510006EEB75E08BEE9EE00E9459176CED79E032
:104520008BEE9EE00E9459170E94441467EC75E0E0
:104530008BEE9EE00E94591761E576E08BEE9EE0DF
:104540000E9459170E9444148091380290913902B8
:104550000797E1F467EC75E08BEE9EE00E94591737
:104560006CED79E08BEE9EE00E9459170E94441496
:1045700060ED75E08BEE9EE00E94591761E576E0F4
:104580008BEE9EE00E9459170E94441480913802DD
:10459000909139020897E1F460ED75E08BEE9EE0B2
:1045A0000E9459176CED79E08BEE9EE00E9459173E
:1045B0000E94441469ED75E08BEE9EE00E9459174D
:1045C00061E576E08BEE9EE00E9459170E9444144C
:1045D00080913802909139020997E1F469ED75E014
:1045E0008BEE9EE00E9459176CED79E08BEE9EE019
:1045F0000E9459170E94441462EE75E08BEE9EE013
:104600000E94591761E576E08BEE9EE00E945917F3
:104610000E94441480913802909139020A97E1F483
:1046200062EE75E08BEE9EE00E9459176CED79E02A
:104630008BEE9EE00E9459170E9444146BEE75E0C9
:104640008BEE9EE00E94591761E576E08BEE9EE0CE
:104650000E9459170E9444148091380290913902A7
:104660000B97E1F46BEE75E08BEE9EE00E9459171C
:104670006CED79E08BEE9EE00E9459170E94441485
:1046800064EF75E08BEE9EE00E94591761E576E0DD
:104690008BEE9EE00E9459170E94441480913802CC
:1046A000909139020C97E1F464EF75E08BEE9EE097
:1046B0000E9459176CED79E08BEE9EE00E9459172D
:1046C0000E9444146DEF75E08BEE9EE00E94591736
:1046D00061E576E08BEE9EE00E9459170E9444143B
:1046E00080913802909139020D97E1F46DEF75E0F9
:1046F0008BEE9EE00E9459176CED79E08BEE9EE008
:104700000E9459170E94441466E076E08BEE9EE00A
:104710000E94591761E576E08BEE9EE00E945917E2
:104720000E94441480913802909139020E97F9F456
:1047300066E076E08BEE9EE00E9459176CED79E022
:104740008BEE9EE00E9459170E94441461E975E0C7
:104750008BEE9EE00E94591761E576E08BEE9EE0BD
:104760000E9459170C94441481E090E017CE0895EC
:10477000CF93DF93EC018BEE9EE00E948103892BA7
:1047800029F08BEE9EE00E945F03F5CFBE018BEE19
:104790009EE00E9459170E9410040E941004DF91AD
:1047A000CF910C9410046091900B7091910B88E85C
:1047B0009FE00E943B156FE076E088E89FE00E9452
:1047C000591780913C0290913D02892B11F581E0AF
:1047D00090E090933D0280933C026AE176E08BEE9C
:1047E0009EE00E94591769E276E088E89FE00E9407
:1047F00059178091900B9091910B0E94A1160E94E5
:10480000441460E08AE10E94C90461E085E40C94EC
:10481000C90463E376E08BEE9EE00E945917609135
:10482000900B7091910B88E89FE00E943B1562E429
:1048300076E088E89FE00E9459170E944414109285
:104840003D0210923C0261E08AE10E94C90460E0EE
:10485000DDCF80913A0290913B02892B21F581E0D6
:1048600090E090933B0280933A0268E476E08BEE0E
:104870009EE00E94591769E276E088E89FE00E9476
:1048800059176091900B7091910B88E89FE00E94FE
:104890003B150E94441460E089E10E94C90461E074
:1048A0008FE30C94C90467E576E08BEE9EE00E94EE
:1048B00059170E94441410923B0210923A0261E090
:1048C00089E10E94C90460E0EBCF6091900B709188
:1048D000910B88E89FE00E943B156FE076E088E846
:1048E0009FE00E9459178091900B9091910B892B1A
:1048F00021F581E090E09093910B8093900B66E618
:1049000076E08BEE9EE00E9459170E94441469E203
:1049100076E088E89FE00E9459176091900B7091B3
:10492000910B88E89FE00E943B1560E088E10E94BF
:10493000C90461E080E40C94C90465E776E08BEE7D
:104940009EE00E9459176091900B7091910B88E83E
:104950009FE00E943B1562E476E088E89FE00E94B9
:1049600059170E9444141092910B1092900B61E021
:1049700088E10E94C90460E0DDCF64E876E08BEE58
:104980009EE00E9459170E94441410920B0E109240
:104990000A0E60E080E40E94C90461E088E10E94A0
:1049A000C9046FE876E088E89FE00E94C51610927F
:1049B000130E1092120E81E090E09093910B809371
:1049C000900B0895CF93DF9380918C0B90918D0B7A
:1049D000892B01F5C1E0D0E0D0930B0EC0930A0EF5
:1049E0006BE976E08BEE9EE00E9459170E9444141A
:1049F00061E080E40E94C90460E088E10E94C9048B
:104A000066EA76E088E89FE00E94C516D093910B95
:104A1000C093900B80918C0B90918D0B8130910500
:104A2000B1F490930B0E80930A0E60E080E40E9434
:104A3000C90461E088E10E94C90466EA76E088E87A
:104A40009FE00E94C5161092910B1092900BDF917F
:104A5000CF9108956CEF79E08BEE9EE00E9459179C
:104A60000E9410040E9410040C9410048091940B76
:104A70009091950B0197E9F4809160029091610209
:104A80000196863591050CF092C090936102809357
:104A9000600263EB76E08BEE9EE00E945917609116
:104AA0006002709161028BEE9EE00E943B150E94B5
:104AB0002A258091940B9091950B029721F5809176
:104AC0005E0290915F02019690935F0280935E0276
:104AD00020916002309161022817390724F4309345
:104AE0005F0220935E026DEB76E08BEE9EE00E940B
:104AF000591760915E0270915F028BEE9EE00E94FA
:104B00003B150E942A258091940B9091950B039759
:104B100021F580915C0290915D02019690935D0277
:104B200080935C022091600230916102281739075E
:104B300024F430935D0220935C0267EC76E08BEE08
:104B40009EE00E94591760915C0270915D028BEEAD
:104B50009EE00E943B150E942A258091940B909123
:104B6000950B049739F580915A0290915B0201965A
:104B700090935B0280935A0220916002309161020F
:104B80002817390724F430935B0220935A0261ED11
:104B900076E08BEE9EE00E94591760915A02709168
:104BA0005B028BEE9EE00E943B150C942A2585E566
:104BB00090E06BCF08958091940B9091950B0197A5
:104BC000E9F4809160029091610201978832910529
:104BD0000CF47BC0909361028093600263EB76E0FB
:104BE0008BEE9EE00E945917609160027091610205
:104BF0008BEE9EE00E943B150E942A258091940B2B
:104C00009091950B0297E9F480915E0290915F027A
:104C10000197883291050CF45BC090935F028093FA
:104C20005E026DEB76E08BEE9EE00E94591760917C
:104C30005E0270915F028BEE9EE00E943B150E9427
:104C40002A258091940B9091950B0397E1F4809124
:104C50005C0290915D02019788329105E4F1909396
:104C60005D0280935C0267EC76E08BEE9EE00E9432
:104C7000591760915C0270915D028BEE9EE00E947C
:104C80003B150E942A258091940B9091950B0497D7
:104C900041F580915A0290915B020197883291050B
:104CA000ECF090935B0280935A0261ED76E08BEE1C
:104CB0009EE00E94591760915A0270915B028BEE40
:104CC0009EE00E943B150C942A2588E290E082CF5A
:104CD00088E290E0A2CF88E290E0C1CF88E290E045
:104CE000E0CF08958091920B9091930B892B09F05E
:104CF0004CC080918402909185020A96909385021F
:104D0000809384026BED76E088E89FE00E9459175B
:104D100090E080E00E94A11680918402909185022B
:104D20008734910564F080E590E09093850280934C
:104D3000840281E090E09093930B8093920B6091BA
:104D40001E0E70911F0E88E89FE00E943B1567EFD2
:104D500076E08BEE9EE00E9459170E94441465E1B4
:104D600077E08BEE9EE00E94591760E277E08BEED1
:104D70009EE00E94591760918402709185028BEE2B
:104D80009EE00E943B150C942A2566E077E08BEEAE
:104D90009EE00E9459170E9444141092930B1092A7
:104DA000920B1092850210928402D9CF8091580202
:104DB00090915902019701F51092590210925802F0
:104DC00066E277E08BEE9EE00E94591761E576E09F
:104DD0008BEE9EE00E9459170E9444146FE277E028
:104DE0008BEE9EE00E94591769E377E08BEE9EE020
:104DF0000E9459170C942A2581E090E09093590263
:104E00008093580266E277E08BEE9EE00E9459178D
:104E100062E477E08BEE9EE00E9459170E944414F2
:104E20006FE277E08BEE9EE00E94591767E477E02F
:104E3000DDCF80913802909139020D97F1F4809185
:104E4000540290915502019687319105CCF59093CB
:104E50005502809354020E946B136FE477E08BEE4F
:104E60009EE00E94591760915202709153028BEE9E
:104E70009EE00E943B150E942A2580913802909165
:104E800039020E9719F580915602909157020196BA
:104E9000853F21E09207BCF490935702809356021D
:104EA00069E577E08BEE9EE00E945917609156020B
:104EB000709157028BEE9EE00E943B150C942A25C0
:104EC00081E090E0C4CF84EF91E0E6CF0895809137
:104ED0003802909139020D97F1F48091540290912B
:104EE0005502019718161906C4F590935502809340
:104EF00054020E946B136FE477E08BEE9EE00E94F9
:104F0000591760915202709153028BEE9EE00E94FD
:104F10003B150E942A2580913802909139020E9704
:104F200011F58091560290915702019718161906B3
:104F3000BCF4909357028093560269E577E08BEEBC
:104F40009EE00E94591760915602709157028BEEB5
:104F50009EE00E943B150C942A2585E190E0C5CF88
:104F600089E99FE1E6CF0895EF92FF920F931F9397
:104F7000CF93DF93EC017B01198218821B821A8286
:104F80001D821C82FB0101900020E9F731978F01FF
:104F9000061B170BB8010E94B014288139818111BA
:104FA00013C02115310519F0C9010E949A551982C3
:104FB00018821D821C821B821A82DF91CF911F9161
:104FC0000F91FF90EF9008951D830C83B701C901E5
:104FD000DF91CF911F910F91FF90EF900C94195793
:104FE000EF92FF920F931F93CF93DF9300D000D0E7
:104FF000CDB7DEB7FC01E280F38010E0E114F104EC
:1050000079F163E677E0CE0101960E94B427F701BB
:1050100001900020E9F73197EE19FF09B1F00D81F9
:105020001E810E0F1F1FB801CE0101960E94B01401
:10503000882359F029813A818D819E81B701820FA1
:10504000931F0E9419571E830D8389819A810E94A4
:10505000B8230E94D716182FCE0101960E94D814AB
:10506000812F26960FB6F894DEBF0FBECDBFDF911D
:10507000CF911F910F91FF90EF90089587E292E1F9
:105080000E94F02769E677E08BEE9EE00E945917B8
:1050900060916002709161028BEE9EE00E943B1570
:1050A0000E94441466E074E08BEE9EE00E94591763
:1050B00060916C0270916D028BEE9EE00E943B1538
:1050C0000E94441460E174E08BEE9EE00E94591748
:1050D00060918602709187028BEE9EE00E943B15E4
:1050E0000E9444146AE174E08BEE9EE00E9459171E
:1050F00060918402709185028BEE9EE00E943B15C8
:105100000E94441464E274E08BEE9EE00E94591702
:1051100060918802709189028BEE9EE00E943B159F
:105120000E9444146EE274E08BEE9EE00E945917D8
:1051300060916A0270916B028BEE9EE00E943B15BB
:105140000E94441468E374E08BEE9EE00E945917BD
:1051500060918002709181028BEE9EE00E943B156F
:105160000E94441462E474E08BEE9EE00E945917A2
:1051700060917E0270917F028BEE9EE00E943B1553
:105180000E9444146CE474E08BEE9EE00E94591778
:1051900060918202709183028BEE9EE00E943B152B
:1051A0000E94441466E574E08BEE9EE00E9459175D
:1051B00060916802709169028BEE9EE00E943B153F
:1051C0000E94441460E674E08BEE9EE00E94591742
:1051D00060917A0270917B028BEE9EE00E943B15FB
:1051E0000E9444146AE674E08BEE9EE00E94591718
:1051F00060917802709179028BEE9EE00E943B15DF
:105200000E94441464E774E08BEE9EE00E945917FC
:1052100060917C0270917D028BEE9EE00E943B15B6
:105220000E9444146EE774E08BEE9EE00E945917D2
:1052300060916602709167028BEE9EE00E943B15C2
:105240000E94441468E874E08BEE9EE00E945917B7
:1052500060917402709175028BEE9EE00E943B1586
:105260000E94441462E974E08BEE9EE00E9459179C
:1052700060917202709173028BEE9EE00E943B156A
:105280000E9444146CE974E08BEE9EE00E94591772
:1052900060917602709177028BEE9EE00E943B1542
:1052A0000E94441466EA74E08BEE9EE00E94591757
:1052B00060916402709165028BEE9EE00E943B1546
:1052C0000E94441460EB74E08BEE9EE00E9459173C
:1052D00060917002709171028BEE9EE00E943B150E
:1052E0000E9444146AEB74E08BEE9EE00E94591712
:1052F00060916E0270916F028BEE9EE00E943B15F2
:105300000E94441481E090E090938F0B80938E0B69
:1053100063ED74E08BEE9EE00E94591761E576E044
:105320008BEE9EE00E9459170C9444148BE192E19D
:105330000E94F02780915802909159020197E1F460
:1053400066E277E08BEE9EE00E94591762E477E018
:105350008BEE9EE00E9459170E9444146FE277E0A2
:105360008BEE9EE00E94591767E477E08BEE9EE09B
:105370000E9459170E942A25809158029091590243
:10538000892BE1F466E277E08BEE9EE00E945917EC
:1053900061E576E08BEE9EE00E9459170E9444146E
:1053A0006FE277E08BEE9EE00E94591769E377E0A9
:1053B0008BEE9EE00E9459170E942A2569E577E04E
:1053C0008BEE9EE00E945917609156027091570231
:1053D0008BEE9EE00E943B150E942A250E946B13D3
:1053E0006FE477E08BEE9EE00E94591760915202C5
:1053F000709153028BEE9EE00E943B150E942A257D
:105400006AE975E08BEE9EE00E94591761E576E04F
:105410008BEE9EE00E9459170C94441483E392E1B2
:105420000E94F02781E090E090933B0280933A0243
:1054300010923D0210923C021092910B1092900B30
:1054400010921F0E10921E0E90930D0E80930C0E54
:1054500061E088E10E94C90460E089E10E94C9041A
:1054600061E08AE10E94C90460E080E40E94C9040E
:1054700061E08FE30E94C90460E085E40E94C904F2
:1054800068E476E08BEE9EE00E9459170C94441479
:105490008FE392E10E94F02763EB76E08BEE9EE0D3
:1054A0000E94591760916002709161028BEE9EE03C
:1054B0000E943B150E942A256DEB76E08BEE9EE064
:1054C0000E94591760915E0270915F028BEE9EE020
:1054D0000E943B150E942A2567EC76E08BEE9EE049
:1054E0000E94591760915C0270915D028BEE9EE004
:1054F0000E943B150E942A2561ED76E08BEE9EE02E
:105500000E94591760915A0270915B028BEE9EE0E7
:105510000E943B150E942A256BEE73E08BEE9EE005
:105520000E94591761E576E08BEE9EE00E945917C4
:105530000E9444141092110E1092100E81E090E01F
:105540009093950B8093940B08950C94482A0C9497
:10555000482A8BE492E10C94F0278BE492E10C94BE
:10556000F02710920D0E10920C0E8BE492E10C9429
:10557000F02785ED8093BC008091E70E9091E80EB6
:10558000A091E90EB091EA0E0796A11DB11D23E08E
:10559000B695A795979587952A95D1F72091BC0048
:1055A00024FD03C01092E50E08954091E70E50913E
:1055B000E80E6091E90E7091EA0E452B462B472BC1
:1055C00069F30097A105B10541F025E32A95F1F7AC
:1055D00000000197A109B109E1CF8091E60E0C947A
:1055E0007206AF92BF92CF92DF92EF92FF920F932B
:1055F0001F93CF93DF9300D01F92CDB7DEB78C01FE
:105600006B017A018091760E8333E9F45B016801C6
:10561000C40ED51EC016D106A9F10E94A60A8FE0BD
:105620000E94B10A812F0E94B10A802F0E94B10A04
:105630000F5F1F4F80E00E94B10AF50181935F0167
:105640000E949C0AE7CF843369F50E94A60A198359
:105650000A838F2D8F778B83EC8264E070E0CE011C
:1056600001960E94820AA70170E060E0C6010E94D4
:105670001257E114F10421F0B701C6010E94820A19
:105680000E949C0AC7010F900F900F900F90DF911E
:10569000CF911F910F91FF90EF90DF90CF90BF902F
:1056A000AF9008950E94A60A0F3F110509F030F44B
:1056B00019820A831B8263E070E0D1CF17FD0BC013
:1056C00019820A8333E0169507953A95E1F7007E33
:1056D00008600B83F0CFC80126E0969587952A9540
:1056E000E1F7807E19830A830115104C18F480615C
:1056F0008B83E1CF8861FCCFCF93DF931F92CDB72F
:10570000DEB72091770E30E0322F2227260F371F89
:1057100090E0982F882741E050E0BE016F5F7F4FF7
:10572000820F931F0E94F12A89810F90DF91CF9100
:105730000895CF93C82F462F61E070E00E94E20BDE
:1057400061E070E08C2F0E947C2B8111F9CFCF910A
:105750000895CF93C82F80E591E00E94580C68E02F
:1057600070E08C2FCF910C94992BCF93C82F80E5AC
:1057700091E00E94580C60E170E08C2FCF910C9466
:10578000992BCF93DF93EC01888D883020F40E9411
:10579000B52B88E0888FDF91CF91089563E070E0AA
:1057A0000C947C2BCF93C82F80E591E00E94580C7D
:1057B0008C2FCF910C94CE2BEF92FF920F931F93CF
:1057C000CF93DF937C018091760ED4E0833309F090
:1057D000D8E00CE51EE0C0E0F801219131918F0185
:1057E000F701848195812817390729F0CF5FDC13F1
:1057F000F3CF80E006C08C2F0E94D22B8431B1F70A
:1058000081E0DF91CF911F910F91FF90EF9008956C
:10581000CF93DF93EC018C858830D0F40E94D22B9B
:10582000843189F0882379F0883169F021E08C3166
:1058300059F4E881F9810084F185E02DCE011995B4
:1058400021E0892B09F420E0822FDF91CF91089588
:1058500080E0FBCFCF92DF92EF92FF92CF93DF9366
:10586000EC018C85883068F40E94A92B0E941306F5
:105870006B017C018C850E94D22B811109C088E0CC
:105880008C87DF91CF91FF90EF90DF90CF900895BC
:1058900061E070E080E090E00E94E0050E94130665
:1058A000AB01BC014C195D096E097F098D859E8590
:1058B000B0E0A0E0481759076A077B07D8F28C854B
:1058C0000E94B52BDCCFCF93FC01C08D80E591E029
:1058D0000E94580C60E270E08C2F0E94992B62E0CD
:1058E00070E08C2F0E947C2B84FD16C062E070E07B
:1058F0008C2F0E947C2B83FF0AC048E162E070E09D
:105900008C2F0E94E20B80E090E0CF91089580E51B
:1059100091E00E94580CE3CF40E162E070E08C2FF0
:105920000E94E20B81E0F0CFCF93DF931F92CDB7BF
:10593000DEB741E050E0BE016F5F7F4F90E080E056
:105940000E94F12A89810F90DF91CF910895CF9322
:10595000DF93C4E1D0E00E94942C882361F061E0E1
:1059600070E080E090E00E94E0052197A1F780E0E0
:10597000DF91CF91089581E0FBCFCF92DF92EF923C
:10598000FF921F93CF93DF93CDB7DEB76A970FB621
:10599000F894DEBF0FBECDBFFA0122E733E03A83B1
:1059A00029835FEF5B835C835D831E8238872F834F
:1059B000C280D380E480F580C986DA86EB86FC86D7
:1059C000FB0142815381648175814F87588B698BBC
:1059D0007A8B3C8B2B8BFC0182819381A481B581D6
:1059E0008D8B9E8BAF8BB88F8091780E81119BC071
:1059F00060E372E080E090E00E94E0051FB7F89459
:105A00008091750E811127C0E1EAF4E08491E7EE00
:105A1000F4E09491E82FF0E0EE0FFF1FEE50FD4F01
:105A2000A591B491EC91E92321F461E085E30E9412
:105A3000C90461E085E30E948A058CB580618CBD54
:105A40008CB580648CBD61E084E30E948A0561E0CE
:105A500083E30E948A058091750E8F5F8093750E97
:105A60001FBFE6E7F4E0E491F0E0EE0FFF1FE8521D
:105A7000FD4F859194919093740E8093730EECEB8F
:105A8000F4E0E491E093720E61E08AE00E948A05FE
:105A90000E949C0A80E591E00E94580C84E3809368
:105AA000760E80E80E94840B0E94A72C882309F4BC
:105AB0006EC088E00E94840B0E94942C883009F00C
:105AC00066C080E10E94840B0E94942C803109F012
:105AD0005EC080E00E94840B0E94942C182F8111DC
