:100000000C9478020C94543D0C94293D0C94FE3CC5
:100010000C94D33C0C94A83C0C947D3C0C94523C26
:100020000C94273C0C947F3D0C947F3D0C947F3DB9
:100030000C94A9020C94A9020C94A9020C94A90294
:100040000C94A9020C94A9020C94A9020C94A90284
:100050000C94893D0C94A9020C94A9020C94DD3BEC
:100060000C94A9020C94A73B0C947D3B0C94A90220
:100070000C94A9020C94A9020C94A9020C94A90254
:100080000C94A9020C94A9020C94A9020C94A90244
:100090000C94473B0C941D3B0C94A9020C94B43D6A
:1000A0000C94A9020C94A9020C94A9020C94A90224
:1000B0000C94A9020C94A9020C94A9020C94A90214
:1000C0000C94A9020C94A9020C94A9020C94A90204
:1000D0000C94A9020C94A9020C94A9020C94A902F4
:1000E0000C94A9020C948F040C9413030C94BD037C
:1000F0000C944E130C94B1040C944C280C94AC2327
:100100000C9499040C9415030C9443080C949A28AD
:100110000C949D130C94F24D0C9495180C94782823
:100120000C9484040C94781B0C94DD240C941C2EE9
:100130000C949D450C94A3040C9487450C94CB1609
:100140000C947B030C9452080C9415270C94792F73
:100150000C949A110C94742D0C9407170C94FC17A2
:100160000C949F210C94142D0C94F6360C941B4582
:100170000C940F040C948C040C949B450C94A213C7
:100180000C948F2D0C94AB130C94B5040C948E45E9
:100190000C9495450C9435260C941D030C94213732
:1001A0000C9480040C941D270C9459030C94DB3A96
:1001B0000C944F1E0C9470220C94B6140C944011A5
:1001C0000C947A040C9414030C94DC2F0C94503A85
:1001D0000C949F040C9465130C947E260C9463215C
:1001E0000C94982F0C946D030C94BB300C94C22F7C
:1001F0000C948F130C9499450C94AA130C94300C06
:100200000C94FF2C0C949F130C9421270C947905CB
:100210000C944A030C9419270C9446130C9431281F
:100220000C94AD040C944A130C94F90B0C94BF0479
:100230000C9424450C94D42A0C94BA040C94A12E4A
:100240000C94250C0C940F130C940F030C9465085C
:100250000C9410240C94D3280C9415230C94931311
:100260000C94BB040C94D83E0C94A7040C940D2160
:100270000C949D300C9417270C94DD390C94974501
:100280000C94E32A0C9419060C940F0C0C945E1336
:100290000C9492080C94D2020C94EB300C948804C9
:1002A0000C94F12B0C94CB360C9495041F1C1F1E40
:1002B0001F1E1F1F1E1F1E32333A33333A303200C7
:1002C0004465632031362032303230000000220095
:1002D000250028002B002E00310034000201000010
:1002E000050108010B0100002100240027002A005D
:1002F0002D003000330001010000040107010A0154
:10030000005EBCE2613FDD83C29C7E20A3FD1F41F5
:100310009DC3217FFCA2401E5F01E3BD3E6082DCE5
:10032000237D9FC1421CFEA0E1BF5D0380DE3C62D5
:10033000BEE0025CDF81633D7C22C09E1D43A1FFC5
:100340004618FAA427799BC584DA3866E5BB5907B5
:10035000DB856739BAE406581947A5FB7826C49AA5
:10036000653BD987045AB8E6A7F91B45C6987A2495
:10037000F8A6441A99C7257B3A6486D85B05E7B985
:100380008CD2306EEDB3510F4E10F2AC2F7193CD75
:10039000114FADF3702ECC92D38D6F31B2EC0E5065
:1003A000AFF1134DCE90722C6D33D18F0C52B0EE55
:1003B000326C8ED0530DEFB1F0AE4C1291CF2D7345
:1003C000CA947628ABF517490856B4EA6937D58B35
:1003D0005709EBB536688AD495CB2977F4AA481625
:1003E000E9B7550B88D6346A2B7597C94A14F6A815
:1003F000742AC896154BA9F7B6E80A54D7896B3505
:1004000000000A0B02090C0D0E080703040100008E
:1004100000000000000000000000000000000000DC
:100420000000000000000000000000001211100099
:1004300000000000000000000000000000000000BC
:10044000000000000000000020002300260029001A
:100450002C002F00320000010000030106010901F9
:1004600005050505070508080808020202020A0A30
:10047000080804040404010101010101010103034E
:10048000030303030303040707070C0C0C0C0C0CF9
:100490000C0C0202020206060606060606060B0BF6
:1004A0000B0B0B0B0B0B0102102020080810204037
:1004B0001020408002010201080402010102040828
:1004C00010204080804020100804020180040201B6
:1004D00080402010080402010804020101020408FF
:1004E000102040800102040810204080D83EF24DC8
:1004F00011241FBECFEFD1E2DEBFCDBF00E00CBFA5
:100500001AE0A0E0B2E0E2E2F6EA00E00BBF02C0CF
:1005100007900D92A63DB107D9F721E1A6EDBAE00B
:1005200001C01D92A53CB207E1F712E0C7E7D2E097
:1005300000E006C021970109802FFE010E94C650ED
:10054000C637D10780E00807A9F70E943F420C9404
:10055000FF520C940000FC01A089B18982E08C93C9
:10056000A485B5851C92A685B7858FEC8C93108EDB
:10057000A489B58986E08C93A289B3898C91806126
:100580008C93A289B3898C9188608C93A289B3895A
:100590008C9180688C930288F389E02D80818F7D17
:1005A000808308958091CB0D9091CC0D891B990B80
:1005B0000895DC01CB0133E0880F991FAA1FBB1FF0
:1005C0003A95D1F7009721E0A207B105FCF421E0AC
:1005D0002093C00D2FB72093C10DF8949093BF0DB9
:1005E0008093BE0D90938700809386008091C10D0B
:1005F0008FBF80918100887F8093810080918100EE
:100600009091C00D892B80938100089523E0B595CA
:10061000A795979587952A95D1F722E0D9CFFC0128
:10062000818D928D0895089508950895DC01ED91CE
:10063000FC910190F081E02D1994AF92BF92CF927E
:10064000DF92EF92FF920F931F93CF93DF936C0192
:100650007B018B01040F151FEB015E01AE18BF0873
:10066000C017D10759F06991D601ED91FC91019025
:10067000F081E02DC6011995892B79F7C501DF912D
:10068000CF911F910F91FF90EF90DF90CF90BF908F
:10069000AF900895FC01538D448D252F30E0842FB9
:1006A00090E0821B930B541710F0CF96089501979A
:1006B0000895FC01918D828D981761F0A28DAE0F87
:1006C000BF2FB11D5D968C91928D9F5F9F73928F0E
:1006D00090E008958FEF9FEF0895FC01918D828D3A
:1006E000981731F0828DE80FF11D858D90E0089507
:1006F0008FEF9FEF0895FC01918D228D892F90E05F
:10070000805C9F4F821B91098F73992708958DE319
:100710009EE00E947B0321E0892B09F420E0822FD8
:1007200008958AED9EE00E947B0321E0892B09F465
:1007300020E0822F0895FC01A48DA80FB92FB11DD0
:10074000A35ABF4F2C91848D90E001968F73992707
:10075000848FA689B7892C93A089B1898C918370E5
:1007600080648C93938D848D981306C00288F389DE
:10077000E02D80818F7D80830895EF92FF920F930B
:100780001F93CF93DF93EC0181E0888F9B8D8C8D3D
:1007900098131AC0E889F989808185FF15C09FB731
:1007A000F894EE89FF896083E889F98980818370F4
:1007B000806480839FBF81E090E0DF91CF911F91A3
:1007C0000F91FF90EF900895F62E0B8D10E00F5FC4
:1007D0001F4F0F731127E02E8C8D8E110CC00FB69A
:1007E00007FCFACFE889F989808185FFF5CFCE0132
:1007F0000E949B03F1CFEB8DEC0FFD2FF11DE35A0F
:10080000FF4FF0829FB7F8940B8FEA89FB898081B4
:100810008062CFCF6FEF8DE39EE00C94BD03CF934A
:10082000DF93EC01888D8823B9F0AA89BB89E88918
:10083000F9898C9185FD03C0808186FD0DC00FB6BE
:1008400007FCF7CF8C9185FFF2CF808185FFEDCF3C
:10085000CE010E949B03E9CFDF91CF91089580E004
:1008600090E0892B29F00E94910381110E940000E1
:1008700080E090E0892B29F00E94870381110E947B
:10088000000080E090E0892B49F080E090E0892B27
:1008900029F00E94000081110E94000080E090E099
:1008A000892B49F080E090E0892B29F00E9400001C
:1008B00081110C94000008958150823108F05AC0D3
:1008C000E82FF0E08827E859FB4F8F4F0C94C65073
:1008D00088048C047A0480048404BA048F04950488
:1008E00099049F04A304A704AD04B104BA04B50499
:1008F000BB04BF04809180008F77809380000895AF
:10090000809180008F7DF9CF80918000877FF5CF27
:1009100084B58F7784BD089584B58F7DFBCF80919A
:10092000B0008F778093B00008958091B0008F7DE4
:10093000F9CF809190008F778093900008958091F7
:1009400090008F7DF9CF80919000877FF5CF8091C7
:10095000A0008F778093A00008958091A0008F7DE4
:10096000F9CF8091A000877FF5CF809120018F770C
:10097000809320010895809120018F7DF9CF80918F
:100980002001877FF5CF1F93CF93DF93282F30E08F
:10099000F901E050FC4F8491F901EA55FB4FD491E5
:1009A000F901E05AFB4FC491CC23A9F0162F811115
:1009B0000E945C04EC2FF0E0EE0FFF1FE453FD4FAC
:1009C000A591B4918FB7F894EC91111108C0D0950E
:1009D000DE23DC938FBFDF91CF911F910895DE2B33
:1009E000F8CFBF92CF92DF92EF92FF920F931F93B7
:1009F000CF93DF93C12CC7E0D0E003E210E0EE24F8
:100A0000E394F12C60E08091B8110E94C304C80106
:100A10000197F1F72091B91130E0F901E050FC4F56
:100A20008491F901EA55FB4FD490F901E05AFB4F4C
:100A3000B490BB20A9F081110E945C04EB2DF0E082
:100A4000EE0FFF1FEA5BFB4FA591B491EC91DE2204
:100A500039F0C7010C2E01C0880F0A94EAF7C82AA2
:100A600061E08091B8110E94C304C8010197F1F7B9
:100A7000219708F0C7CF8C2DDF91CF911F910F9157
:100A8000FF90EF90DF90CF90BF900895CF93DF93CA
:100A900060E08091BA110E94C30483E290E0019764
:100AA000F1F70E94F104C82FD0E0DC2FCC270E9480
:100AB000F104C82B61E08091BA110E94C304C2FD09
:100AC00013C083E0D695C7958A95E1F7BE0190E003
:100AD00080E00E94044E20E030E040E85EE30E94A7
:100AE000654EDF91CF91089560E070E080EC9FE764
:100AF000F8CF81E08093EA0A1092E90A1092E80A9E
:100B000060E083E40C94C304CF93DF9390E0FC0196
:100B1000EA55FB4F2491805A9B4FFC018491882316
:100B2000D1F090E0880F991FFC01EA51FD4FA5918B
:100B3000B491FC01E453FD4FC591D49161110EC0F5
:100B40009FB7F8948C91E22FE0958E238C932881A7
:100B5000E223E8839FBFDF91CF9108958FB7F89488
:100B6000EC91E22BEC938FBFF6CF3FB7F8948091D6
:100B70003C0D90913D0DA0913E0DB0913F0D26B5DD
:100B8000A89B05C02F3F19F00196A11DB11D3FBFC5
:100B9000BA2FA92F982F8827BC01CD01620F711D94
:100BA000811D911D42E0660F771F881F991F4A958E
:100BB000D1F708958F929F92AF92BF92CF92DF921A
:100BC000EF92FF926B017C010E94B5054B015C0125
:100BD000C114D104E104F104B9F00E94B50568190B
:100BE00079098A099B09683E73408105910580F364
:100BF00021E0C21AD108E108F10888EE880E83E0EE
:100C0000981EA11CB11CE4CFFF90EF90DF90CF9015
:100C1000BF90AF909F908F9008952FB7F8946091F8
:100C2000380D7091390D80913A0D90913B0D2FBF89
:100C300008950895FC01908190539A3008F090E057
:100C4000818180532AE0929F800D11240895209184
:100C50000C0B260F3327331F21323105ECF4209182
:100C6000370EFC0190E080E0243069F082E00895C6
:100C7000A0910C0B2191AC014451554FA40FB52FFD
:100C8000B11D2C930196861798F380910C0B680F79
:100C900060930C0B80E0089581E008951092370E68
:100CA00081E08093160E1092110E61E084E10E94A3
:100CB000C30461E085E10E94C304E9EBF0E08081B8
:100CC0008E7F808380818D7F808388E48093B800CD
:100CD00085E48093BC000895CF93DF9391E09093D7
:100CE000EB0A8823B9F0C091B800D091BA00809186
:100CF000BC008A7B8093BC0060E084E10E94C30456
:100D000060E085E10E94C3040E944E06D093BA00C1
:100D1000C093B800DF91CF910895CF92DF92EF9208
:100D2000FF920F931F93CF93DF93D82FC62F61327B
:100D300008F098C00E94B5056B017C018091370EC8
:100D400081116BC081E08093370E8093160E9FEF68
:100D50009093150E1092140E9C0F9093130E809387
:100D6000120E8091120EDD0FD82BD093120E8091AF
:100D7000110E813009F078C01092110E0E94B50555
:100D80006B017C018091120E8093BB008091390E23
:100D900090913A0EA0913B0EB0913C0E892B8A2B7C
:100DA0008B2BA1F00E94B5050091390E10913A0EDF
:100DB00020913B0E30913C0E6C197D098E099F09E4
:100DC000061717072807390708F448C08091BC00A8
:100DD00083FDD8CF85EC8093BC000E94B5056B01E4
:100DE0007C018091370E813009F440C08091140E4F
:100DF0008C1710F4C091140EE1EFFDE0A7E1BEE006
:100E000080E08C1355C08C2FDF91CF911F910F91F3
:100E1000FF90EF90DF90CF9008958091390E9091E0
:100E20003A0EA0913B0EB0913C0E892B8A2B8B2B56
:100E300009F484CF0E94B5050091390E10913A0E45
:100E400020913B0E30913C0E6C197D098E099F0953
:100E5000061717072807390708F070CF8091380E5A
:100E60000E946C06C0E0CFCF85EEB5CF8091390EE1
:100E700090913A0EA0913B0EB0913C0E892B8A2B9B
:100E80008B2B09F4AECF0E94B5050091390E10915D
:100E90003A0E20913B0E30913C0E6C197D098E0963
:100EA0009F09061717072807390708F09ACFD6CFEA
:100EB00091919D938F5FA5CFCF92DF92EF92FF929A
:100EC0000F931F93CF93DF93D091F00D81E0D13238
:100ED00008F09CC0C091EF0D0E94B5056B017C012C
:100EE0008091370E81116CC082E08093370E81E0D3
:100EF0008093160E8FEF8093150E1092140ED093E0
:100F0000130EAFECBDE0E1EFFDE080E0D8138DC043
:100F10001092120E8091120ECC0FC82BC093120E9D
:100F20008091110E813009F084C01092110E0E9440
:100F3000B5056B017C018091120E8093BB008091FE
:100F4000390E90913A0EA0913B0EB0913C0E892B38
:100F50008A2B8B2BA1F00E94B5050091390E1091C0
:100F60003A0E20913B0E30913C0E6C197D098E0992
:100F70009F09061717072807390708F442C0809110
:100F8000BC0083FDD8CF85EC8093BC000E94B505E2
:100F90006B017C018091370E823009F44CC0809146
:100FA000150E8F3F09F469C08091150E803209F447
:100FB00066C08091150E803309F463C084E026C0BA
:100FC0008091390E90913A0EA0913B0EB0913C0E5B
:100FD000892B8A2B8B2B09F483CF0E94B5050091B6
:100FE000390E10913A0E20913B0E30913C0E6C1947
:100FF0007D098E099F09061717072807390708F08A
:101000006FCF8091380E0E946C0685E01092CE0D55
:101010001092F00D1092CD0DDF91CF911F910F9195
:10102000FF90EF90DF90CF9008959D9191938F5F07
:101030006DCF85EEA9CF8091390E90913A0EA09197
:101040003B0EB0913C0E892B8A2B8B2B09F4A2CF3F
:101050000E94B5050091390E10913A0E20913B0E79
:1010600030913C0E6C197D098E099F0906171707F0
:101070002807390708F08ECFC4CF80E0C7CF82E0C1
:10108000C5CF83E0C3CFE091CC0D8091CB0DE817A5
:1010900030F4F0E0E95EF14F808190E008958FEF49
:1010A0009FEF08959091CC0D8091CB0D2FEF3FEFE6
:1010B000981748F4E92FF0E0E95EF14F208130E025
:1010C0009F5F9093CC0DC9010895CF92DF92EF926C
:1010D000FF920F931F93CF93DF937C01CB018A0183
:1010E0002091CD0D222389F0EB016B01C40ED51E9A
:1010F000CC15DD0569F06991D701ED91FC91019066
:10110000F081E02DC7011995F3CF642F0E942706C7
:10111000C801DF91CF911F910F91FF90EF90DF9069
:10112000CF900895CF93DF931F92CDB7DEB7698339
:101130002091CD0D2223F9F02091F00D203258F0AE
:1011400021E030E0FC013383228390E080E00F90C7
:10115000DF91CF9108958091CE0DE82FF0E0E1531B
:10116000F24F998190838F5F8093CE0D8093F00D25
:1011700081E090E0ECCF61E0CE0101960E9427066D
:10118000F7CF682F82EC9FE00C949208DC012C9141
:101190001196ED91FC91F8948181822B818392814B
:1011A000322F30959323928387E090E00197F1F7F7
:1011B00081818323818383E290E00197F1F790811D
:1011C0007894EFECF0E03197F1F7922381E009F4A5
:1011D00080E00895FC0190810180F281E02D292FAB
:1011E000209560FF14C0F8948281822382838181DC
:1011F000892B8183A3E2B0E01197F1F78281982BCC
:101200009283789487ED90E00197F1F70895F89430
:101210008281822382838181892B8183AFEFB0E039
:101220001197F1F78281982B928378948FE090E068
:10123000EBCFDF92EF92FF920F931F93CF93DF9349
:10124000EC01D62EE42E08E010E0FF24F39461E0D8
:101250008D2D8F2109F460E0CE010E94EA08FF0C79
:1012600001501109A1F7E11010C0F894E981FA8149
:1012700091818881809589238183E981FA81928196
:1012800088818095892382837894DF91CF911F9103
:101290000F91FF90EF90DF900895EF92FF920F93E0
:1012A0001F93CF93DF938C017B0140E065E50E94A3
:1012B0001909E70188E0E80EF11C699140E0C801D6
:1012C0000E941909CE15DF05C1F7DF91CF911F915B
:1012D0000F91FF90EF900895FC0190810180F281C1
:1012E000E02DF8948181292F2095822381837894A1
:1012F0003DE743E050E0315029F1DA011197F1F771
:1013000080818923C1F3F894828182238283818141
:10131000892B81837894ABE7B7E01197F1F7F894C4
:10132000818182238183A3E1B1E01197F1F780816C
:10133000982381E009F080E07894E3E6F6E03197C5
:10134000F1F7089580E008956F927F928F929F92B7
:10135000AF92BF92CF92DF92EF92FF920F931F93C3
:10136000CF93DF938C01EB0180910D1090910E10C3
:101370000E946C09811102C080E050C0B8018091C8
:101380000D1090910E100E944D0940E06EEB80917F
:101390000D1090910E100E9419098E016E0189E0C6
:1013A000C80ED11C7E01A0900D10B0900E1088E0E8
:1013B000882E912C712C66246394C5010E94C60866
:1013C00081117628660CA1E08A1A9108B1F7F7011D
:1013D00071927F01EC15FD0531F780910D10909110
:1013E0000E100E946C09813039F6FE018191811145
:1013F00004C0EE16FF06D1F7BFCF89E090E0815020
:1014000049F0D801ED918D01E927F0E0E050FD4F62
:101410009491F5CF81E028852913AECFDF91CF914C
:101420001F910F91FF90EF90DF90CF90BF90AF9002
:101430009F908F907F906F9008950F931F93CF93FD
:10144000DF9300D000D000D0CDB7DEB78C01BE0155
:101450006F5F7F4F0E94A409811105C060E070E0BA
:101460008EEF92EC3EC06A8170E0762F6627770F90
:10147000770F770F298148E0249F90011124262BB4
:10148000372BF80180818031E1F468856623C9F04B
:1014900070E08F81AB01481B5109CA019695982FC6
:1014A0008827979587950E94B250CB018097B90104
:1014B00053E0660F771F5A95E1F760789C01260F7D
:1014C000371F213854EE35074CF2B901330F880B22
:1014D000990B0E94064E20E030E040E05CE30E9461
:1014E000654E29960FB6F894DEBF0FBECDBFDF91D3
:1014F000CF911F910F910895FC0120812EBD9B017A
:101500002150310941F051810DB407FEFDCF4EB598
:101510005EBD4193F5CF61507109860F971F0DB4E1
:1015200007FEFDCF2EB5FC0120830895E091C50D87
:10153000F091C60D80819091C40D892B8083089510
:10154000E091C50DF091C60D90818091C40D8095FC
:101550008923808308958EBD00000DB407FEFDCF62
:101560008EB508958FEF0C94AB0A0F931F93CF9312
:10157000DF93EC010E940D068B010E94B20A8F3F9F
:1015800069F00E940D06601B710B6C177D07A8F3B4
:1015900080E0DF91CF911F910F91089581E0F9CF05
:1015A000AF92BF92CF92DF92EF92FF920F931F9371
:1015B000CF93DF9300D000D01F921F92CDB7DEB73C
:1015C0008C017B016A018091C80D8333E1F45801DD
:1015D000A40EB51EA016B10609F46FC00E94A00AA1
:1015E00080EF0E94AB0A812F0E94AB0A802F0E94DD
:1015F000AB0A0F5F1F4FF70181917F010E94AB0A79
:101600000E94960AE7CF5B01A40EB51E8433C1F495
:101610000E94A00A19830A838D2D80688B83CC8257
:1016200064E070E0CE0101960E947C0AAE14BF0413
:1016300009F441C0F70181917F010E94AB0AF6CF06
:101640000E94A00A0F3F110509F028F419820A83AD
:1016500084E08B830CC017FD17C019820A8333E026
:10166000169507953A95E1F7007E0C600B8386E0AE
:10167000C816D104A0F5F701DE011496EA15FB05A2
:1016800099F081918D93FACFC80126E096958795C0
:101690002A95E1F7807E19830A830115104C10F416
:1016A0008461D7CF8C61D5CFB6016D5F7F4FCE01FE
:1016B00001960E947C0A0E94960AC60128960FB6DF
:1016C000F894DEBF0FBECDBFDF91CF911F910F9178
:1016D000FF90EF90DF90CF90BF90AF90089563E0C0
:1016E00070E0CE0101960E947C0AF70181917F0192
:1016F0000E94AB0AAE14BF04C1F7DDCFCF93DF93D6
:101700001F92CDB7DEB7898341E050E0BE016F5F25
:101710007F4F90E080E00E94D00A0F90DF91CF9140
:10172000089590E02091C80D233339F40C96982F3A
:10173000990F990F990F80E008954896F8CFDA0134
:10174000E091C90DF0E0FE2FEE27E60FF71F90E0C5
:10175000982F8827A901BD018E0F9F1F0C94D00AD6
:10176000CF93DF931F921F92CDB7DEB779836A8341
:1017700022E030E0AE014F5F5F4F60E170E00E9419
:101780009F0B0F900F90DF91CF910895CF93DF9330
:101790001F921F92CDB7DEB779836A8322E030E0D3
:1017A000AE014F5F5F4F64E070E00E949F0B0F90AF
:1017B0000F90DF91CF910895CF93DF931F92CDB714
:1017C000DEB72091C90D30E0322F2227260F371FB8
:1017D00090E0982F8827498341E050E0BE016F5F79
:1017E0007F4F820F931F0E94D00A0F90DF91CF91FD
:1017F0000895CF93DF931F92CDB7DEB76983DC01E5
:10180000ED91FC910280F381E02D41E050E0BE01BA
:101810006F5F7F4F19950F90DF91CF910895CF9310
:10182000DF931F92CDB7DEB76983DC01ED91FC91A8
:101830000280F381E02D41E050E0BE016F5F7F4FF9
:1018400019950F90DF91CF910895FC019485FB01CC
:101850008485981303C081E0983008F080E00895F3
:10186000CF93DF931F92CDB7DEB76983DC01ED9193
:10187000FC910280F381E02D41E050E0BE016F5FFA
:101880007F4F19950F90DF91CF910895089561E0F2
:10189000FC0184810E94C30480912F0B811110925E
:1018A0002F0B08958CBD9DBD0895CF93DF93EC0160
:1018B00080912F0B811109C081E080932F0B8091C3
:1018C000770F9091780F0E94520C60E08C81DF912D
:1018D000CF910C94C304CF92DF92EF92FF920F93BB
:1018E0001F93CF93DF93EC01162F69017A018E814C
:1018F000882389F08F8198859C012F5F3F4F38871F
:101900002F838230924018F40E94B20AF3CFCE01A6
:101910000E94470C1E82CE010E94550C8CE291E081
:101920000E94B50A812F80640E94AB0A08E110E092
:10193000D701C601002E04C0B695A7959795879547
:101940000A94D2F70E94AB0A08501109083F8FEFA2
:10195000180771F78FEF0E94AB0A10E00E94B20ADD
:101960008A8787FF04C01F3F11F01F5FF7CFDF9109
:10197000CF911F910F91FF90EF90DF90CF9008953E
:10198000CF92DF92EF92FF920F93CF93DF93EC0110
:10199000690182E1411551056105710599F08B8559
:1019A000833039F089E0440F551F661F771F8A95F1
:1019B000D1F79A01AB0168E1CE010E946B0C88233C
:1019C00019F084E08D832DC08EEF0E94AB0A760162
:1019D0008EEFD81AF70181917F010E94AB0AEC14B7
:1019E000FD04C1F78FEF0E94AB0A8FEF0E94AB0A94
:1019F0000E94B20A8A878F71853071F4011116C076
:101A0000CE010E94470C81E0DF91CF910F91FF90B2
:101A1000EF90DF90CF90089581E18D83CE010E94F9
:101A2000470CCE010E94470C80E0EECF88E592E0A3
:101A30000E94B50A811102C085E1C4CF20E030E0E8
:101A4000A9016DE0CE010E946B0C882311F084E1A6
:101A5000B9CF0E94B20A8111FACFD2CF0F93409131
:101A6000310B5091320B6091330B7091340B411557
:101A700051056105710589F0082F25E33BE090E0F1
:101A800080E00E94C00C882349F01092310B109224
:101A9000320B1092330B1092340B81E00F910895AA
:101AA0000F93CF93C82F8091300B811105C0C1E0F7
:101AB0008C2FCF910F91089540913C0250913D029F
:101AC00060913E0270913F020C2F25E33BE090E0D5
:101AD00080E00E94C00C811102C0C0E0E9CFCC239D
:101AE00031F381E00E942E0D8823B9F31092300B60
:101AF000DFCFAF92BF92CF92DF92EF92FF921F9310
:101B0000CF93DF936B017C01142F80913C02909165
:101B10003D02A0913E02B0913F028C159D05AE059D
:101B2000BF0509F4ADC081E00E94500D8823E1F1AA
:101B3000809106008823A1F080910000909101001F
:101B4000A0910200B0910300C816D906EA06FB0670
:101B500039F48091070090910800892B09F44FC057
:101B6000C0920000D0920100E0920200F0920300C7
:101B700080910B00A7019601833039F099E0220F84
:101B8000331F441F551F9A95D1F761E190E080E023
:101B90000E946B0C882391F083E08093050090E015
:101BA00080E00E94470C80E0DF91CF911F91FF9071
:101BB000EF90DF90CF90BF90AF9008950E940D06F8
:101BC000EB010E94B20A80930A008F3F79F40E94D1
:101BD0000D066C1B7D0B6D32714098F38FE0809386
:101BE000050090E080E00E94470CD9CF8E3FC1F500
:101BF000109208001092070081E080930600C5E370
:101C0000DBE085E3A82E8DE0B82E0E94B20A89930E
:101C1000AC16BD06D1F780910700909108009E5F39
:101C2000909308008093070020910900222319F067
:101C300081159240E8F0809106008823C9F08091D8
:101C40000700909108009C012F5F3F4F30930800E0
:101C5000209307008230924028F40E94B20AEFCF0E
:101C60008DE0BDCF90E080E00E94470C109206000E
:101C7000C0923C02D0923D02E0923E02F0923F02BE
:101C80004091300B412B4093300B81E08DCF4F9230
:101C90005F926F927F928F929F92AF92BF92CF92FC
:101CA000DF92EF92FF920F931F93CF93DF93EC019C
:101CB000423051056105710590F480E0DF91CF91CC
:101CC0001F910F91FF90EF90DF90CF90BF90AF905A
:101CD0009F908F907F906F905F904F90089589852F
:101CE0009A85AB85BC850196A11DB11D841795070A
:101CF000A607B70710F3CB88DC88ED88FE888F89AC
:101D0000803109F042C0BB27A72F962F852F4801AD
:101D100059012A013B01C80ED91EEA1EFB1E809103
:101D20003C0290913D02A0913E02B0913F02C81644
:101D3000D906EA06FB0699F58F898031C1F5B30112
:101D4000A201552766277727440F551F4B5C544F38
:101D5000FA01918280828091300B81608093300BF8
:101D60008A89823080F08D819E81AF81B8858C0D0B
:101D70009D1DAE1DBF1D8093310B9093320BA09320
:101D8000330BB093340B81E099CFDB01CA01E7E05C
:101D9000B695A79597958795EA95D1F7B8CF40E086
:101DA000C701B6010E94790D8111C6CF86CFB3015C
:101DB000A2014F77552766277727440F551F440FF9
:101DC000551F4B5C544FFA0180829182A282B382EC
:101DD000C2CF8F929F92AF92BF92CF92DF92EF923B
:101DE000FF920F931F93CF93DF93FC018185928520
:101DF000A385B4850196A11DB11D84179507A6077B
:101E0000B70770F480E0DF91CF911F910F91FF90A1
:101E1000EF90DF90CF90BF90AF909F908F900895FC
:101E200083889488A588B6888789803189F5BB27FF
:101E3000A72F962F852FE9016A017B018F01BC0135
:101E4000CD01680D791D8A1D9B1D80903C029090EC
:101E50003D02A0903E02B0903F0286169706A8066B
:101E6000B90601F5F8018789803111F5DD24EE24EA
:101E7000FF24F601EE0FFF1FEB5CF44F8081918190
:101E8000B0E0A0E088839983AA83BB8381E0BBCFC5
:101E9000DB01CA01C7E0B695A79597958795CA95C6
:101EA000D1F7C9CF40E00E94790D8111DBCFAACFD5
:101EB000E894C7F8DD24EE24FF24F601EE0FFF1F9F
:101EC000EE0FFF1FEB5CF44F80819181A281B38103
:101ED000BF70D8CF8F929F92AF92BF92CF92DF9276
:101EE000EF92FF920F931F93CF93DF93EC018D81BD
:101EF00081110EC080E0DF91CF911F910F91FF9073
:101F0000EF90DF90CF90BF90AF909F908F9008950B
:101F10000B891C892D893E89041715072607370769
:101F200048F34A015B01823031F48A869B86AC8695
:101F3000BD8681E0E0CF81149104A104B10449F48D
:101F40001E821F82188619861A861B861C861D868D
:101F5000F0CF0A851B852C853D85EB8DFC8D858515
:101F600090E00996B901A801415051096109710930
:101F7000082E04C076956795579547950A94D2F731
:101F800075016401E1E0CE1AD108E108F10804C04E
:101F9000F694E794D794C7948A95D2F7C416D506D9
:101FA000E606F70620F0012B022B032B11F58F8993
:101FB000988DA98DBA8D8E839F83A887B9878E014E
:101FC0000A5F1F4FC114D104E104F10409F4ADCF3D
:101FD0004E815F816885798598018B8D9C8D0E94EB
:101FE000E90E91E0C91AD108E108F1088111EACFA0
:101FF00081CFC41AD50AE60AF70AE1CF3F924F9281
:102000005F926F927F928F929F92AF92BF92CF9288
:10201000DF92EF92FF920F931F93CF93DF93CDB791
:10202000DEB72C970FB6F894DEBF0FBECDBF5C01B4
:10203000DC015B968D909C905C9716964D905D9020
:102040006D907C901997411451046104710409F456
:1020500068C0BFEF4B1A5B0A6B0A7B0A312CF40194
:1020600081859285A385B4859C01AD012F5F3F4F8B
:102070004F4F5F4F29873A874B875C877301620117
:102080001D821E821F821886F40181859285A38598
:10209000B4852D813E814F815885281739074A071D
:1020A0005B0708F056C089859A85AB85BC858C1581
:1020B0009D05AE05BF0550F482E0C82ED12CE12C61
:1020C000F12C92E0492E512C612C712C9E012F5F36
:1020D0003F4FB701A601C4010E94E90E8823C9F150
:1020E00089819A81AB81BC81892B8A2B8B2B09F149
:1020F000260137019FEF491A590A690A790A2D8189
:102100003E814F8158852F5F3F4F4F4F5F4F2D834B
:102110003E834F8358873FEFC31AD30AE30AF30A7B
:10212000B3CFF401408051806280738033243394B4
:1021300096CFC414D504E604F70409F70FEF1FEF98
:102140002FEF3FE0B701A601C4010E94470E8111A5
:1021500019C080E02C960FB6F894DEBF0FBECDBF3D
:10216000DF91CF911F910F91FF90EF90DF90CF9073
:10217000BF90AF909F908F907F906F905F904F90A7
:102180003F900895D50116964D915D916D917C918A
:102190001997411551056105710539F097018601BF
:1021A000C4010E94470E8823A1F2D5011696CD9254
:1021B000DD92ED92FC921997332051F0D701C601C0
:1021C0000196A11DB11DF40180839183A283B38385
:1021D000F5018789908DA18DB28D892B8A2B8B2B50
:1021E00039F48481C78AD08EE18EF28E8068848330
:1021F000F50184818062848381E0ACCF1F93CF930B
:10220000DF93EC01162F8C8187FF2AC06E857F85B6
:102210008889998941E00E94790D882361F1EA89D2
:1022200080E2E89FF0011124EB5CF44F309719F144
:102230008D81823040F48B899C89AD89BE89848FE1
:10224000958FA68FB78F8F89988D938F828F8F8967
:10225000988DA98DBA8DB58BA48B8C818F778C834B
:10226000111103C08C818F7E8C83812FDF91CF91E0
:102270001F910C94500D80E0DF91CF911F91089534
:102280001F93CF93DF93EC018D81813031F090E08B
:1022900080E0DF91CF911F9108958C8181FFF7CF6E
:1022A00082FD1BC090E080E00E94550C0E94B20AA3
:1022B000182F90E080E00E94470C1F3F41F78C816F
:1022C00085FF1EC08D81882321F060E0CE010E9431
:1022D000FE108C818F7D8C83DACF4B895C896D8970
:1022E0007E898A859B85AC85BD8584179507A60761
:1022F000B707C1F2CE010E946A0F8111D3CFC7CFB9
:102300004091310B5091320B6091330B7091340B33
:10231000452B462B472B21F080E00E942E0DB7CF96
:1023200080618C832A853B85317080E092E0821B3E
:10233000930BAFCF9F92AF92BF92CF92DF92EF926B
:10234000FF920F931F93CF93DF9300D01F921F92A2
:10235000CDB7DEB78C016D83DC0115968C91159796
:10236000813009F0B9C014968C9181FFB5C082FD0F
:102370009FC0D8015B96ED91FC915C971A96AD9049
:10238000BD90CD90DC901D9794809A94B601A501E4
:1023900089E076956795579547958A95D1F7942268
:1023A000B1E0BB22992009F49FC0D8015B96ED9162
:1023B000FC915C971696CD90DD90ED90FC9019976E
:1023C000B2E0CB1AD108E108F108858504C0CC0C35
:1023D000DD1CEE1CFF1C8A95D2F746855785608967
:1023E0007189C40ED51EE61EF71EC90CD11CE11C56
:1023F000F11CA114B10409F00AC1F801428553850A
:102400006485758583899489A589B6894817590794
:102410006A077B0708F4FBC081E00E94500D882307
:1024200009F45AC0C0923C02D0923D02E0923E02B2
:10243000F0923F028091300B81608093300BF50168
:10244000EB5CF44F8D818083F80182859385A485B0
:10245000B5850196A11DB11D82879387A487B58795
:102460004389548965897689481759076A077B0724
:1024700038F42481838B948BA58BB68B20682483BE
:10248000D80114968C9183FD9FC081E090E00F905D
:102490000F900F900F900F90DF91CF911F910F91A0
:1024A000FF90EF90DF90CF90BF90AF909F900895F6
:1024B000F801438954896589768982859385A48545
:1024C000B585481759076A077B0709F452CFC80139
:1024D0000E946A0F81114DCF81E090E0D8011396E0
:1024E0009C938E93129749C0D80116964D915D9199
:1024F0006D917C911997A114B10409F071C0411537
:1025000051056105710589F557968D919D910D9045
:10251000BC91A02D0097A105B10509F04FC0C801DD
:102520000E94FE0F8823C1F2D8015B96ED91FC91C9
:102530005C971696CD90DD90ED90FC901997B2E0E7
:10254000CB1AD108E108F108858504C0CC0CDD1C4C
:10255000EE1CFF1C8A95D2F74685578560897189E4
:10256000C40ED51EE61EF71E48CF9E012F5F3F4FBB
:10257000CF010E94E90E811103C090E080E087CF77
:1025800089819A81AB81BC81F801238D348DF90159
:10259000278948EF5FEF60E070E0203121F048EFDD
:1025A0005FEF6FEF7FE084179507A607B70730F05E
:1025B000C8010E94FE0F8111F8CE8ECFF8018683EC
:1025C0009783A087B187F1CEF8018581882309F42C
:1025D00083CF61E0C8010E94FE10811156CF7CCFED
:1025E0006A017B01B2E0CB1AD108E108F1088585C8
:1025F00004C0CC0CDD1CEE1CFF1C8A95D2F746856E
:10260000578560897189C40ED51EE61EF71E41E00C
:10261000C701B6010E94790D811111CF5DCFFF92E4
:102620000F931F93CF93DF93EB01FC01178A168A58
:102630002A81211109C02B81211106C02C81211171
:1026400003C02D81222301F141155105E9F08A01D2
:10265000FC01F08C80E591E00E94520CAE014E5FCF
:102660005F4F24E030E06CE070E08F2D0E949F0B04
:10267000B8018F2D0E94B00B81E090E0DF91CF91E7
:102680001F910F91FF90089580E0F7CFFC018485A2
:1026900095850895FC0184899589089524E633E0A1
:1026A000FC0131832083FB01408951896289738950
:1026B000FC0142835383648375830895DC01ED91AB
:1026C000FC91048CF58DE02D19948091EA0A882301
:1026D000F9F02091E80A3091E90A80916C0D90910F
:1026E0006D0D281739075CF061E083E40E94C30494
:1026F0001092E90A1092E80A1092EA0A089580916D
:10270000E80A9091E90A01969093E90A8093E80A11
:1027100008950E940A040E940A040C940A04FC0111
:10272000768765870895DC01ED91FC91068CF78D25
:10273000E02D199591E089270895862F089581E06D
:102740008627089521E0FC018485883008F020E088
:10275000822F0895089590E080E00895CF93DF934D
:10276000EC0181E08093CD0D87E58093EF0D109211
:10277000CE0D1092F00D90E080E00E94C108CE01D5
:102780000E94C1080E945C0761E087E50E948D06F7
:102790001092CC0D8093CB0D882339F082EC9FE012
:1027A0000E945208DF91CF9108958FEFFBCF81E017
:1027B0008093CD0D88E68093EF0D1092CE0D109290
:1027C000F00D6FE082EC9FE00E9492080E945C078F
:1027D00061E088E60E948D061092CC0D8093CB0DAF
:1027E00082EC9FE00E94520808950F931F93CF93AD
:1027F000DF93EC0188819981009759F02A813B8110
:102800002617370730F081E0DF91CF911F910F91AC
:1028100008958B016F5F7F4F0E940252009759F01D
:10282000998388831B830A832C813D81232B59F74D
:10283000FC011082E8CF80E0E7CFFC01808191812C
:10284000009711F00C9479510895FB01019000203C
:10285000E9F73197AF01461B570BDC01ED91FC9175
:102860000280F381E02D19948F929F92AF92BF92D4
:10287000EF92FF920F931F93CF93DF93CDB7DEB705
:10288000A1970FB6F894DEBF0FBECDBF7C01FA0151
:10289000CB0119A2223008F42AE08E010F5D1F4FF0
:1028A000822E912CB12CA12CBF01A50194010E9474
:1028B000424FF901CA016A300CF5605DD8016E9390
:1028C0008D01232B242B252B79F790E080E01097A6
:1028D00021F0BD01C7010E942514A1960FB6F894FE
:1028E000DEBF0FBECDBFDF91CF911F910F91FF9043
:1028F000EF90BF90AF909F908F900895695CDECF6E
:10290000CF92DF92EF92FF920F931F93CF93DF93BB
:102910006B01770FEE08FF08F7FE1BC0EC016DE2BC
:102920000E9416038C0144275527BA014C195D09F2
:102930006E097F092AE0CE010E943414800F911F96
:10294000DF91CF911F910F91FF90EF90DF90CF908B
:1029500008952AE0B701A601DF91CF911F910F9151
:10296000FF90EF90DF90CF900C9434148F929F9251
:10297000AF92BF92CF92DF92EF92FF920F931F938D
:10298000CF93DF937C018B016C0182E0C80ED11CD8
:102990004701E5E08E0E911CD0E0C0E0F6014191C8
:1029A0006F0150E070E060E02AE0C8010E9434143A
:1029B0005C016EE2C8010E9416038A0D9B1DC80FC0
:1029C000D91FC814D90451F7F701458150E070E0D0
:1029D00060E02AE0C8010E9434148C0F9D1FDF9133
:1029E000CF911F910F91FF90EF90DF90CF90BF900C
:1029F000AF909F908F9008952F923F924F925F9249
:102A00006F927F928F929F92AF92BF92CF92DF92FE
:102A1000EF92FF921F93CF93DF93EC016A017B014A
:102A2000722EAB019601CB01B6010E948D5066E774
:102A300073E0811126C046015701E894B7F82FEFE3
:102A40003FEF4FE75FE7C501B4010E948D50811150
:102A50000CC02FEF3FEF4FE75FE7C501B4010E94C5
:102A6000FF4D6AE773E0181664F02FEF3FEF4FE772
:102A70005FE4C701B6010E9488501816B4F46EE7EF
:102A800073E0CE01DF91CF911F91FF90EF90DF9027
:102A9000CF90BF90AF909F908F907F906F905F90FE
:102AA0004F903F902F900C9425142FEF3FEF4FE75E
:102AB0005FECC701B6010E94FF4D87FDE0CF20E02B
:102AC00030E0A901C701B6010E94FF4D312C212C35
:102AD00087FF09C06DE2CE010E9416031C01F7FAC0
:102AE000F094F7F8F09410E060E070E080E09FE38D
:102AF000711641F020E030E040E251E40E94E04FE6
:102B00001F5FF6CFA70196010E94744F2B013C0175
:102B10000E9459504B015C012AE0BC01A401CE0186
:102B20000E9434147C01E20CF31C1123C1F1C50195
:102B3000B4010E94044E9B01AC01C301B2010E948A
:102B4000734F4B015C016EE2CE010E941603E80E4A
:102B5000F91E115020F120E030E040E251E4C501BF
:102B6000B4010E94654E2B013C010E9459504B015B
:102B7000B12CA12C2AE0B501A401CE010E9434148D
:102B8000E80EF91EC501B4010E94044E9B01AC0180
:102B9000C301B2010E94734F4B015C01DACFC70140
:102BA000DF91CF911F91FF90EF90DF90CF90BF907A
:102BB000AF909F908F907F906F905F904F903F90DD
:102BC0002F90089562E873E00C942514CF93DF935F
:102BD000BC018AED9EE00E948014EC018AED9EE02B
:102BE0000E94E2158C0F9D1FDF91CF910895CF9326
:102BF000DF93AB01BC0122E08AED9EE00E94FC1451
:102C0000EC018AED9EE00E94E2158C0F9D1FDF9182
:102C1000CF9108950F931F93CF93DF93EC010E9400
:102C200025148C01CE010E94E215800F911FDF91C7
:102C3000CF911F910F9108958F929F92AF92BF9263
:102C4000EF92FF920F931F93CF93DF9300D01F92C9
:102C5000CDB7DEB719821A821B821C8284E690E00F
:102C6000A0E0B0E08093410E9093420EA093430EFB
:102C7000B093440E8E010F5F1F4F7E0185E0E80E7A
:102C8000F11C0E940D066093450E7093460E8093D2
:102C9000470E9093480E8DE39EE00E94590397FFE4
:102CA00045C00E940D068090450E9090460EA09063
:102CB000470EB090480E681979098A099B098090DF
:102CC000410E9090420EA090430EB090440E6815B5
:102CD00079058A059B05F8F289818130F9F48A81AA
:102CE0008F3FE1F48B818F3FC9F48C818F3FB1F42A
:102CF00065E873E08AED9EE00E940A1681E00F907D
:102D00000F900F900F90DF91CF911F910F91FF9037
:102D1000EF90BF90AF909F908F9008956FE973E010
:102D20008AED9EE00E940A1680E0E9CFF8018193C7
:102D30008F01EE16FF0609F0A4CFCECF6115710505
:102D400011F00C94251490E080E008950F931F93E8
:102D5000CF938C01C62F81E08093CD0D87E58093C2
:102D6000EF0D1092CE0D1092F00D90E080E00E94D9
:102D7000C108C8010E94C1088C2F90E00E94C108C0
:102D80000E945C076AEB73E08AED9EE0CF911F9191
:102D90000F910C949E166091580281E090E00E9481
:102DA000A61660E570E080E090E00E94DA05609190
:102DB000560282E090E00E94A61660E570E080E096
:102DC00090E00E94DA056091540283E090E00E9456
:102DD000A61660E570E080E090E00E94DA05609160
:102DE000520284E090E00E94A61660E570E080E068
:102DF00090E00E94DA056091500289E190E00E9423
:102E0000A61660E570E080E090E00C94DA05609131
:102E1000640285E090E00E94A61660E570E080E024
:102E200090E00E94DA0560917E0286E090E00E94C8
:102E3000A61660E570E080E090E00E94DA056091FF
:102E40007C0288E090E00E94A61660E570E080E0D9
:102E500090E00E94DA056091620289E090E00E94B1
:102E6000A61660E570E080E090E00E94DA056091CF
:102E700078028AE090E00E94A61660E570E080E0AB
:102E800090E00E94DA05609180028BE090E00E9461
:102E9000A61660E570E080E090E00E94DA0560919F
:102EA00076028CE090E00E94A61660E570E080E07B
:102EB00090E00E94DA05609160028DE090E00E944F
:102EC000A61660E570E080E090E00E94DA0560916F
:102ED00072028EE090E00E94A61660E570E080E04D
:102EE00090E00E94DA0560917A028FE090E00E9403
:102EF000A61660E570E080E090E00E94DA0560913F
:102F0000700280E190E00E94A61660E570E080E02B
:102F100090E00E94DA0560915E0281E190E00E94FB
:102F2000A61660E570E080E090E00E94DA0560910E
:102F30006C0282E190E00E94A61660E570E080E0FD
:102F400090E00E94DA056091740283E190E00E94B3
:102F5000A61660E570E080E090E00E94DA056091DE
:102F60006A0284E190E00E94A61660E570E080E0CD
:102F700090E00E94DA0560915C0285E190E00E9499
:102F8000A61660E570E080E090E00E94DA056091AE
:102F9000680286E190E00E94A61660E570E080E09D
:102FA00090E00E94DA0560916E0281E290E00E945A
:102FB000A61660E570E080E090E00E94DA0560917E
:102FC000660288E190E00E94A61660E570E080E06D
:102FD00090E00E94DA0564E28AE190E00E94A61681
:102FE00060E570E080E090E00E94DA0567EC73E055
:102FF0008AED9EE00C940A168091E60A9091E70A09
:103000000196853091050CF08CC09093E70A80936F
:10301000E60A8091E60A9091E70A0197E1F464EDEF
:1030200073E08DE39EE00E949E166DE279E08DE3F1
:103030009EE00E949E160E9489136DED73E08DE361
:103040009EE00E949E1665EC75E08DE39EE00E9476
:103050009E160E9489138091E60A9091E70A0297D2
:10306000E1F46DED73E08DE39EE00E949E166DE24B
:1030700079E08DE39EE00E949E160E94891366EE21
:1030800073E08DE39EE00E949E1665EC75E08DE393
:103090009EE00E949E160E9489138091E60A9091FC
:1030A000E70A0397E1F466EE73E08DE39EE00E9489
:1030B0009E166DE279E08DE39EE00E949E160E94CE
:1030C00089136FEE73E08DE39EE00E949E1665EC1F
:1030D00075E08DE39EE00E949E160E948913809108
:1030E000E60A9091E70A0497F9F46FEE73E08DE336
:1030F0009EE00E949E166DE279E08DE39EE00E94C4
:103100009E160E94891364ED73E08DE39EE00E9499
:103110009E1665EC75E08DE39EE00E949E160C9471
:10312000891381E090E071CF08958091E00A909139
:10313000E10A0197E9F48091640290916502019699
:10314000853191050CF0A6C29093650280936402CC
:1031500068EF73E08DE39EE00E949E16609164022A
:10316000709165028DE39EE00E9480140E94891395
:103170008091E00A9091E10A0297E9F480917E0241
:1031800090917F020196893291050CF086C290934E
:103190007F0280937E0262E074E08DE39EE00E94F5
:1031A0009E1660917E0270917F028DE39EE00E94E8
:1031B00080140E9489138091E00A9091E10A03979C
:1031C000E9F480917C0290917D020196853691050B
:1031D0000CF066C290937D0280937C026CE074E0F8
:1031E0008DE39EE00E949E1660917C0270917D02AC
:1031F0008DE39EE00E9480140E9489138091E00A72
:103200009091E10A049721F58091800290918102CA
:103210000196909381028093800220915802309110
:1032200059022817390724F4309381022093800231
:1032300066E174E08DE39EE00E949E16609180023C
:10324000709181028DE39EE00E9480140E94891398
:103250008091E00A9091E10A0597E9F48091620279
:10326000909163020196853191050CF01CC29093F8
:1032700063028093620260E274E08DE39EE00E944C
:103280009E1660916202709163028DE39EE00E943F
:1032900080140E9489138091E00A9091E10A0697B8
:1032A000E9F4809178029091790201968932910532
:1032B0000CF0FCC190937902809378026AE274E08A
:1032C0008DE39EE00E949E166091780270917902D3
:1032D0008DE39EE00E9480140E9489138091E00A91
:1032E0009091E10A0797E9F4809176029091770234
:1032F0000196853691050CF0DCC19093770280939E
:10330000760264E374E08DE39EE00E949E16609175
:103310007602709177028DE39EE00E9480140E94F5
:1033200089138091E00A9091E10A089721F5809134
:103330007A0290917B02019690937B0280937A02AD
:1033400020918002309181022817390724F43093AC
:103350007B0220937A026EE374E08DE39EE00E948C
:103360009E1660917A0270917B028DE39EE00E942E
:1033700080140E9489138091E00A9091E10A0997D4
:10338000E9F4809160029091610201968531910586
:103390000CF092C1909361028093600268E474E043
:1033A0008DE39EE00E949E16609160027091610222
:1033B0008DE39EE00E9480140E9489138091E00AB0
:1033C0009091E10A0A97E9F4809172029091730258
:1033D0000196893291050CF072C19093730280932B
:1033E000720262E574E08DE39EE00E949E16609199
:1033F0007202709173028DE39EE00E9480140E941D
:1034000089138091E00A9091E10A0B97E9F4809189
:103410007002909171020196853691050CF052C1AF
:1034200090937102809370026CE574E08DE39EE0EE
:103430000E949E1660917602709177028DE39EE065
:103440000E9480140E9489138091E00A9091E10A01
:103450000C9721F5809174029091750201969093DA
:1034600075028093740220917A0230917B022817B2
:10347000390724F4309375022093740266E674E0F1
:103480008DE39EE00E949E16609174027091750219
:103490008DE39EE00E9480140E9489138091E00ACF
:1034A0009091E10A0D97E9F480915E0290915F029C
:1034B0000196853191050CF008C190935F028093CD
:1034C0005E0260E774E08DE39EE00E949E166091CC
:1034D0005E0270915F028DE39EE00E9480140E9464
:1034E00089138091E00A9091E10A0E97E9F48091A6
:1034F0006C0290916D020196893291050CF0E8C042
:1035000090936D0280936C026AE774E08DE39EE015
:103510000E949E1660916C0270916D028DE39EE098
:103520000E9480140E9489138091E00A9091E10A20
:103530000F97E9F480916A0290916B0201968536AB
:1035400091050CF0C8C090936B0280936A0264E806
:1035500074E08DE39EE00E949E1660916A02709175
:103560006B028DE39EE00E9480140E94891380917B
:10357000E00A9091E10A409721F580916E029091C6
:103580006F02019690936F0280936E0220917402F5
:10359000309175022817390724F430936F02209375
:1035A0006E026EE874E08DE39EE00E949E166091CC
:1035B0006E0270916F028DE39EE00E9480140E9463
:1035C00089138091E00A9091E10A4197E9F4809192
:1035D0005C0290915D020196853191050CF07EC0F0
:1035E00090935D0280935C0268E974E08DE39EE055
:1035F0000E949E1660915C0270915D028DE39EE0D8
:103600000E9480140E9489138091E00A9091E10A3F
:103610004297E9F48091680290916902019689329B
:1036200091050CF05EC0909369028093680262EA93
:1036300074E08DE39EE00E949E1660916802709196
:1036400069028DE39EE00E9480140E94891380919C
:10365000E00A9091E10A439709F049C0809166021F
:1036600090916702019685369105F4F59093670273
:10367000809366026CEA74E08DE39EE00E949E16E1
:1036800060916602709167028DE39EE00E94801453
:103690000C94891384E190E057CD88E290E077CDD7
:1036A00084E690E097CD84E190E0E1CD88E290E07F
:1036B00001CE84E690E021CE84E190E06BCE88E2FA
:1036C00090E08BCE84E690E0ABCE84E190E0F5CE46
:1036D00088E290E015CF84E690E035CF84E190E079
:1036E0007FCF88E290E09FCF84E690E0BFCF08953F
:1036F0002091E00A3091E10A21303105E9F480910E
:103700006402909165020197181619060CF08BC29D
:10371000909365028093640268EF73E08DE39EE00E
:103720000E949E1660916402709165028DE39EE096
:103730000E9480140E9489138091E00A9091E10A0E
:103740000297E9F480917E0290917F02019718160A
:1037500019060CF06DC290937F0280937E0262E0A6
:1037600074E08DE39EE00E949E1660917E0270914F
:103770007F028DE39EE00E9480140E948913809155
:10378000E00A9091E10A0397E9F480917C0290911C
:103790007D0201978A3091050CF44DC290937D0211
:1037A00080937C026CE074E08DE39EE00E949E16A4
:1037B00060917C0270917D028DE39EE00E948014F6
:1037C0000E9489138091E00A9091E10A0497E9F43C
:1037D00080918002909181020197883291050CF4CA
:1037E0002DC2909381028093800266E174E08DE3A4
:1037F0009EE00E949E1660918002709181028DE38E
:103800009EE00E9480140E9489138091E00A9091AA
:10381000E10A0597E9F480916202909163020197B1
:10382000181619060CF00DC2909363028093620281
:1038300060E274E08DE39EE00E949E166091620259
:10384000709163028DE39EE00E9480140E948913B0
:103850008091E00A9091E10A0697E9F4809178025C
:10386000909179020197181619060CF0EDC190930A
:103870007902809378026AE274E08DE39EE00E9410
:103880009E1660917802709179028DE39EE00E940D
:1038900080140E9489138091E00A9091E10A0797B1
:1038A000E9F4809176029091770201978A30910530
:1038B0000CF4CDC1909377028093760264E374E0B8
:1038C0008DE39EE00E949E166091760270917702D1
:1038D0008DE39EE00E9480140E9489138091E00A8B
:1038E0009091E10A0897E9F480917A0290917B0225
:1038F0000197883291050CF4ADC190937B028093BF
:103900007A026EE374E08DE39EE00E949E16609161
:103910007A0270917B028DE39EE00E9480140E94E7
:1039200089138091E00A9091E10A0997E9F4809166
:103930006002909161020197181619060CF08DC172
:10394000909361028093600268E474E08DE39EE0EE
:103950000E949E1660916002709161028DE39EE06C
:103960000E9480140E9489138091E00A9091E10ADC
:103970000A97E9F4809172029091730201971816E8
:1039800019060CF06DC1909373028093720262E588
:1039900074E08DE39EE00E949E1660917202709129
:1039A00073028DE39EE00E9480140E94891380912F
:1039B000E00A9091E10A0B97E9F4809170029091EE
:1039C000710201978A3091050CF44DC190937102F8
:1039D000809370026CE574E08DE39EE00E949E1679
:1039E00060917602709177028DE39EE00E948014D0
:1039F0000E9489138091E00A9091E10A0C97E9F402
:103A000080917402909175020197883291050CF4AF
:103A10002DC1909375028093740266E674E08DE385
:103A20009EE00E949E1660917402709175028DE373
:103A30009EE00E9480140E9489138091E00A909178
:103A4000E10A0D97E9F480915E0290915F0201977F
:103A5000181619060CF00DC190935F0280935E0258
:103A600060E774E08DE39EE00E949E1660915E0226
:103A700070915F028DE39EE00E9480140E94891382
:103A80008091E00A9091E10A0E97E9F480916C022E
:103A900090916D020197181619060CF0EDC09093E5
:103AA0006D0280936C026AE774E08DE39EE00E94F1
:103AB0009E1660916C0270916D028DE39EE00E94F3
:103AC00080140E9489138091E00A9091E10A0F9777
:103AD000E9F480916A0290916B0201978A30910516
:103AE0000CF4CDC090936B0280936A0264E874E09A
:103AF0008DE39EE00E949E1660916A0270916B02B7
:103B00008DE39EE00E9480140E9489138091E00A58
:103B10009091E10A4097E9F480916E0290916F02D2
:103B20000197883291050CF4ADC090936F02809399
:103B30006E026EE874E08DE39EE00E949E16609136
:103B40006E0270916F028DE39EE00E9480140E94CD
:103B500089138091E00A9091E10A4197E9F48091FC
:103B60005C0290915D020197181619060CF08DC049
:103B700090935D0280935C0268E974E08DE39EE0BF
:103B80000E949E1660915C0270915D028DE39EE042
:103B90000E9480140E9489138091E00A9091E10AAA
:103BA0004297E9F480916802909169020197181692
:103BB00019060CF06DC0909369028093680262EA66
:103BC00074E08DE39EE00E949E1660916802709101
:103BD00069028DE39EE00E9480140E948913809107
:103BE000E00A9091E10A439709F058C0809166027B
:103BF0009091670201978A3091050CF44CC0909324
:103C00006702809366026CEA74E08DE39EE00E9496
:103C10009E1660916602709167028DE39EE00E949D
:103C200080140C948913309365022093640274CD40
:103C300081E090E090CD8AE090E0B0CD88E290E025
:103C4000D0CD81E090E0F0CD81E090E010CE8AE030
:103C500090E030CE88E290E050CE81E090E070CEEF
:103C600081E090E090CE8AE090E0B0CE88E290E0F3
:103C7000D0CE81E090E0F0CE81E090E010CF8AE0FD
:103C800090E030CF88E290E050CF81E090E070CFBC
:103C900081E090E090CF8AE090E0B1CF08958091EC
:103CA000E00A9091E10A0196853191050CF096C2E7
:103CB0009093E10A8093E00A66EB74E08AED9EE05F
:103CC0000E949E168091E00A9091E10A0E94E615FA
:103CD0008091E00A9091E10A0297E1F465EC74E0CA
:103CE0008DE39EE00E949E166DE279E08DE39EE0FA
:103CF0000E949E160E9489136FEC74E08DE39EE093
:103D00000E949E1665EC75E08DE39EE00E949E1673
:103D10000E9489138091E00A9091E10A0397E1F4EF
:103D20006FEC74E08DE39EE00E949E166DE279E0F8
:103D30008DE39EE00E949E160E94891369ED74E057
:103D40008DE39EE00E949E1665EC75E08DE39EE09B
:103D50000E949E160E9489138091E00A9091E10AC8
:103D60000497E1F469ED74E08DE39EE00E949E16F5
:103D70006DE279E08DE39EE00E949E160E94891319
:103D800063EE74E08DE39EE00E949E1665EC75E0A4
:103D90008DE39EE00E949E160E9489138091E00AA6
:103DA0009091E10A0597E1F463EE74E08DE39EE003
:103DB0000E949E166DE279E08DE39EE00E949E16C1
:103DC0000E9489136DEE74E08DE39EE00E949E16C2
:103DD00065EC75E08DE39EE00E949E160E948913BB
:103DE0008091E00A9091E10A0697E1F46DEE74E0AB
:103DF0008DE39EE00E949E166DE279E08DE39EE0E9
:103E00000E949E160E94891367EF74E08DE39EE086
:103E10000E949E1665EC75E08DE39EE00E949E1662
:103E20000E9489138091E00A9091E10A0797E1F4DA
:103E300067EF74E08DE39EE00E949E166DE279E0EC
:103E40008DE39EE00E949E160E94891361E075E05A
:103E50008DE39EE00E949E1665EC75E08DE39EE08A
:103E60000E949E160E9489138091E00A9091E10AB7
:103E70000897E1F461E075E08DE39EE00E949E16F4
:103E80006DE279E08DE39EE00E949E160E94891308
:103E90006BE075E08DE39EE00E949E1665EC75E098
:103EA0008DE39EE00E949E160E9489138091E00A95
:103EB0009091E10A0997E1F46BE075E08DE39EE0F3
:103EC0000E949E166DE279E08DE39EE00E949E16B0
:103ED0000E94891365E175E08DE39EE00E949E16C5
:103EE00065EC75E08DE39EE00E949E160E948913AA
:103EF0008091E00A9091E10A0A97E1F465E175E0AA
:103F00008DE39EE00E949E166DE279E08DE39EE0D7
:103F10000E949E160E9489136FE175E08DE39EE07A
:103F20000E949E1665EC75E08DE39EE00E949E1651
:103F30000E9489138091E00A9091E10A0B97E1F4C5
:103F40006FE175E08DE39EE00E949E166DE279E0E0
:103F50008DE39EE00E949E160E94891369E275E03F
:103F60008DE39EE00E949E1665EC75E08DE39EE079
:103F70000E949E160E9489138091E00A9091E10AA6
:103F80000C97E1F469E275E08DE39EE00E949E16D5
:103F90006DE279E08DE39EE00E949E160E948913F7
:103FA00063E375E08DE39EE00E949E1665EC75E08C
:103FB0008DE39EE00E949E160E9489138091E00A84
:103FC0009091E10A0D97E1F463E375E08DE39EE0E3
:103FD0000E949E166DE279E08DE39EE00E949E169F
:103FE0000E9489136DE375E08DE39EE00E949E16AA
:103FF00065EC75E08DE39EE00E949E160E94891399
:104000008091E00A9091E10A0E97E1F46DE375E08A
:104010008DE39EE00E949E166DE279E08DE39EE0C6
:104020000E949E160E94891367E475E08DE39EE06E
:104030000E949E1665EC75E08DE39EE00E949E1640
:104040000E9489138091E00A9091E10A0F97E1F4B0
:1040500067E475E08DE39EE00E949E166DE279E0D4
:104060008DE39EE00E949E160E94891361E575E033
:104070008DE39EE00E949E1665EC75E08DE39EE068
:104080000E949E160E9489138091E00A9091E10A95
:104090004097E1F461E575E08DE39EE00E949E1695
:1040A0006DE279E08DE39EE00E949E160E948913E6
:1040B0006BE575E08DE39EE00E949E1665EC75E071
:1040C0008DE39EE00E949E160E9489138091E00A73
:1040D0009091E10A4197E1F46BE575E08DE39EE094
:1040E0000E949E166DE279E08DE39EE00E949E168E
:1040F0000E94891365E675E08DE39EE00E949E169E
:1041000065EC75E08DE39EE00E949E160E94891387
:104110008091E00A9091E10A4297E1F465E675E04A
:104120008DE39EE00E949E166DE279E08DE39EE0B5
:104130000E949E160E9489136FE675E08DE39EE053
:104140000E949E1665EC75E08DE39EE00E949E162F
:104150000E9489138091E00A9091E10A4397E1F46B
:104160006FE675E08DE39EE00E949E166DE279E0B9
:104170008DE39EE00E949E160E94891369E775E018
:104180008DE39EE00E949E1665EC75E08DE39EE057
:104190000E949E160E9489138091E00A9091E10A84
:1041A0000197F9F469E775E08DE39EE00E949E16A1
:1041B0006DE279E08DE39EE00E949E160E948913D5
:1041C00065EC74E08DE39EE00E949E1665EC75E060
:1041D0008DE39EE00E949E160C94891381E090E08E
:1041E00067CD0895CF93DF93EC018DE39EE00E94AD
:1041F0007B03892B29F08DE39EE00E945903F5CFC4
:10420000BE018DE39EE00E949E160E940A040E9459
:104210000A04DF91CF910C940A046091E20A709134
:10422000E30A8AED9EE00E94801463E875E08AED5F
:104230009EE00E949E1680913A0290913B02892B4B
:1042400011F581E090E090933B0280933A026EE892
:1042500075E08DE39EE00E949E166DE975E08AEDA3
:104260009EE00E949E168091E20A9091E30A0E94CD
:10427000E6150E94891360E08AE10E94C30461E0B0
:1042800085E40C94C30467EA75E08DE39EE00E9428
:104290009E166091E20A7091E30A8AED9EE00E9408
:1042A000801466EB75E08AED9EE00E949E160E94E7
:1042B000891310923B0210923A0261E08AE10E9457
:1042C000C30460E0DDCF8091380290913902892BE0
:1042D00021F581E090E090933902809338026CEBF5
:1042E00075E08DE39EE00E949E166DE975E08AED13
:1042F0009EE00E949E166091E20A7091E30A8AEDA8
:104300009EE00E9480140E94891360E089E10E946F
:10431000C30461E08FE30C94C3046BEC75E08DE3A0
:104320009EE00E949E160E948913109239021092FC
:10433000380261E089E10E94C30460E0EBCF609144
:10434000E20A7091E30A8AED9EE00E94801463E81D
:1043500075E08AED9EE00E949E168091E20A90919F
:10436000E30A892B21F581E090E09093E30A8093A2
:10437000E20A6AED75E08DE39EE00E949E160E94BF
:1043800089136DE975E08AED9EE00E949E166091AA
:10439000E20A7091E30A8AED9EE00E94801460E0D8
:1043A00088E10E94C30461E080E40C94C30469EED8
:1043B00075E08DE39EE00E949E166091E20A709186
:1043C000E30A8AED9EE00E94801466EB75E08AEDB8
:1043D0009EE00E949E160E9489131092E30A10929A
:1043E000E20A61E088E10E94C30460E0DDCF68EF8B
:1043F00075E08DE39EE00E949E160E948913109244
:104400005D0D10925C0D60E080E40E94C30461E0E9
:1044100088E10E94C30463E076E08AED9EE00E949A
:104420000A161092650D1092640D81E090E0909351
:10443000E30A8093E20A0895CF93DF938091DE0A26
:104440009091DF0A892B01F5C1E0D0E0D0935D0D9A
:10445000C0935C0D6FE076E08DE39EE00E949E16B7
:104460000E94891361E080E40E94C30460E088E157
:104470000E94C3046AE176E08AED9EE00E940A167B
:10448000D093E30AC093E20A8091DE0A9091DF0A9A
:1044900081309105B1F490935D0D80935C0D60E0E7
:1044A00080E40E94C30461E088E10E94C3046AE1E1
:1044B00076E08AED9EE00E940A161092E30A1092BE
:1044C000E20ADF91CF9108956DE479E08DE39EE0FB
:1044D0000E949E160E940A040E940A040C940A0478
:1044E0008091E60A9091E70A0197E9F480915802D9
:1044F000909159020196863591050CF092C09093E7
:1045000059028093580267E276E08DE39EE00E94B4
:104510009E1660915802709159028DE39EE00E94B0
:1045200080140E9464228091E60A9091E70A029723
:1045300021F580915602909157020196909357026F
:10454000809356022091580230915902281739075A
:1045500024F4309357022093560261E376E08DE312
:104560009EE00E949E1660915602709157028DE364
:104570009EE00E9480140E9464228091E60A90913D
:10458000E70A039721F58091540290915502019614
:104590009093550280935402209158023091590211
:1045A0002817390724F430935502209354026BE303
:1045B00076E08DE39EE00E949E1660915402709119
:1045C00055028DE39EE00E9480140E946422809137
:1045D000E60A9091E70A049739F58091520290918A
:1045E00053020196909353028093520220915802F5
:1045F000309159022817390724F43093530220933D
:10460000520265E476E08DE39EE00E949E16609182
:104610005202709153028DE39EE00E9480140C942C
:10462000642285E590E06BCF08958091E60A909131
:10463000E70A0197E9F48091580290915902019795
:10464000883291050CF47BC09093590280935802F4
:1046500067E276E08DE39EE00E949E16609158022C
:10466000709159028DE39EE00E9480140E946422A2
:104670008091E60A9091E70A0297E9F48091560248
:10468000909157020197883291050CF45BC090938A
:1046900057028093560261E376E08DE39EE00E942C
:1046A0009E1660915602709157028DE39EE00E9423
:1046B00080140E9464228091E60A9091E70A039791
:1046C000E1F480915402909155020197883291054E
:1046D000E4F190935502809354026BE376E08DE30E
:1046E0009EE00E949E1660915402709155028DE3E7
:1046F0009EE00E9480140E9464228091E60A9091BC
:10470000E70A049741F58091520290915302019774
:1047100088329105ECF0909353028093520265E445
:1047200076E08DE39EE00E949E16609152027091A9
:1047300053028DE39EE00E9480140C94642288E270
:1047400090E082CF88E290E0A2CF88E290E0C1CFF3
:1047500088E290E0E0CF08958091E40A9091E50A24
:10476000892B09F04CC080917C0290917D020A96C1
:1047700090937D0280937C026FE476E08AED9EE068
:104780000E949E1690E080E00E94E61580917C02D7
:1047900090917D028734910564F080E590E09093DC
:1047A0007D0280937C0281E090E09093E50A809303
:1047B000E40A6091700D7091710D8AED9EE00E9487
:1047C00080146BE676E08DE39EE00E949E160E94C8
:1047D000891369E876E08DE39EE00E949E1664E905
:1047E00076E08DE39EE00E949E1660917C027091BF
:1047F0007D028DE39EE00E9480140C9464226AE79F
:1048000076E08DE39EE00E949E160E94891310922E
:10481000E50A1092E40A10927D0210927C02D9CF30
:104820008091500290915102019701F5109251022E
:10483000109250026AE976E08DE39EE00E949E1697
:1048400065EC75E08DE39EE00E949E160E94891340
:1048500063EA76E08DE39EE00E949E166DEA76E0C4
:104860008DE39EE00E949E160C94642281E090E00D
:1048700090935102809350026AE976E08DE39EE0C6
:104880000E949E1666EB76E08DE39EE00E949E16E7
:104890000E94891363EA76E08DE39EE00E949E16F3
:1048A0006BEB76E0DDCFEF92FF920F931F93CF93E8
:1048B000DF93EC017B01198218821B821A821D8210
:1048C0001C82FB0101900020E9F731978F01061B44
:1048D000170BB8010E94F51328813981811113C08B
:1048E0002115310519F0C9010E94795119821882E8
:1048F0001D821C821B821A82DF91CF911F910F9122
:10490000FF90EF9008951D830C83B701C901DF91DB
:10491000CF911F910F91FF90EF900C94F852EF926E
:10492000FF920F931F93CF93DF9300D000D0CDB7AA
:10493000DEB7FC01E280F38010E0E114F10479F1CC
:1049400063EC76E0CE0101960E945324F7010190BA
:104950000020E9F73197EE19FF09B1F00D811E81B2
:104960000E0F1F1FB801CE0101960E94F513882378
:1049700059F029813A818D819E81B701820F931F61
:104980000E94F8521E830D8389819A810E94F22031
:104990000E941C16182FCE0101960E941D14812F13
:1049A00026960FB6F894DEBF0FBECDBFDF91CF9134
:1049B0001F910F91FF90EF90089585E591E10E947E
:1049C0008F2469EC76E08DE39EE00E949E16609154
:1049D0005802709159028DE39EE00E9480140E945B
:1049E000891368EF73E08DE39EE00E949E1660914C
:1049F0006402709165028DE39EE00E9480140E9423
:104A0000891362E074E08DE39EE00E949E1660913F
:104A10007E0270917F028DE39EE00E9480140E94CE
:104A200089136CE074E08DE39EE00E949E16609115
:104A30007C0270917D028DE39EE00E9480140E94B2
:104A4000891366E174E08DE39EE00E949E166091FA
:104A50008002709181028DE39EE00E9480140E948A
:104A6000891360E274E08DE39EE00E949E166091DF
:104A70006202709163028DE39EE00E9480140E94A6
:104A800089136AE274E08DE39EE00E949E166091B5
:104A90007802709179028DE39EE00E9480140E945A
:104AA000891364E374E08DE39EE00E949E1660919A
:104AB0007602709177028DE39EE00E9480140E943E
:104AC00089136EE374E08DE39EE00E949E16609170
:104AD0007A0270917B028DE39EE00E9480140E9416
:104AE000891368E474E08DE39EE00E949E16609155
:104AF0006002709161028DE39EE00E9480140E942A
:104B0000891362E574E08DE39EE00E949E16609139
:104B10007202709173028DE39EE00E9480140E94E5
:104B200089136CE574E08DE39EE00E949E1660910F
:104B30007002709171028DE39EE00E9480140E94C9
:104B4000891366E674E08DE39EE00E949E166091F4
:104B50007402709175028DE39EE00E9480140E94A1
:104B6000891360E774E08DE39EE00E949E166091D9
:104B70005E0270915F028DE39EE00E9480140E94AD
:104B800089136AE774E08DE39EE00E949E166091AF
:104B90006C0270916D028DE39EE00E9480140E9471
:104BA000891364E874E08DE39EE00E949E16609194
:104BB0006A0270916B028DE39EE00E9480140E9455
:104BC00089136EE874E08DE39EE00E949E1660916A
:104BD0006E0270916F028DE39EE00E9480140E942D
:104BE000891368E974E08DE39EE00E949E1660914F
:104BF0005C0270915D028DE39EE00E9480140E9431
:104C0000891362EA74E08DE39EE00E949E16609133
:104C10006802709169028DE39EE00E9480140E94F8
:104C200089136CEA74E08DE39EE00E949E16609109
:104C30006602709167028DE39EE00E9480140E94DC
:104C4000891381E090E09093E10A8093E00A65EC9B
:104C500074E08DE39EE00E949E1665EC75E08DE3A6
:104C60009EE00E949E160C94891389E491E10E94B3
:104C70008F2480915002909151020197E1F46AE9EA
:104C800076E08DE39EE00E949E1666EB76E08DE373
:104C90009EE00E949E160E94891363EA76E08DE3EF
:104CA0009EE00E949E166BEB76E08DE39EE00E94F4
:104CB0009E160E9464228091500290915102892B8D
:104CC000E1F46AE976E08DE39EE00E949E1665ECD1
:104CD00075E08DE39EE00E949E160E94891363EAB0
:104CE00076E08DE39EE00E949E166DEA76E08DE30D
:104CF0009EE00E949E160C946422089581E691E144
:104D00000E948F2481E090E09093390280933802D2
:104D100010923B0210923A021092E30A1092E20AB9
:104D20001092710D1092700D90935F0D80935E0D37
:104D300061E088E10E94C30460E089E10E94C3044D
:104D400061E08AE10E94C30460E080E40E94C30441
:104D500061E08FE30E94C30460E085E40E94C30425
:104D60006CEB75E08DE39EE00E949E160C94891317
:104D70008DE691E10E948F2467E276E08DE39EE06C
:104D80000E949E1660915802709159028DE39EE038
:104D90000E9480140E94642261E376E08DE39EE02D
:104DA0000E949E1660915602709157028DE39EE01C
:104DB0000E9480140E9464226BE376E08DE39EE003
:104DC0000E949E1660915402709155028DE39EE000
:104DD0000E9480140E94642265E476E08DE39EE0E8
:104DE0000E949E1660915202709153028DE39EE0E4
:104DF0000E9480140E9464226DED73E08DE39EE0BA
:104E00000E949E1665EC75E08DE39EE00E949E1662
:104E10000E9489131092630D1092620D81E090E060
:104E20009093E70A8093E60A08950C94B8260C94B0
:104E3000B82689E791E10C948F2489E791E10C94DD
:104E40008F2410925F0D10925E0D89E791E10C9412
:104E50008F2485ED8093BC008091390E90913A0E9D
:104E6000A0913B0EB0913C0E0796A11DB11D23E011
:104E7000B695A795979587952A95D1F72091BC006F
:104E800024FD03C01092370E08954091390E5091C1
:104E90003A0E60913B0E70913C0E452B462B472BF2
:104EA00069F30097A105B10541F025E32A95F1F7D3
:104EB00000000197A109B109E1CF8091380E0C944F
:104EC0006C06AF92BF92CF92DF92EF92FF920F9358
:104ED0001F93CF93DF9300D01F92CDB7DEB78C0125
:104EE0006B017A018091C80D8333E9F45B0168019D
:104EF000C40ED51EC016D106A9F10E94A00A8FE0EB
:104F00000E94AB0A812F0E94AB0A802F0E94AB0A3D
:104F10000F5F1F4F80E00E94AB0AF50181935F0194
:104F20000E94960AE7CF843369F50E94A00A19838C
:104F30000A838F2D8F778B83EC8264E070E0CE0143
:104F400001960E947C0AA70170E060E0C6010E9401
:104F5000F152E114F10421F0B701C6010E947C0A6C
:104F60000E94960AC7010F900F900F900F90DF914B
:104F7000CF911F910F91FF90EF90DF90CF90BF9056
:104F8000AF9008950E94A00A0F3F110509F030F478
:104F900019820A831B8263E070E0D1CF17FD0BC03A
:104FA00019820A8333E0169507953A95E1F7007E5A
:104FB00008600B83F0CFC80126E0969587952A9567
:104FC000E1F7807E19830A830115104C18F4806183
:104FD0008B83E1CF8861FCCFCF93DF931F92CDB756
:104FE000DEB72091C90D30E0322F2227260F371F60
:104FF00090E0982F882741E050E0BE016F5F7F4F1F
:10500000820F931F0E94612789810F90DF91CF91BA
:105010000895CF93C82F462F61E070E00E94DC0B0B
:1050200061E070E08C2F0E94EC278111F9CFCF91C5
:105030000895CF93C82F80E591E00E94520C68E05C
:1050400070E08C2FCF910C940928CF93C82F80E566
:1050500091E00E94520C60E170E08C2FCF910C9493
:105060000928CF93DF93EC01888D883020F40E94CB
:10507000252888E0888FDF91CF91089563E070E064
:105080000C94EC27CF93C82F80E591E00E94520C3E
:105090008C2FCF910C943E28EF92FF920F931F9389
:1050A000CF93DF937C018091C80DD4E0833309F066
:1050B000D8E00EEA1DE0C0E0F801219131918F01A6
:1050C000F701848195812817390729F0CF5FDC1318
:1050D000F3CF80E006C08C2F0E9442288431B1F7C4
:1050E00081E0DF91CF911F910F91FF90EF90089594
:1050F000CF93DF93EC018C858830D0F40E94422856
:10510000843189F0882379F0883169F021E08C318D
:1051100059F4E881F9810084F185E02DCE011995DB
:1051200021E0892B09F420E0822FDF91CF910895AF
:1051300080E0FBCFCF92DF92EF92FF92CF93DF938D
:10514000EC018C85883068F40E9419280E940D06B5
:105150006B017C018C850E944228811109C088E086
:105160008C87DF91CF91FF90EF90DF90CF900895E3
:1051700061E070E080E090E00E94DA050E940D0698
:10518000AB01BC014C195D096E097F098D859E85B7
:10519000B0E0A0E0481759076A077B07D8F28C8572
:1051A0000E942528DCCFCF93FC01C08D80E591E0E3
:1051B0000E94520C60E270E08C2F0E94092862E08D
:1051C00070E08C2F0E94EC2784FD16C062E070E036
:1051D0008C2F0E94EC2783FF0AC048E162E070E058
:1051E0008C2F0E94DC0B80E090E0CF91089580E549
:1051F00091E00E94520CE3CF40E162E070E08C2F1E
:105200000E94DC0B81E0F0CFCF93DF931F92CDB7EC
:10521000DEB741E050E0BE016F5F7F4F90E080E07D
:105220000E94612789810F90DF91CF910895CF93DC
:10523000DF93C4E1D0E00E940429882361F061E09B
:1052400070E080E090E00E94DA052197A1F780E00D
:10525000DF91CF91089581E0FBCFCF92DF92EF9263
:10526000FF921F93CF93DF93CDB7DEB76A970FB648
:10527000F894DEBF0FBECDBFFA0124E633E03A83D7
:1052800029835FEF5B835C835D831E8238872F8376
:10529000C280D380E480F580C986DA86EB86FC86FE
:1052A000FB0142815381648175814F87588B698BE3
:1052B0007A8B3C8B2B8BFC0182819381A481B581FD
:1052C0008D8B9E8BAF8BB88F8091CA0D81119BC047
:1052D00060E372E080E090E00E94DA051FB7F89486
:1052E0008091C70D811127C0E5E9F4E08491EBEDD1
:1052F000F4E09491E82FF0E0EE0FFF1FEA51FD4F2C
:10530000A591B491EC91E92321F461E085E30E9439
:10531000C30461E085E30E9484058CB580618CBD87
:105320008CB580648CBD61E084E30E94840561E0FB
:1053300083E30E9484058091C70D8F5F8093C70D22
:105340001FBFEAE6F4E0E491F0E0EE0FFF1FE45344
:10535000FD4F859194919093C60D8093C50DE0EB20
:10536000F4E0E491E093C40D61E08AE00E948405DA
:105370000E94960A80E591E00E94520C84E380939B
:10538000C80D80E80E947E0B0E941729882309F42B
:105390006EC088E00E947E0B0E940429883009F0CC
:1053A00066C080E10E947E0B0E940429803109F0D2
:1053B0005EC080E00E947E0B0E940429182F81119C
:1053C00056C041E050E0BE01675E7F4F8FE190E044
:1053D0000E946127898D833009F049C080E4809361
:1053E000C90D42E06EE170E0812F0E94DC0B42E0CB
:1053F0006FE170E0812F0E94DC0B1F5F183089F78E
:1054000081E08093CA0D80E591E00E94520C46E055
:1054100050E060EC72E089E090E00E94D00A44E045
:1054200050E0BE016B5E7F4F8FE090E00E94D00A9B
:1054300044E050E0BE01675F7F4F81E090E00E9452
:10544000D00A44E050E0BE016D5F7F4F85E090E000
:105450000E94D00A8F859889A989BA898093EE0F16
:105460009093EF0FA093F00FB093F10F69C087E313
:105470008093C80D80E80E947E0B0E941729882324
:1054800029F188E00E947E0B0E9404298830F1F403
:1054900080E10E947E0B0E940429182F8031B1F414
:1054A00080E00E947E0B0E94042981110FC041E020
:1054B00050E0BE01675E7F4F89E390E00E94612764
:1054C000898D843019F41093C90D9ACF83E38093AA
:1054D000C80D80E80E947E0B0E941729882371F175
:1054E00080E10E947E0B0E940429803139F582E11F
:1054F0000E947E0B0E940429823101F580E00E9407
:105500007E0B0E940429811119C084E08093C90D8B
:1055100015E51A8F41E050E0BE01665E7F4F8BE1DA
:1055200090E00E94D00A198F41E050E0BE01675E12
:105530007F4F8AE190E00E94D00A62CF1092C80D9E
:105540006A960FB6F894DEBF0FBECDBFDF91CF9144
:105550001F91FF90EF90DF90CF9008951F93CF930E
:10556000DF931F92CDB7DEB7182F80E591E00E9440
:10557000520C812F0E94910B27E0129FF001112401
:10558000EA58F24F22813381377041E050E0BE018A
:105590006F5F7F4F820F931F0E94612789810F9059
:1055A000DF91CF911F910895FC01808D883040F4E8
:1055B000218D328D232B21F00E94AE2A90E0089598
:1055C0008FEF9FEF0895CF93DF93FC012485283060
:1055D00028F08FEF9FEFDF91CF910895EC010190BC
:1055E000F081E02D0084F185E02D1995892B89F358
:1055F0008C850E94AE2A90E0EECFDA01E091C90DD1
:10560000F0E0FE2FEE27E60FF71F90E0982F882797
:10561000A901BD018E0F9F1F0C9461278F929F924D
:10562000AF92BF92CF92DF92EF92FF920F931F93B0
:10563000CF93DF93CDB7DEB760970FB6F894DEBF98
:105640000FBECDBF7C019091C80D911115C018E01F
:10565000812F60960FB6F894DEBF0FBECDBFDF91ED
:10566000CF911F910F91FF90EF90DF90CF90BF905F
:10567000AF909F908F90089508E0933309F404E071
:105680006B0180E591E00E94520C9E012F5F3F4F1D
:105690005901490110E0812F0E943E28F4018193B5
:1056A0004F018823C1F01F5F0113F5CF00E0F50122
:1056B00081915F018D3149F0883139F08A51823012
:1056C00020F00F5F1013F3CFC2CF60E170E0802FA6
:1056D0000E940928102FA12EB12CF501EE0FFF1FFB
:1056E000E255F24F1182108283EE93E00197F1F7B9
:1056F00042E870E060E0812F0E94DC0B4FEF62E037
:1057000070E0812F0E94DC0BB601C114D10491F42A
:105710008091BE029091BF0201968115F0EC9F0727
:1057200008F45CC09093BF028093BE026091BE02F9
:105730007091BF02812F0E94C60B86E0ECECF2E074
:10574000DE01199601900D928A95E1F7F7018381A8
:105750008F778C8784818D8785818E87A7014E5FA7
:105760005F4F24E030E06CE070E0812F0E949F0BDF
:10577000B601812F0E94B00B26E030E0AE01475FFA
:105780005F4F66E070E0812F0E949F0B61E070E048
:10579000812F0E94092827E02A9DC0012B9D900D92
:1057A00011249C012A58324F7901F901118210828B
:1057B00022E030E0AE01415F5F4F68E270E0812F90
:1057C0000E94FD2A8F859889982789279827F701B5
:1057D000938382831682158214823ACF80E090EC04
:1057E000A1CFCF92DF92EF92FF920F931F93CF93AF
:1057F000DF9300D000D0CDB7DEB78C016B017A010A
:10580000FC01808D883010F40E94252884E693E006
:105810009A838983F60182819381A481B5818B83E8
:105820009C83AD83BE83B701CE0101960E940E2BEF
:10583000F801808F8830A0F4F586E486128E118EF0
:1058400081E026960FB6F894DEBF0FBECDBFDF9184
:10585000CF911F910F91FF90EF90DF90CF9008951F
:1058600080E0EFCF7F928F929F92AF92BF92CF92C4
:10587000DF92EF92FF920F931F93CF93DF931F92CC
:105880001F92CDB7DEB7782E8B014A01590122E075
:1058900030E0AE014F5F5F4F64E270E00E94FD2A8E
:1058A000E980FA80FE24EF24FE24E00EF11E970129
:1058B00037704091C80D072D10E0433309F042C006
:1058C000085F1F4F102F0027110F110F110FC90173
:1058D000800F911F4733C9F1A9014A0D5B1D41306B
:1058E000584098F160E078E06B01C21AD30AA60133
:1058F000B4010E94D00AA5014C195D09B4016C0DD8
:105900007D1DC8010E94D00AEA0CFB1CF982EA82C4
:1059100022E030E0AE014F5F5F4F64E270E0872D20
:105920000E949F0B0F900F90DF91CF911F910F91CD
:10593000FF90EF90DF90CF90BF90AF909F908F90AF
:105940007F900895005F1F4FBDCFA501B401DACF4E
:10595000EF92FF921F93CF93DF931F921F92CDB7C9
:10596000DEB7182F22E030E0AE014F5F5F4F60E2FC
:1059700070E00E94FD2AE980FA80FE24EF24FE24D4
:1059800022E030E0AE014F5F5F4F60E270E0812FB8
:105990000E94FD2A89819A81982789279827E816ED
:1059A000F90689F487E0189FF0011124EA58F24FB4
:1059B000F582E482C7010F900F90DF91CF911F9184
:1059C000FF90EF9008957C01DBCF1F93CF93DF937F
:1059D000182F80E591E00E94520C812F0E94A82C84
:1059E000EC01812F0E943E28873121F08C3111F08B
:1059F000D0E0C0E0CE01DF91CF911F910895CF9309
:105A0000DF93EC018C85883060F40E944228873156
:105A100011F08C3131F48C850E94E52C8115984071
:105A200088F3DF91CF910895FC018485883010F4CC
:105A30000C94E52C90E080E00895CF92DF92EF92F5
:105A4000FF921F93CF93DF93182F7B01EA01413020
:105A5000584010F0C0E0D8E080E591E00E94520C80
:105A6000812F0E94A82C6C01812F0E943E28873133
:105A700011F08C3121F5CC16DD0670F380E591E054
:105A80000E94520C9E01A70170E060E0812F0E94ED
:105A9000322C60E270E0812F0E94092862E070E001
:105AA000812F0E94EC2784FD0DC0812F0E943E288B
:105AB0008823B9F080E591E00E94520CEFCFD0E04E
:105AC000C0E0DCCF40E162E070E0812F0E94DC0B9F
:105AD000CE01DF91CF911F91FF90EF90DF90CF909B
