:100000000C94AC020C9446450C941B450C94F044A3
:100010000C94C5440C949A440C946F440C9444443E
:100020000C9419440C9471450C9471450C947145D1
:100030000C94DD020C94DD020C94DD020C94DD02C4
:100040000C94DD020C94DD020C94DD020C94DD02B4
:100050000C947B450C94DD020C94DD020C94CF4390
:100060000C94DD020C9499430C946F430C94DD02C4
:100070000C94DD020C94DD020C94DD020C94DD0284
:100080000C94DD020C94DD020C94DD020C94DD0274
:100090000C9439430C940F430C94DD020C94A64548
:1000A0000C94DD020C94DD020C94DD020C94DD0254
:1000B0000C94DD020C94DD020C94DD020C94DD0244
:1000C0000C94DD020C94DD020C94DD020C94DD0234
:1000D0000C94DD020C94DD020C94DD020C94DD0224
:1000E0000C94DD020C9482350C947E030C94884EA3
:1000F0000C948D030C9439590C94EF040C94AF03B9
:100100000C94D1190C9449320C9465340C94E1048C
:100110000C944C250C94CF410C94592A0C94A3595F
:100120000C947F110C94B8040C94B4040C949E5954
:100130000C9449030C941B290C9491140C9459149D
:100140000C948D130C94DA340C94F3040C946927FA
:100150000C947A4E0C94A4080C9492590C94003090
:100160000C94C3040C94FE360C940E4E0C94E11CBB
:100170000C94AA150C948C4E0C9486590C9406037E
:100180000C94EE040C9407360C948E4E0C94DE2FD7
:100190000C94F9580C947A340C948A2D0C9489138D
:1001A0000C9482080C9496140C94C0040C9448038C
:1001B0000C94A5270C9458060C9451590C9425596D
:1001C0000C94D3040C94DF360C9451030C948A24C1
:1001D0000C9493140C94DB040C9483140C94B93E8B
:1001E0000C9421380C94D9110C942D590C9443047F
:1001F0000C94F41F0C94814E0C94F22D0C94BF17A8
:100200000C9442420C9443030C94E5260C946F0C1E
:100210000C94CA460C946E590C94892E0C94904EF2
:100220000C9476280C94A1030C94972F0C94A72A75
:100230000C94B33E0C949D130C94E9040C94431855
:100240000C94640C0C9405590C94CD420C944237D8
:100250000C947E2B0C94E5040C948D2E0C944E0C77
:100260000C9457330C94D7040C948A4E0C94455933
:100270000C94AE040C94BD3E0C94174E0C94BC042C
:100280000C94AD050C949F140C949E140C94122D98
:100290000C9409260C9428370C947A590C94132743
:1002A0000C944E130C9485130C94133F0C94033848
:1002B0000C94F4580C9411590C94B22F0C9491088E
:1002C0000C948B2E0C94162A0C94B2290C9487143F
:1002D0000C9438190C94BB3E0C9497220C94F53472
:1002E0000C943A320C9439300C94EF580C94E83E4C
:1002F0000C94380C0C94CD040C94D1080C94470346
:100300000C94F1030C94C9040C9462590C941D597B
:100310000C9451381F1C1F1E1F1E1F1F1E1F1E3135
:10032000393A32313A3239004A616E20313920325D
:100330003032310000002200250028002B002E0062
:100340003100340002010000050108010B0100002A
:100350002100240027002A002D0030003300010175
:100360000000040107010A0100000A0B02090C0D3C
:100370000E08070304010000000000000000000058
:10038000000000000000000000000000000000006D
:10039000000000001211100000000000000000002A
:1003A0000000000000000000000000000000005EEF
:1003B000BCE2613FDD83C29C7E20A3FD1F419DC343
:1003C000217FFCA2401E5F01E3BD3E6082DC237DF5
:1003D0009FC1421CFEA0E1BF5D0380DE3C62BEE027
:1003E000025CDF81633D7C22C09E1D43A1FF461855
:1003F000FAA427799BC584DA3866E5BB5907DB8503
:100400006739BAE406581947A5FB7826C49A653BB4
:10041000D987045AB8E6A7F91B45C6987A24F8A6E6
:10042000441A99C7257B3A6486D85B05E7B98CD214
:10043000306EEDB3510F4E10F2AC2F7193CD114FC2
:10044000ADF3702ECC92D38D6F31B2EC0E50AFF174
:10045000134DCE90722C6D33D18F0C52B0EE326CA6
:100460008ED0530DEFB1F0AE4C1291CF2D73CA94D4
:100470007628ABF517490856B4EA6937D58B570982
:10048000EBB536688AD495CB2977F4AA4816E9B734
:10049000550B88D6346A2B7597C94A14F6A8742A66
:1004A000C896154BA9F7B6E80A54D7896B350000F2
:1004B00020002300260029002C002F00320000011C
:1004C00000000301060109010505050507050808E7
:1004D0000808020202020A0A0808040404040101CE
:1004E00001010101010103030303030303030407E3
:1004F00007070C0C0C0C0C0C0C0C0202020206067A
:100500000606060606060B0B0B0B0B0B0B0B01026C
:100510001020200808102040102040800201020115
:1005200008040201010204081020408080402010CD
:100530000804020180040201804020100804020126
:10054000080402010102040810204080010204088E
:1005500010204080CA46A35911241FBECFEFD1E21C
:10056000DEBFCDBF00E00CBF1CE0A0E0B2E0E4E8DD
:10057000FDEB00E00BBF02C007900D92AE33B10758
:10058000D9F723E1AEE3BCE001C01D92A33BB20763
:10059000E1F712E0CBEAD2E000E006C021970109C2
:1005A000802FFE010E94775CCA3AD10780E00807DD
:1005B000A9F70E94D44A0C94B05E0C940000FC0190
:1005C000A089B18982E08C93A485B5851C92A6850B
:1005D000B7858FEC8C93108EA489B58986E08C93B7
:1005E000A289B3898C9180618C93A289B3898C9103
:1005F00088608C93A289B3898C9180688C930288DF
:10060000F389E02D80818F7D808308958091410F53
:100610009091420F891B990B0895DC01CB0133E0C7
:10062000880F991FAA1FBB1F3A95D1F7009721E0A9
:10063000A207B105FCF421E02093360F2FB72093D9
:10064000370FF8949093350F8093340F9093870071
:10065000809386008091370F8FBF80918100887FC3
:1006600080938100809181009091360F892B809337
:100670008100089523E0B595A795979587952A95CC
:10068000D1F722E0D9CFFC01818D928D0895089594
:1006900008950895DC01ED91FC910190F081E02D29
:1006A0001994AF92BF92CF92DF92EF92FF920F9385
:1006B0001F93CF93DF936C017B018B01040F151FF8
:1006C000EB015E01AE18BF08C017D10759F0699160
:1006D000D601ED91FC910190F081E02DC6011995B4
:1006E000892B79F7C501DF91CF911F910F91FF9071
:1006F000EF90DF90CF90BF90AF900895FC01538DA5
:10070000448D252F30E0842F90E0821B930B5417EB
:1007100010F0CF96089501970895FC01918D828D78
:10072000981761F0A28DAE0FBF2FB11D5D968C9111
:10073000928D9F5F9F73928F90E008958FEF9FEF50
:100740000895FC01918D828D981731F0828DE80F0C
:10075000F11D858D90E008958FEF9FEF0895FC01C6
:10076000918D228D892F90E0805C9F4F821B910993
:100770008F739927089583EB9FE00E94AF0321E0D8
:10078000892B09F420E0822F089580E590E10E94F2
:10079000AF0321E0892B09F420E0822F0895FC01AA
:1007A000A48DA80FB92FB11DA35ABF4F2C91848DD2
:1007B00090E001968F739927848FA689B7892C932F
:1007C000A089B1898C91837080648C93938D848D82
:1007D000981306C00288F389E02D80818F7D808385
:1007E0000895EF92FF920F931F93CF93DF93EC0145
:1007F00081E0888F9B8D8C8D98131AC0E889F989C8
:10080000808185FF15C09FB7F894EE89FF896083CA
:10081000E889F98980818370806480839FBF81E04B
:1008200090E0DF91CF911F910F91FF90EF9008958D
:10083000F62E0B8D10E00F5F1F4F0F731127E02E68
:100840008C8D8E110CC00FB607FCFACFE889F989A0
:10085000808185FFF5CFCE010E94CF03F1CFEB8DD4
:10086000EC0FFD2FF11DE35AFF4FF0829FB7F89474
:100870000B8FEA89FB8980818062CFCF6FEF83EB9A
:100880009FE00C94F103CF93DF93EC01888D8823D4
:10089000B9F0AA89BB89E889F9898C9185FD03C0E3
:1008A000808186FD0DC00FB607FCF7CF8C9185FFC8
:1008B000F2CF808185FFEDCFCE010E94CF03E9CF3B
:1008C000DF91CF91089580E090E0892B29F00E947C
:1008D000C50381110E94000080E090E0892B29F07F
:1008E0000E94BB0381110E94000080E090E0892BF0
:1008F00049F080E090E0892B29F00E9400008111EE
:100900000E94000080E090E0892B49F080E090E0B8
:10091000892B29F00E94000081110C940000089599
:100920008150823108F05AC0E82FF0E08827E45661
:10093000FB4F8F4F0C94775CBC04C004AE04B4042E
:10094000B804EE04C304C904CD04D304D704DB0403
:10095000E104E504EE04E904EF04F304809180006F
:100960008F77809380000895809180008F7DF9CFEC
:1009700080918000877FF5CF84B58F7784BD0895FF
:1009800084B58F7DFBCF8091B0008F778093B000CE
:1009900008958091B0008F7DF9CF809190008F777E
:1009A000809390000895809190008F7DF9CF809181
:1009B0009000877FF5CF8091A0008F778093A00073
:1009C00008958091A0008F7DF9CF8091A000877F4E
:1009D000F5CF809120018F77809320010895809139
:1009E00020018F7DF9CF80912001877FF5CF1F9364
:1009F000CF93DF93282F30E0F901E859FC4F849121
:100A0000F901E25FFA4FD491F901E853FB4FC49129
:100A1000CC23A9F0162F81110E949004EC2FF0E056
:100A2000EE0FFF1FEC5CFC4FA591B4918FB7F894CB
:100A3000EC91111108C0D095DE23DC938FBFDF91BC
:100A4000CF911F910895DE2BF8CFBF92CF92DF9206
:100A5000EF92FF920F931F93CF93DF93C12CC7E0C8
:100A6000D0E003E210E0EE24E394F12C60E080910A
:100A7000A6130E94F704C8010197F1F72091A7136C
:100A800030E0F901E859FC4F8491F901E25FFA4F37
:100A9000D490F901E853FB4FB490BB20A9F0811129
:100AA0000E949004EB2DF0E0EE0FFF1FE255FB4F8C
:100AB000A591B491EC91DE2239F0C7010C2E01C052
:100AC000880F0A94EAF7C82A61E08091A6130E9471
:100AD000F704C8010197F1F7219708F0C7CF8C2DD3
:100AE000DF91CF911F910F91FF90EF90DF90CF900A
:100AF000BF900895CF93DF9360E08091A8130E9488
:100B0000F70483E290E00197F1F70E942505C82FD2
:100B1000D0E0DC2FCC270E942505C82B61E0809116
:100B2000A8130E94F704C2FD13C083E0D695C795B1
:100B30008A95E1F7BE0190E080E00E94B55920E07F
:100B400030E040E85EE30E94165ADF91CF910895AD
:100B500060E070E080EC9FE7F8CF81E08093520C7A
:100B60001092510C1092500C60E083E40C94F70446
:100B7000CF93DF9390E0FC01E25FFA4F249188531A
:100B80009B4FFC0184918823C9F090E0880F991F46
:100B9000FC01E25BFC4FA591B491FC01EC5CFC4FC5
:100BA000C591D49161110DC09FB7F8948C91209597
:100BB00082238C938881282328839FBFDF91CF9144
:100BC0000895623051F49FB7F8943C91822F80953C
:100BD00083238C93E8812E2BEFCF8FB7F894EC9181
:100BE0002E2B2C938FBFEACF3FB7F8948091A40EA1
:100BF0009091A50EA091A60EB091A70E26B5A89B28
:100C000005C02F3F19F00196A11DB11D3FBFBA2F9E
:100C1000A92F982F8827BC01CD01620F711D811D5E
:100C2000911D42E0660F771F881F991F4A95D1F7E3
:100C300008958F929F92AF92BF92CF92DF92EF92E0
:100C4000FF926B017C010E94F4054B015C01C11411
:100C5000D104E104F104B9F00E94F405681979099E
:100C60008A099B09683E73408105910580F321E064
:100C7000C21AD108E108F10888EE880E83E0981EB8
:100C8000A11CB11CE4CFFF90EF90DF90CF90BF90FC
:100C9000AF909F908F9008952FB7F8946091A00E19
:100CA0007091A10E8091A20E9091A30E2FBF089576
:100CB0000895FC01908190539A3008F090E0818172
:100CC00080532AE0929F800D112408952091740C86
:100CD000260F3327331F21323105ECF42091AD0F5D
:100CE000FC0190E080E0243069F082E00895A0915A
:100CF000740C2191AC014C5A534FA40FB52FB11D68
:100D00002C930196861798F38091740C680F60936A
:100D1000740C80E0089581E008951092AD0F81E099
:100D200080938C0F1092870F61E084E10E94F7049A
:100D300061E085E10E94F704E9EBF0E080818E7FBD
:100D4000808380818D7F808388E48093B80085E4F0
:100D50008093BC000895CF93DF9391E09093530C60
:100D60008823B9F0C091B800D091BA008091BC003E
:100D70008A7B8093BC0060E084E10E94F70460E01D
:100D800085E10E94F7040E948D06D093BA00C093BB
:100D9000B800DF91CF910895CF92DF92EF92FF924A
:100DA0000F931F93CF93DF93D82FC62F613208F094
:100DB00098C00E94F4056B017C018091AD0F8111F8
:100DC0006BC081E08093AD0F80938C0F9FEF909369
:100DD0008B0F10928A0F9C0F9093890F8093880F2E
:100DE0008091880FDD0FD82BD093880F8091870FCB
:100DF000813009F078C01092870F0E94F4056B01D2
:100E00007C018091880F8093BB008091AF0F9091FF
:100E1000B00FA091B10FB091B20F892B8A2B8B2B01
:100E2000A1F00E94F4050091AF0F1091B00F209136
:100E3000B10F3091B20F6C197D098E099F09061709
:100E400017072807390708F448C08091BC0083FDC4
:100E5000D8CF85EC8093BC000E94F4056B017C0127
:100E60008091AD0F813009F440C080918A0F8C17BA
:100E700010F4C0918A0FE7E6FFE0ADE8BFE080E044
:100E80008C1355C08C2FDF91CF911F910F91FF9044
:100E9000EF90DF90CF9008958091AF0F9091B00FB9
:100EA000A091B10FB091B20F892B8A2B8B2B09F433
:100EB00084CF0E94F4050091AF0F1091B00F2091E4
:100EC000B10F3091B20F6C197D098E099F09061779
:100ED00017072807390708F070CF8091AE0F0E94DE
:100EE000AB06C0E0CFCF85EEB5CF8091AF0F90912C
:100EF000B00FA091B10FB091B20F892B8A2B8B2B21
:100F000009F4AECF0E94F4050091AF0F1091B00F1D
:100F10002091B10F3091B20F6C197D098E099F0994
:100F2000061717072807390708F09ACFD6CF9191EF
:100F30009D938F5FA5CFCF92DF92EF92FF920F9399
:100F40001F93CF93DF93D091660F81E0D13208F0E9
:100F50009CC0C091650F0E94F4056B017C018091DB
:100F6000AD0F81116CC082E08093AD0F81E0809362
:100F70008C0F8FEF80938B0F10928A0FD093890F75
:100F8000A5E4BFE0E7E6FFE080E0D8138DC0109253
:100F9000880F8091880FCC0FC82BC093880F809149
:100FA000870F813009F084C01092870F0E94F405EA
:100FB0006B017C018091880F8093BB008091AF0F03
:100FC0009091B00FA091B10FB091B20F892B8A2BE5
:100FD0008B2BA1F00E94F4050091AF0F1091B00F80
:100FE0002091B10F3091B20F6C197D098E099F09C4
:100FF000061717072807390708F442C08091BC007C
:1010000083FDD8CF85EC8093BC000E94F4056B0172
:101010007C018091AD0F823009F44CC080918B0F20
:101020008F3F09F469C080918B0F803209F466C04C
:1010300080918B0F803309F463C084E026C08091D7
:10104000AF0F9091B00FA091B10FB091B20F892B5B
:101050008A2B8B2B09F483CF0E94F4050091AF0FEC
:101060001091B00F2091B10F3091B20F6C197D0922
:101070008E099F09061717072807390708F06FCF51
:101080008091AE0F0E94AB0685E01092440F109243
:10109000660F1092430FDF91CF911F910F91FF9038
:1010A000EF90DF90CF9008959D9191938F5F6DCFDA
:1010B00085EEA9CF8091AF0F9091B00FA091B10FA5
:1010C000B091B20F892B8A2B8B2B09F4A2CF0E94EF
:1010D000F4050091AF0F1091B00F2091B10F309136
:1010E000B20F6C197D098E099F090617170728078B
:1010F000390708F08ECFC4CF80E0C7CF82E0C5CFDC
:1011000083E0C3CFE091420F8091410FE81730F4A4
:10111000F0E0E357F04F808190E008958FEF9FEF6C
:1011200008959091420F8091410F2FEF3FEF981754
:1011300048F4E92FF0E0E357F04F208130E09F5F63
:101140009093420FC9010895CF92DF92EF92FF92E0
:101150000F931F93CF93DF937C01CB018A012091E2
:10116000430F222389F0EB016B01C40ED51ECC1571
:10117000DD0569F06991D701ED91FC910190F08155
:10118000E02DC7011995F3CF642F0E946606C801B0
:10119000DF91CF911F910F91FF90EF90DF90CF9053
:1011A0000895CF93DF931F92CDB7DEB76983209167
:1011B000430F2223F9F02091660F203258F021E0EE
:1011C00030E0FC013383228390E080E00F90DF91D8
:1011D000CF9108958091440FE82FF0E0EB5BF04F42
:1011E000998190838F5F8093440F8093660F81E095
:1011F00090E0ECCF61E0CE0101960E946606F7CF49
:10120000682F88E391E10C94D108DC012C911196B0
:10121000ED91FC91F8948181822B81839281322F10
:1012200030959323928387E090E00197F1F78181D5
:101230008323818383E290E00197F1F79081789492
:10124000EFECF0E03197F1F7922381E009F480E0D0
:101250000895FC0190810180F281E02D292F2095D5
:1012600060FF14C0F8948281822382838181892B5C
:101270008183A3E2B0E01197F1F78281982B9283EA
:10128000789487ED90E00197F1F70895F8948281C2
:10129000822382838181892B8183AFEFB0E0119714
:1012A000F1F78281982B928378948FE090E0EBCFD6
:1012B000DF92EF92FF920F931F93CF93DF93EC0196
:1012C000D62EE42E08E010E0FF24F39461E08D2D8B
:1012D0008F2109F460E0CE010E942909FF0C015022
:1012E0001109A1F7E11010C0F894E981FA81918108
:1012F0008881809589238183E981FA81928188811F
:101300008095892382837894DF91CF911F910F91EB
:10131000FF90EF90DF900895EF92FF920F931F934D
:10132000CF93DF938C017B0140E065E50E94580973
:10133000E70188E0E80EF11C699140E0C8010E94D5
:101340005809CE15DF05C1F7DF91CF911F910F919D
:10135000FF90EF900895FC0190810180F281E02DD3
:10136000F8948181292F20958223818378943DE709
:1013700043E050E0315029F1DA011197F1F7808113
:101380008923C1F3F8948281822382838181892B0E
:1013900081837894ABE7B7E01197F1F7F8948181F6
:1013A00082238183A3E1B1E01197F1F78081982333
:1013B00081E009F080E07894E3E6F6E03197F1F718
:1013C000089580E008956F927F928F929F92AF92DE
:1013D000BF92CF92DF92EF92FF920F931F93CF9322
:1013E000DF938C01EB0180918311909184110E9415
:1013F000AB09811102C080E050C0B8018091831117
:10140000909184110E948C0940E06EEB80918311D1
:10141000909184110E9458098E016E0189E0C80ED6
:10142000D11C7E01A0908311B090841188E0882E99
:10143000912C712C66246394C5010E9405098111C9
:101440007628660CA1E08A1A9108B1F7F70171922B
:101450007F01EC15FD0531F7809183119091841186
:101460000E94AB09813039F6FE018191811104C0DF
:10147000EE16FF06D1F7BFCF89E090E0815049F02A
:10148000D801ED918D01E927F0E0E255FC4F9491F0
:10149000F5CF81E028852913AECFDF91CF911F9141
:1014A0000F91FF90EF90DF90CF90BF90AF909F9003
:1014B0008F907F906F9008950F931F93CF93DF933A
:1014C00000D000D000D0CDB7DEB78C01BE016F5F79
:1014D0007F4F0E94E309811105C060E070E08EEF4C
:1014E00092EC3EC06A8170E0762F6627770F770F07
:1014F000770F298148E0249F90011124262B372B58
:10150000F80180818031E1F468856623C9F070E0DC
:101510008F81AB01481B5109CA019695982F8827E6
:10152000979587950E94635CCB018097B90153E042
:10153000660F771F5A95E1F760789C01260F371FD9
:10154000213854EE35074CF2B901330F880B990B53
:101550000E94B75920E030E040E05CE30E94165A58
:1015600029960FB6F894DEBF0FBECDBFDF91CF91A5
:101570001F910F910895FC0120812EBD9B012150E8
:10158000310941F051810DB407FEFDCF4EB55EBD6E
:101590004193F5CF61507109860F971F0DB407FE77
:1015A000FDCF2EB5FC0120830895E0913B0FF09113
:1015B0003C0F808190913A0F892B80830895E091B0
:1015C0003B0FF0913C0F908180913A0F80958923D9
:1015D000808308958EBD00000DB407FEFDCF8EB54B
:1015E00008958FEF0C94EA0A0F931F93CF93DF9324
:1015F000EC010E944C068B010E94F10A8F3F69F0BA
:101600000E944C06601B710B6C177D07A8F380E0ED
:10161000DF91CF911F910F91089581E0F9CFAF92A3
:10162000BF92CF92DF92EF92FF920F931F93CF93CF
:10163000DF9300D000D01F921F92CDB7DEB78C0190
:101640007B016A0180913E0F8333E1F45801A40EBF
:10165000B51EA016B10609F46FC00E94DF0A80EF24
:101660000E94EA0A812F0E94EA0A802F0E94EA0A59
:101670000F5F1F4FF70181917F010E94EA0A0E94CC
:10168000D50AE7CF5B01A40EB51E8433C1F40E94D6
:10169000DF0A19830A838D2D80688B83CC8264E0F6
:1016A00070E0CE0101960E94BB0AAE14BF0409F49B
:1016B00041C0F70181917F010E94EA0AF6CF0E94A2
:1016C000DF0A0F3F110509F028F419820A8384E02C
:1016D0008B830CC017FD17C019820A8333E016955F
:1016E00007953A95E1F7007E0C600B8386E0C816FB
:1016F000D104A0F5F701DE011496EA15FB0599F077
:1017000081918D93FACFC80126E0969587952A9509
:10171000E1F7807E19830A830115104C10F484616F
:10172000D7CF8C61D5CFB6016D5F7F4FCE010196CB
:101730000E94BB0A0E94D50AC60128960FB6F894EB
:10174000DEBF0FBECDBFDF91CF911F910F91FF90F4
:10175000EF90DF90CF90BF90AF90089563E070E07E
:10176000CE0101960E94BB0AF70181917F010E9480
:10177000EA0AAE14BF04C1F7DDCFCF93DF931F9207
:10178000CDB7DEB7898341E050E0BE016F5F7F4F88
:1017900090E080E00E940F0B0F90DF91CF910895B1
:1017A00090E020913E0F233339F40C96982F990F37
:1017B000990F990F80E008954896F8CFDA01E091EB
:1017C0003F0FF0E0FE2FEE27E60FF71F90E0982F77
:1017D0008827A901BD018E0F9F1F0C940F0BCF937B
:1017E000DF931F921F92CDB7DEB779836A8322E021
:1017F00030E0AE014F5F5F4F60E170E00E94DE0BB2
:101800000F900F90DF91CF910895CF93DF931F92A8
:101810001F92CDB7DEB779836A8322E030E0AE0154
:101820004F5F5F4F64E070E00E94DE0B0F900F90FF
:10183000DF91CF910895CF93DF931F92CDB7DEB79D
:1018400020913F0F30E0322F2227260F371F90E0E4
:10185000982F8827498341E050E0BE016F5F7F4F9A
:10186000820F931F0E940F0B0F90DF91CF9108956D
:10187000CF93DF931F92CDB7DEB76983DC01ED9183
:10188000FC910280F381E02D41E050E0BE016F5FEA
:101890007F4F19950F90DF91CF910895CF93DF93EC
:1018A0001F92CDB7DEB76983DC01ED91FC91028018
:1018B000F381E02D41E050E0BE016F5F7F4F19954D
:1018C0000F90DF91CF910895FC019485FB018485F1
:1018D000981303C081E0983008F080E00895CF931A
:1018E000DF931F92CDB7DEB76983DC01ED91FC91E8
:1018F0000280F381E02D41E050E0BE016F5F7F4F39
:1019000019950F90DF91CF910895089561E0FC0142
:1019100084810E94F7048091970C81111092970C9A
:1019200008958CBD9DBD0895CF93DF93EC01809108
:10193000970C811109C081E08093970C8091ED1084
:101940009091EE100E94910C60E08C81DF91CF911C
:101950000C94F704CF92DF92EF92FF920F931F93B4
:10196000CF93DF93EC01162F69017A018E818823D2
:1019700089F08F8198859C012F5F3F4F38872F8397
:101980008230924018F40E94F10AF3CFCE010E94F7
:10199000860C1E82CE010E94940C8CE291E00E9483
:1019A000F40A812F80640E94EA0A08E110E0D7015E
:1019B000C601002E04C0B695A795979587950A9401
:1019C000D2F70E94EA0A08501109083F8FEF180762
:1019D00071F78FEF0E94EA0A10E00E94F10A8A87ED
:1019E00087FF04C01F3F11F01F5FF7CFDF91CF913A
:1019F0001F910F91FF90EF90DF90CF900895CF92BD
:101A0000DF92EF92FF920F93CF93DF93EC01690186
:101A100082E1411551056105710599F08B8583308F
:101A200039F089E0440F551F661F771F8A95D1F75B
:101A30009A01AB0168E1CE010E94AA0C882319F03B
:101A400084E08D832DC08EEF0E94EA0A76018EEF2E
:101A5000D81AF70181917F010E94EA0AEC14FD0473
:101A6000C1F78FEF0E94EA0A8FEF0E94EA0A0E94F4
:101A7000F10A8A878F71853071F4011116C0CE0189
:101A80000E94860C81E0DF91CF910F91FF90EF9043
:101A9000DF90CF90089581E18D83CE010E94860C66
:101AA000CE010E94860C80E0EECF88E592E00E9495
:101AB000F40A811102C085E1C4CF20E030E0A90121
:101AC0006DE0CE010E94AA0C882311F084E1B9CF09
:101AD0000E94F10A8111FACFD2CF0F934091990C55
:101AE00050919A0C60919B0C70919C0C4115510582
:101AF0006105710589F0082F2DE93CE090E080E058
:101B00000E94FF0C882349F01092990C10929A0CB5
:101B100010929B0C10929C0C81E00F9108950F93F2
:101B2000CF93C82F8091980C811105C0C1E08C2FF4
:101B3000CF910F91089540914002509141026091E0
:101B40004202709143020C2F2DE93CE090E080E0CE
:101B50000E94FF0C811102C0C0E0E9CFCC2331F319
:101B600081E00E946D0D8823B9F31092980CDFCFAD
:101B7000AF92BF92CF92DF92EF92FF921F93CF93DB
:101B8000DF936B017C01142F809140029091410200
:101B9000A0914202B09143028C159D05AE05BF0590
:101BA00009F4ADC081E00E948F0D8823E1F180919E
:101BB00006008823A1F08091000090910100A0917F
:101BC0000200B0910300C816D906EA06FB0639F4F4
:101BD0008091070090910800892B09F44FC0C092B2
:101BE0000000D0920100E0920200F0920300809188
:101BF0000B00A7019601833039F099E0220F331FC3
:101C0000441F551F9A95D1F761E190E080E00E9452
:101C1000AA0C882391F083E08093050090E080E097
:101C20000E94860C80E0DF91CF911F91FF90EF9092
:101C3000DF90CF90BF90AF9008950E944C06EB01CB
:101C40000E94F10A80930A008F3F79F40E944C06AB
:101C50006C1B7D0B6D32714098F38FE08093050013
:101C600090E080E00E94860CD9CF8E3FC1F51092A3
:101C700008001092070081E080930600CDE9DCE0C7
:101C80008DE9A82E8EE0B82E0E94F10A8993AC1639
:101C9000BD06D1F780910700909108009E5F909358
:101CA00008008093070020910900222319F0811574
:101CB0009240E8F0809106008823C9F080910700E7
:101CC000909108009C012F5F3F4F309308002093B4
:101CD00007008230924028F40E94F10AEFCF8DE095
:101CE000BDCF90E080E00E94860C10920600C0926A
:101CF0004002D0924102E0924202F09243024091AF
:101D0000980C412B4093980C81E08DCF4F925F92BD
:101D10006F927F928F929F92AF92BF92CF92DF92FB
:101D2000EF92FF920F931F93CF93DF93EC0142301A
:101D300051056105710590F480E0DF91CF911F910D
:101D40000F91FF90EF90DF90CF90BF90AF909F905A
:101D50008F907F906F905F904F90089589859A85BE
:101D6000AB85BC850196A11DB11D84179507A607FB
:101D7000B70710F3CB88DC88ED88FE888F89803127
:101D800009F042C0BB27A72F962F852F4801590184
:101D90002A013B01C80ED91EEA1EFB1E809140029B
:101DA00090914102A0914202B0914302C816D90617
:101DB000EA06FB0699F58F898031C1F5B301A201CE
:101DC000552766277727440F551F4356534FFA016F
:101DD000918280828091980C81608093980C8A898E
:101DE000823080F08D819E81AF81B8858C0D9D1DE4
:101DF000AE1DBF1D8093990C90939A0CA0939B0CE1
:101E0000B0939C0C81E099CFDB01CA01E7E0B69565
:101E1000A79597958795EA95D1F7B8CF40E0C70188
:101E2000B6010E94B80D8111C6CF86CFB301A201C1
:101E30004F77552766277727440F551F440F551FA7
:101E40004356534FFA0180829182A282B382C2CF5D
:101E50008F929F92AF92BF92CF92DF92EF92FF92BA
:101E60000F931F93CF93DF93FC0181859285A38508
:101E7000B4850196A11DB11D84179507A607B70764
:101E800070F480E0DF91CF911F910F91FF90EF9060
:101E9000DF90CF90BF90AF909F908F9008958388F0
:101EA0009488A588B6888789803189F5BB27A72FB4
:101EB000962F852FE9016A017B018F01BC01CD01BD
:101EC000680D791D8A1D9B1D8090400290904102F3
:101ED000A0904202B090430286169706A806B90663
:101EE00001F5F8018789803111F5DD24EE24FF2406
:101EF000F601EE0FFF1FE356F34F80819181B0E0B2
:101F0000A0E088839983AA83BB8381E0BBCFDB01F8
:101F1000CA01C7E0B695A79597958795CA95D1F759
:101F2000C9CF40E00E94B80D8111DBCFAACFE89461
:101F3000C7F8DD24EE24FF24F601EE0FFF1FEE0F9D
:101F4000FF1FE356F34F80819181A281B381BF705F
:101F5000D8CF8F929F92AF92BF92CF92DF92EF92A3
:101F6000FF920F931F93CF93DF93EC018D8181112B
:101F70000EC080E0DF91CF911F910F91FF90EF9005
:101F8000DF90CF90BF90AF909F908F9008950B8976
:101F90001C892D893E89041715072607370748F342
:101FA0004A015B01823031F48A869B86AC86BD860D
:101FB00081E0E0CF81149104A104B10449F41E82B0
:101FC0001F82188619861A861B861C861D86F0CFEE
:101FD0000A851B852C853D85EB8DFC8D858590E0E4
:101FE0000996B901A8014150510961097109082EEA
:101FF00004C076956795579547950A94D2F7750171
:102000006401E1E0CE1AD108E108F10804C0F694B9
:10201000E794D794C7948A95D2F7C416D506E606F6
:10202000F70620F0012B022B032B11F58F89988DD9
:10203000A98DBA8D8E839F83A887B9878E010A5F89
:102040001F4FC114D104E104F10409F4ADCF4E8156
:102050005F816885798598018B8D9C8D0E94280F02
:1020600091E0C91AD108E108F1088111EACF81CFC6
:10207000C41AD50AE60AF70AE1CF3F924F925F925F
:102080006F927F928F929F92AF92BF92CF92DF9288
:10209000EF92FF920F931F93CF93DF93CDB7DEB7ED
:1020A0002C970FB6F894DEBF0FBECDBF5C01DC01EC
:1020B0005B968D909C905C9716964D905D906D9080
:1020C0007C901997411451046104710409F468C0AB
:1020D000BFEF4B1A5B0A6B0A7B0A312CF401818536
:1020E0009285A385B4859C01AD012F5F3F4F4F4F73
:1020F0005F4F29873A874B875C87730162011D8296
:102100001E821F821886F40181859285A385B4857D
:102110002D813E814F815885281739074A075B0773
:1021200008F056C089859A85AB85BC858C159D05C0
:10213000AE05BF0550F482E0C82ED12CE12CF12C65
:1021400092E0492E512C612C712C9E012F5F3F4F44
:10215000B701A601C4010E94280F8823C9F1898113
:102160009A81AB81BC81892B8A2B8B2B09F12601AB
:1021700037019FEF491A590A690A790A2D813E8170
:102180004F8158852F5F3F4F4F4F5F4F2D833E83C9
:102190004F8358873FEFC31AD30AE30AF30AB3CF3A
:1021A000F40140805180628073803324339496CF51
:1021B000C414D504E604F70409F70FEF1FEF2FEF5F
:1021C0003FE0B701A601C4010E94860E811119C02B
:1021D00080E02C960FB6F894DEBF0FBECDBFDF9126
:1021E000CF911F910F91FF90EF90DF90CF90BF9014
:1021F000AF909F908F907F906F905F904F903F90A7
:102200000895D50116964D915D916D917C91199728
:10221000411551056105710539F097018601C40129
:102220000E94860E8823A1F2D5011696CD92DD92EA
:10223000ED92FC921997332051F0D701C601019617
:10224000A11DB11DF40180839183A283B383F501A5
:102250008789908DA18DB28D892B8A2B8B2B39F498
:102260008481C78AD08EE18EF28E80688483F501E6
:1022700084818062848381E0ACCF1F93CF93DF930E
:10228000EC01162F8C8187FF2AC06E857F85888997
:10229000998941E00E94B80D882361F1EA8980E2C2
:1022A000E89FF0011124E356F34F309719F18D8127
:1022B000823040F48B899C89AD89BE89848F958F4B
:1022C000A68FB78F8F89988D938F828F8F89988DE6
:1022D000A98DBA8DB58BA48B8C818F778C831111CE
:1022E00003C08C818F7E8C83812FDF91CF911F91D2
:1022F0000C948F0D80E0DF91CF911F9108951F9373
:10230000CF93DF93EC018D81813031F090E080E05C
:10231000DF91CF911F9108958C8181FFF7CF82FDCE
:102320001BC090E080E00E94940C0E94F10A182FDC
:1023300090E080E00E94860C1F3F41F78C8185FF72
:102340001EC08D81882321F060E0CE010E943D11E6
:102350008C818F7D8C83DACF4B895C896D897E89F6
:102360008A859B85AC85BD8584179507A607B70729
:10237000C1F2CE010E94A90F8111D3CFC7CF4091E6
:10238000990C50919A0C60919B0C70919C0C452B70
:10239000462B472B21F080E00E946D0DB7CF806166
:1023A0008C832A853B85317080E092E0821B930B01
:1023B000AFCF9F92AF92BF92CF92DF92EF92FF92F8
:1023C0000F931F93CF93DF9300D01F921F92CDB72F
:1023D000DEB78C016D83DC0115968C9115978130E9
:1023E00009F0B9C014968C9181FFB5C082FD9FC0E1
:1023F000D8015B96ED91FC915C971A96AD90BD90DB
:10240000CD90DC901D9794809A94B601A50189E047
:1024100076956795579547958A95D1F79422B1E0BF
:10242000BB22992009F49FC0D8015B96ED91FC91E5
:102430005C971696CD90DD90ED90FC901997B2E0E8
:10244000CB1AD108E108F108858504C0CC0CDD1C4D
:10245000EE1CFF1C8A95D2F74685578560897189E5
:10246000C40ED51EE61EF71EC90CD11CE11CF11CC2
:10247000A114B10409F00AC1F801428553856485AD
:10248000758583899489A589B689481759076A078C
:102490007B0708F4FBC081E00E948F0D882309F4BC
:1024A0005AC0C0924002D0924102E0924202F092A1
:1024B00043028091980C81608093980CF501E3565B
:1024C000F34F8D818083F80182859385A485B5853E
:1024D0000196A11DB11D82879387A487B587438983
:1024E000548965897689481759076A077B0738F444
:1024F0002481838B948BA58BB68B20682483D80191
:1025000014968C9183FD9FC081E090E00F900F9016
:102510000F900F900F90DF91CF911F910F91FF902F
:10252000EF90DF90CF90BF90AF909F900895F8010B
:10253000438954896589768982859385A485B58583
:10254000481759076A077B0709F452CFC8010E9450
:10255000A90F81114DCF81E090E0D80113969C9393
:102560008E93129749C0D80116964D915D916D9149
:102570007C911997A114B10409F071C0411551055E
:102580006105710589F557968D919D910D90BC91CE
:10259000A02D0097A105B10509F04FC0C8010E9408
:1025A0003D108823C1F2D8015B96ED91FC915C97B8
:1025B0001696CD90DD90ED90FC901997B2E0CB1A75
:1025C000D108E108F108858504C0CC0CDD1CEE1CA7
:1025D000FF1C8A95D2F74685578560897189C40E9C
:1025E000D51EE61EF71E48CF9E012F5F3F4FCF013D
:1025F0000E94280F811103C090E080E087CF89817D
:102600009A81AB81BC81F801238D348DF901278932
:1026100048EF5FEF60E070E0203121F048EF5FEFBE
:102620006FEF7FE084179507A607B70730F0C80162
:102630000E943D108111F8CE8ECFF80186839783DA
:10264000A087B187F1CEF8018581882309F483CF73
:1026500061E0C8010E943D11811156CF7CCF6A0113
:102660007B01B2E0CB1AD108E108F108858504C0EE
:10267000CC0CDD1CEE1CFF1C8A95D2F746855785D5
:1026800060897189C40ED51EE61EF71E41E0C701A0
:10269000B6010E94B80D811111CF5DCFFF920F934B
:1026A0001F93CF93DF93EB01FC01178A168A2A81CF
:1026B000211109C02B81211106C02C81211103C0D9
:1026C0002D81222301F141155105E9F08A01FC0118
:1026D000F08C80E591E00E94910CAE014E5F5F4F5F
:1026E00024E030E06CE070E08F2D0E94DE0BB8013A
:1026F0008F2D0E94EF0B81E090E0DF91CF911F9131
:102700000F91FF90089580E0F7CFFC0184859585B7
:102710000895FC018489958908952CE833E0FC0133
:1027200031832083FB014089518962897389FC01CF
:1027300042835383648375830895DC01ED91FC919A
:10274000048CF58DE02D19948091560290915702DA
:1027500020E530E08130910529F08230910531F596
:1027600021E530E0309355022093540286309105E4
:1027700031F525E530E030935502209354028B303B
:10278000910531F52AE530E030935502209354024B
:102790008031910531F524E93FE1309355022093D2
:1027A0005402459739F589E99FE120C083309105AE
:1027B00011F522E530E03093550220935402873022
:1027C000910511F526E530E030935502209354022F
:1027D0008C30910511F520E93FE1309355022093AB
:1027E00054028131910511F585E99FE190935502DD
:1027F00080935402089584309105F1F423E530E08C
:10280000309355022093540288309105D1F527E585
:1028100030E030935502209354028D309105D1F56C
:1028200021E93FE130935502209354028231910512
:10283000D1F586E99FE1DACF8530910509F096CF91
:1028400024E530E030935502209354028A309105FC
:1028500009F095CF29E530E03093550220935402DA
:102860008F30910509F094CF23E93FE13093550271
:10287000209354028431910509F093CF88E99FE1B8
:10288000B5CF8930910511F728E530E03093550236
:10289000209354028E30910519F722E93FE13093DD
:1028A0005502209354028331910521F787E99FE176
:1028B0009DCF8091520C8823F9F02091500C3091DB
:1028C000510C8091DA0E9091DB0E281739075CF0DD
:1028D00061E083E40E94F7041092510C1092500CB6
:1028E0001092520C08958091500C9091510C0196C9
:1028F0009093510C8093500C08950E943E040E94C6
:102900003E040C943E04FC01768765870895DC0143
:10291000ED91FC91068CF78DE02D199591E08927BA
:102920000895862F089581E08627089521E0FC010F
:102930008485883008F020E0822F0895089590E083
:1029400080E00895CF93DF93EC0181E08093430F03
:1029500087E58093650F1092440F1092660F90E008
:1029600080E00E940009CE010E9400090E949B079E
:1029700061E087E50E94CC061092420F8093410FE0
:10298000882339F088E391E10E949108DF91CF918B
:1029900008958FEFFBCF81E08093430F88E680930B
:1029A000650F1092440F1092660F6FE088E391E17B
:1029B0000E94D1080E949B0761E088E60E94CC0635
:1029C0001092420F8093410F88E391E10E94910899
:1029D00008950F931F93CF93DF93EC018881998122
:1029E000009759F02A813B812617370730F081E0A4
:1029F000DF91CF911F910F9108958B016F5F7F4FF2
:102A00000E94B35D009759F0998388831B830A83E2
:102A10002C813D81232B59F7FC011082E8CF80E007
:102A2000E7CFFC0180819181009711F00C942A5D21
:102A30000895FB0101900020E9F73197AF01461B93
:102A4000570BDC01ED91FC910280F381E02D19948C
:102A50008F929F92AF92BF92EF92FF920F931F932C
:102A6000CF93DF93CDB7DEB7A1970FB6F894DEBF53
:102A70000FBECDBF7C01FA01CB0119A2223008F4B0
:102A80002AE08E010F5D1F4F822E912CB12CA12CBC
:102A9000BF01A50194010E94F35AF901CA016A30ED
:102AA0000CF5605DD8016E938D01232B242B252B13
:102AB00079F790E080E0109721F0BD01C7010E94F6
:102AC0001915A1960FB6F894DEBF0FBECDBFDF91EA
:102AD000CF911F910F91FF90EF90BF90AF909F907B
:102AE0008F900895695CDECFCF92DF92EF92FF92D4
:102AF0000F931F93CF93DF936B01770FEE08FF08BF
:102B0000F7FE1BC0EC016DE20E944A038C014427D2
:102B10005527BA014C195D096E097F092AE0CE01DB
:102B20000E942815800F911FDF91CF911F910F9167
:102B3000FF90EF90DF90CF9008952AE0B701A601B3
:102B4000DF91CF911F910F91FF90EF90DF90CF9089
:102B50000C9428158F929F92AF92BF92CF92DF92E2
:102B6000EF92FF920F931F93CF93DF937C018B0122
:102B70006C0182E0C80ED11C4701E5E08E0E911C6D
:102B8000D0E0C0E0F60141916F0150E070E060E0FC
:102B90002AE0C8010E9428155C016EE2C8010E946B
:102BA0004A038A0D9B1DC80FD91FC814D90451F7B9
:102BB000F701458150E070E060E02AE0C8010E9422
:102BC00028158C0F9D1FDF91CF911F910F91FF90C2
:102BD000EF90DF90CF90BF90AF909F908F9008952F
:102BE0002F923F924F925F926F927F928F929F921D
:102BF000AF92BF92CF92DF92EF92FF921F93CF934B
:102C0000DF93EC016A017B01722EAB019601CB01CF
:102C1000B6010E943E5C6EE973E0811126C0460158
:102C20005701E894B7F82FEF3FEF4FE75FE7C50193
:102C3000B4010E943E5C81110CC02FEF3FEF4FE7C3
:102C40005FE7C501B4010E94B05962EA73E018164B
:102C500064F02FEF3FEF4FE75FE4C701B6010E943A
:102C6000395C1816B4F466EA73E0CE01DF91CF91B7
:102C70001F91FF90EF90DF90CF90BF90AF909F900B
:102C80008F907F906F905F904F903F902F900C941B
:102C900019152FEF3FEF4FE75FECC701B6010E9418
:102CA000B05987FDE0CF20E030E0A901C701B601AF
:102CB0000E94B059312C212C87FF09C06DE2CE0152
:102CC0000E944A031C01F7FAF094F7F8F09410E020
:102CD00060E070E080E09FE3711641F020E030E0BA
:102CE00040E251E40E94915B1F5FF6CFA70196017D
:102CF0000E94255B2B013C010E940A5C4B015C0198
:102D00002AE0BC01A401CE010E9428157C01E20C3E
:102D1000F31C1123C1F1C501B4010E94B5599B01F7
:102D2000AC01C301B2010E94245B4B015C016EE265
:102D3000CE010E944A03E80EF91E115020F120E056
:102D400030E040E251E4C501B4010E94165A2B0163
:102D50003C010E940A5C4B01B12CA12C2AE0B50178
:102D6000A401CE010E942815E80EF91EC501B40188
:102D70000E94B5599B01AC01C301B2010E94245BC2
:102D80004B015C01DACFC701DF91CF911F91FF901A
:102D9000EF90DF90CF90BF90AF909F908F907F90FB
:102DA0006F905F904F903F902F9008956AEA73E084
:102DB0000C941915CF93DF93BC0180E590E10E943C
:102DC0007415EC0180E590E10E94D6168C0F9D1FD2
:102DD000DF91CF910895CF93DF93AB01BC0122E047
:102DE00080E590E10E94F015EC0180E590E10E9401
:102DF000D6168C0F9D1FDF91CF9108950F931F93CF
:102E0000CF93DF93EC010E9419158C01CE010E9433
:102E1000D616800F911FDF91CF911F910F910895CA
:102E20008F929F92AF92BF92EF92FF920F931F9358
:102E3000CF93DF9300D01F92CDB7DEB719821A82ED
:102E40001B821C8284E690E0A0E0B0E08093B70F84
:102E50009093B80FA093B90FB093BA0F8E010F5F84
:102E60001F4F7E0185E0E80EF11C0E944C06609326
:102E7000BB0F7093BC0F8093BD0F9093BE0F83EB7D
:102E80009FE00E948D0397FF45C00E944C068090F2
:102E9000BB0F9090BC0FA090BD0FB090BE0F6819F3
:102EA00079098A099B098090B70F9090B80FA0907C
:102EB000B90FB090BA0F681579058A059B05F8F22D
:102EC00089818130F9F48A818F3FE1F48B818F3FD2
:102ED000C9F48C818F3FB1F46DEA73E080E590E135
:102EE0000E94FE1681E00F900F900F900F90DF91DF
:102EF000CF911F910F91FF90EF90BF90AF909F9057
:102F00008F90089567EC73E080E590E10E94FE16D3
:102F100080E0E9CFF80181938F01EE16FF0609F0FA
:102F2000A4CFCECF6115710511F00C94191590E066
:102F300080E008950F931F93CF938C01C62F81E0FB
:102F40008093430F87E58093650F1092440F109292
:102F5000660F90E080E00E940009C8010E9400090D
:102F60008C2F90E00E9400090E949B0762EE73E0A4
:102F700080E590E1CF911F910F910C949217609191
:102F8000960281E090E00E949A1760E570E080E090
:102F900090E00E9419066091600282E090E00E9439
:102FA0009A1760E570E080E090E00E941906609159
:102FB0005E0283E090E00E949A1760E570E080E096
:102FC00090E00E94190660915C0284E090E00E940B
:102FD0009A1760E570E080E090E00E941906609129
:102FE0005A0289E190E00E949A1760E570E080E063
:102FF00090E00E941906609158028BE190E00E94D7
:103000009A1760E570E080E090E00E9419066091F8
:1030100056028CE190E00E949A1760E570E080E033
:1030200090E00E9419066091BC0E8DE190E00E9434
:103030009A1760E570E080E090E00E9419066091C8
:10304000B00E8EE190E00E949A1760E570E080E09B
:1030500090E00E9419066091AE0E8FE190E00E9410
:103060009A1760E570E080E090E00E941906609198
:10307000AC0E80E290E00E949A1760E570E080E07C
:1030800090E00C94190660916C0285E090E00E943B
:103090009A1760E570E080E090E00E941906609168
:1030A000920286E090E00E949A1760E570E080E06E
:1030B00090E00E9419066091900288E090E00E94E2
:1030C0009A1760E570E080E090E00E941906609138
:1030D0006A0289E090E00E949A1760E570E080E063
:1030E00090E00E94190660918C028AE090E00E94B4
:1030F0009A1760E570E080E090E00E941906609108
:1031000094028BE090E00E949A1760E570E080E006
:1031100090E00E94190660918A028CE090E00E9483
:103120009A1760E570E080E090E00E9419066091D7
:1031300068028DE090E00E949A1760E570E080E000
:1031400090E00E941906609186028EE090E00E9455
:103150009A1760E570E080E090E00E9419066091A7
:103160008E028FE090E00E949A1760E570E080E0A8
:1031700090E00E9419066091840280E190E00E9434
:103180009A1760E570E080E090E00E941906609177
:10319000660281E190E00E949A1760E570E080E0AD
:1031A00090E00E9419066091800282E190E00E9406
:1031B0009A1760E570E080E090E00E941906609147
:1031C000880283E190E00E949A1760E570E080E059
:1031D00090E00E94190660917E0284E190E00E94D6
:1031E0009A1760E570E080E090E00E941906609117
:1031F000640285E190E00E949A1760E570E080E04B
:1032000090E00E94190660917C0286E190E00E94A5
:103210009A1760E570E080E090E00E9419066091E6
:10322000820287E190E00E949A1760E570E080E0FA
:1032300090E00E94190660917A0288E190E00E9475
:103240009A1760E570E080E090E00E94190664E261
:103250008AE190E00E949A1760E570E080E090E0DB
:103260000E9419066FEE73E080E590E10C94FE1663
:1032700080914E0C90914F0C0196853091050CF089
:103280008CC090934F0C80934E0C80914E0C90917B
:103290004F0C0197E1F46CEF73E083EB9FE00E9429
:1032A00092176DE87AE083EB9FE00E9492170E94EC
:1032B0007D1465E074E083EB9FE00E9492176DE857
:1032C00076E083EB9FE00E9492170E947D1480912C
:1032D0004E0C90914F0C0297E1F465E074E083EBA3
:1032E0009FE00E9492176DE87AE083EB9FE00E94D6
:1032F00092170E947D146EE074E083EB9FE00E94C1
:1033000092176DE876E083EB9FE00E9492170E948F
:103310007D1480914E0C90914F0C0397E1F46EE078
:1033200074E083EB9FE00E9492176DE87AE083EBF4
:103330009FE00E9492170E947D1467E174E083EB86
:103340009FE00E9492176DE876E083EB9FE00E9479
:1033500092170E947D1480914E0C90914F0C04970F
:10336000F9F467E174E083EB9FE00E9492176DE847
:103370007AE083EB9FE00E9492170E947D146CEF2D
:1033800073E083EB9FE00E9492176DE876E083EB99
:103390009FE00E9492170C947D1481E090E071CF21
:1033A00008958091480C9091490C0197E9F480911F
:1033B0006C0290916D020196853191050CF0C7C2A7
:1033C00090936D0280936C0260E274E083EB9FE067
:1033D0000E94921760916C0270916D0283EB9FE0E6
:1033E0000E9474150E947D148091480C9091490CA4
:1033F0000297E9F4809192029091930201968932AA
:1034000091050CF0A7C290939302809392026AE216
:1034100074E083EB9FE00E9492176091920270919A
:10342000930283EB9FE00E9474150E947D148091AB
:10343000480C9091490C0397E9F480919002909187
:1034400091020196853691050CF087C29093910206
:103450008093900264E374E083EB9FE00E949217F4
:10346000609190027091910283EB9FE00E9474152D
:103470000E947D148091480C9091490C049719F595
:10348000809194029091950201968B3091050CF0F9
:1034900067C290939502809394026EE374E083EB8D
:1034A0009FE00E949217609196027091970280911E
:1034B000940290919502681B790B83EB9FE00E9428
:1034C00074150E947D148091480C9091490C0597C9
:1034D000E9F480916A0290916B0201968531910521
:1034E0000CF041C290936B0280936A0268E474E02E
:1034F00083EB9FE00E94921760916A0270916B02C9
:1035000083EB9FE00E9474150E947D148091480C0B
:103510009091490C0697E9F480918C0290918D026C
:103520000196893291050CF021C290938D0280930F
:103530008C0262E574E083EB9FE00E949217609139
:103540008C0270918D0283EB9FE00E9474150E94A3
:103550007D148091480C9091490C0797E9F4809173
:103560008A0290918B020196853691050CF001C27A
:1035700090938B0280938A026CE574E083EB9FE06A
:103580000E94921760918A0270918B0283EB9FE0F8
:103590000E9474150E947D148091480C9091490CF2
:1035A000089749F580918E0290918F0201968B3099
:1035B00091050CF0E1C190938F0280938E0266E634
:1035C00074E083EB9FE00E949217609196027091E5
:1035D000970280918E0290918F02681B790B8091E7
:1035E000940290919502681B790B83EB9FE00E94F7
:1035F00074150E947D148091480C9091490C099794
:10360000E9F48091680290916902019685319105F3
:103610000CF0B5C1909369028093680260E774E092
:1036200083EB9FE00E94921760916802709169029B
:1036300083EB9FE00E9474150E947D148091480CDA
:103640009091490C0A97E9F4809186029091870243
:103650000196893291050CF095C190938702809371
:1036600086026AE774E083EB9FE00E949217609104
:1036700086027091870283EB9FE00E9474150E947E
:103680007D148091480C9091490C0B97E9F480913E
:103690008402909185020196853691050CF075C1E2
:1036A000909385028093840264E874E083EB9FE04A
:1036B0000E94921760918A0270918B0283EB9FE0C7
:1036C0000E9474150E947D148091480C9091490CC1
:1036D0000C9779F5809188029091890201968B3040
:1036E00091050CF055C190938902809388026EE891
:1036F00074E083EB9FE00E949217609196027091B4
:1037000097028091880290918902681B790B8091C1
:103710008E0290918F02681B790B80919402909198
:103720009502681B790B83EB9FE00E9474150E9441
:103730007D148091480C9091490C0D97E9F480918B
:103740006602909167020196853191050CF023C1C4
:10375000909367028093660268E974E083EB9FE0D0
:103760000E949217609166027091670283EB9FE05E
:103770000E9474150E947D148091480C9091490C10
:103780000E97E9F48091800290918102019689322E
:1037900091050CF003C1909381028093800262EA4C
:1037A00074E083EB9FE00E94921760918002709119
:1037B000810283EB9FE00E9474150E947D1480912A
:1037C000480C9091490C0F97E9F480917E029091FA
:1037D0007F020196853691050CF0E3C090937F023D
:1037E00080937E026CEA74E083EB9FE00E94921764
:1037F00060917E0270917F0283EB9FE00E947415BE
:103800000E947D148091480C9091490C4097A9F535
:10381000809182029091830201968B3091050CF089
:10382000C3C0909383028093820266EB74E083EBC3
:103830009FE00E949217609196027091970280918A
:10384000820290918302681B790B8091880290918B
:103850008902681B790B80918E0290918F02681B00
:10386000790B8091940290919502681B790B83EB00
:103870009FE00E9474150E947D148091480C9091E5
:10388000490C4197E9F48091640290916502019698
:10389000853191050CF08BC0909365028093640292
:1038A00060EC74E083EB9FE00E94921760916402E9
:1038B0007091650283EB9FE00E9474150E947D1455
:1038C0008091480C9091490C4297E9F480917C02D8
:1038D00090917D020196893291050CF06BC0909316
:1038E0007D0280937C026AEC74E083EB9FE00E948F
:1038F000921760917C0270917D0283EB9FE00E94A1
:1039000074150E947D148091480C9091490C439746
:1039100009F056C080917A0290917B02019685361B
:1039200091050CF04AC090937B0280937A0264ED7B
:1039300074E083EB9FE00E94921760917A0270918D
:103940007B0283EB9FE00E9474150C947D1484E14C
:1039500090E036CD88E290E056CD84E690E076CDDA
:103960008AE090E096CD84E190E0BCCD88E290E0E2
:10397000DCCD84E690E0FCCD8AE090E01CCE84E1D2
:1039800090E048CE88E290E068CE84E690E088CE71
:103990008AE090E0A8CE84E190E0DACE88E290E080
:1039A000FACE84E690E01ACF8AE090E03ACF84E144
:1039B00090E072CF88E290E092CF84E690E0B3CFBF
:1039C00008952091480C3091490C21303105E9F4DB
:1039D00080916C0290916D020197181619060CF0F7
:1039E000C7C290936D0280936C0260E274E083EB37
:1039F0009FE00E94921760916C0270916D0283EBC0
:103A00009FE00E9474150E947D148091480C909153
:103A1000490C0297E9F480919202909193020197E8
:103A2000181619060CF0A9C2909393028093920283
:103A30006AE274E083EB9FE00E9492176091920229
:103A40007091930283EB9FE00E9474150E947D1495
:103A50008091480C9091490C0397E9F48091900271
:103A60009091910201978A3091050CF489C290934C
:103A700091028093900264E374E083EB9FE00E94E4
:103A80009217609190027091910283EB9FE00E94E7
:103A900074150E947D148091480C9091490C0497F4
:103AA00019F58091940290919502019718161906C4
:103AB0000CF069C290939502809394026EE374E0D7
:103AC00083EB9FE00E94921760919602709197029B
:103AD0008091940290919502681B790B83EB9FE093
:103AE0000E9474150E947D148091480C9091490C9D
:103AF0000597E9F480916A0290916B02019718167C
:103B000019060CF043C290936B0280936A0268E43A
:103B100074E083EB9FE00E94921760916A027091BB
:103B20006B0283EB9FE00E9474150E947D148091CC
:103B3000480C9091490C0697E9F480918C02909181
:103B40008D020197181619060CF023C290938D026E
:103B500080938C0262E574E083EB9FE00E949217F1
:103B600060918C0270918D0283EB9FE00E9474152E
:103B70000E947D148091480C9091490C0797E9F4BC
:103B800080918A0290918B0201978A3091050CF402
:103B900003C290938B0280938A026CE574E083EBFE
:103BA0009FE00E94921760918A0270918B0283EBD2
:103BB0009FE00E9474150E947D148091480C9091A2
:103BC000490C089749F580918E0290918F020197D8
:103BD000181619060CF0E3C190938F0280938E02A1
:103BE00066E674E083EB9FE00E9492176091960274
:103BF0007091970280918E0290918F02681B790BD1
:103C00008091940290919502681B790B83EB9FE061
:103C10000E9474150E947D148091480C9091490C6B
:103C20000997E9F48091680290916902019718164A
:103C300019060CF0B7C1909369028093680260E79F
:103C400074E083EB9FE00E9492176091680270918C
:103C5000690283EB9FE00E9474150E947D1480919D
:103C6000480C9091490C0A97E9F480918602909152
:103C700087020197181619060CF097C190938702D6
:103C8000809386026AE774E083EB9FE00E949217BC
:103C9000609186027091870283EB9FE00E94741509
:103CA0000E947D148091480C9091490C0B97E9F487
:103CB000809184029091850201978A3091050CF4DD
:103CC00077C1909385028093840264E874E083EB6B
:103CD0009FE00E94921760918A0270918B0283EBA1
:103CE0009FE00E9474150E947D148091480C909171
:103CF000490C0C9779F5809188029091890201977F
:103D0000181619060CF057C1909389028093880207
:103D10006EE874E083EB9FE00E9492176091960238
:103D2000709197028091880290918902681B790BAB
:103D300080918E0290918F02681B790B8091940282
:103D400090919502681B790B83EB9FE00E9474159C
:103D50000E947D148091480C9091490C0D97E9F4D4
:103D600080916602909167020197181619060CF06F
:103D700025C1909367028093660268E974E083EB43
:103D80009FE00E949217609166027091670283EB38
:103D90009FE00E9474150E947D148091480C9091C0
:103DA000490C0E97E9F4809180029091810201976D
:103DB000181619060CF005C19093810280938002B9
:103DC00062EA74E083EB9FE00E94921760918002A8
:103DD0007091810283EB9FE00E9474150E947D1414
:103DE0008091480C9091490C0F97E9F480917E02E4
:103DF00090917F0201978A3091050CF4E5C0909371
:103E00007F0280937E026CEA74E083EB9FE00E9465
:103E1000921760917E0270917F0283EB9FE00E9477
:103E200074150E947D148091480C9091490C409724
:103E3000A9F58091820290918302019718161906C4
:103E40000CF0C5C0909383028093820266EB74E00D
:103E500083EB9FE00E949217609196027091970207
:103E60008091820290918302681B790B8091880275
:103E700090918902681B790B80918E0290918F023C
:103E8000681B790B8091940290919502681B790BC5
:103E900083EB9FE00E9474150E947D148091480C72
:103EA0009091490C4197E9F48091640290916502E8
:103EB0000197181619060CF08DC090936502809337
:103EC000640260EC74E083EB9FE00E9492176091C3
:103ED00064027091650283EB9FE00E9474150E945A
:103EE0007D148091480C9091490C4297E9F480919F
:103EF0007C0290917D020197181619060CF06DC096
:103F000090937D0280937C026AEC74E083EB9FE0E7
:103F10000E94921760917C0270917D0283EB9FE07A
:103F20000E9474150E947D148091480C9091490C58
:103F3000439709F058C080917A0290917B020197D3
:103F40008A3091050CF44CC090937B0280937A02E6
:103F500064ED74E083EB9FE00E94921760917A0217
:103F600070917B0283EB9FE00E9474150C947D148A
:103F700030936D0220936C0238CD81E090E054CDF7
:103F80008AE090E074CD81E090E094CD81E090E013
:103F9000BACD81E090E0DACD8AE090E0FACD81E020
:103FA00090E01ACE81E090E046CE81E090E066CECF
:103FB0008AE090E086CE81E090E0A6CE81E090E0BD
:103FC000D8CE81E090E0F8CE8AE090E018CF81E092
:103FD00090E038CF81E090E070CF81E090E090CF2A
:103FE0008AE090E0B1CF08958091480C9091490CFF
:103FF0000196853191050CF096C29093490C8093FF
:10400000480C6EED74E080E590E10E94921780917B
:10401000480C9091490C0E94DA168091480C9091BE
:10402000490C0297E1F46DEE74E083EB9FE00E948F
:1040300092176DE87AE083EB9FE00E9492170E944E
:104040007D1467EF74E083EB9FE00E9492176DE8A8
:1040500076E083EB9FE00E9492170E947D1480918E
:10406000480C9091490C0397E1F467EF74E083EBFF
:104070009FE00E9492176DE87AE083EB9FE00E9438
:1040800092170E947D1461E075E083EB9FE00E942F
:1040900092176DE876E083EB9FE00E9492170E94F2
:1040A0007D148091480C9091490C0497E1F461E0F3
:1040B00075E083EB9FE00E9492176DE87AE083EB56
:1040C0009FE00E9492170E947D146BE075E083EBE5
:1040D0009FE00E9492176DE876E083EB9FE00E94DC
:1040E00092170E947D148091480C9091490C05977D
:1040F000E1F46BE075E083EB9FE00E9492176DE8BE
:104100007AE083EB9FE00E9492170E947D1465E1A4
:1041100075E083EB9FE00E9492176DE876E083EBF9
:104120009FE00E9492170E947D148091480C90910C
:10413000490C0697E1F465E175E083EB9FE00E948E
:1041400092176DE87AE083EB9FE00E9492170E943D
:104150007D146FE175E083EB9FE00E9492176DE89C
:1041600076E083EB9FE00E9492170E947D1480917D
:10417000480C9091490C0797E1F46FE175E083EBEF
:104180009FE00E9492176DE87AE083EB9FE00E9427
:1041900092170E947D1469E275E083EB9FE00E9414
:1041A00092176DE876E083EB9FE00E9492170E94E1
:1041B0007D148091480C9091490C0897E1F469E2D4
:1041C00075E083EB9FE00E9492176DE87AE083EB45
:1041D0009FE00E9492170E947D1463E375E083EBD9
:1041E0009FE00E9492176DE876E083EB9FE00E94CB
:1041F00092170E947D148091480C9091490C099768
:10420000E1F463E375E083EB9FE00E9492176DE8B1
:104210007AE083EB9FE00E9492170E947D146DE389
:1042200075E083EB9FE00E9492176DE876E083EBE8
:104230009FE00E9492170E947D148091480C9091FB
:10424000490C0A97E1F46DE375E083EB9FE00E946F
:1042500092176DE87AE083EB9FE00E9492170E942C
:104260007D1467E475E083EB9FE00E9492176DE890
:1042700076E083EB9FE00E9492170E947D1480916C
:10428000480C9091490C0B97E1F467E475E083EBDF
:104290009FE00E9492176DE87AE083EB9FE00E9416
:1042A00092170E947D1461E575E083EB9FE00E9408
:1042B00092176DE876E083EB9FE00E9492170E94D0
:1042C0007D148091480C9091490C0C97E1F461E5C4
:1042D00075E083EB9FE00E9492176DE87AE083EB34
:1042E0009FE00E9492170E947D146BE575E083EBBE
:1042F0009FE00E9492176DE876E083EB9FE00E94BA
:1043000092170E947D148091480C9091490C0D9752
:10431000E1F46BE575E083EB9FE00E9492176DE896
:104320007AE083EB9FE00E9492170E947D1465E67D
:1043300075E083EB9FE00E9492176DE876E083EBD7
:104340009FE00E9492170E947D148091480C9091EA
:10435000490C0E97E1F465E675E083EB9FE00E945F
:1043600092176DE87AE083EB9FE00E9492170E941B
:104370007D146FE675E083EB9FE00E9492176DE875
:1043800076E083EB9FE00E9492170E947D1480915B
:10439000480C9091490C0F97E1F46FE675E083EBC0
:1043A0009FE00E9492176DE87AE083EB9FE00E9405
:1043B00092170E947D1469E775E083EB9FE00E94ED
:1043C00092176DE876E083EB9FE00E9492170E94BF
:1043D0007D148091480C9091490C4097E1F469E775
:1043E00075E083EB9FE00E9492176DE87AE083EB23
:1043F0009FE00E9492170E947D1463E875E083EBB2
:104400009FE00E9492176DE876E083EB9FE00E94A8
:1044100092170E947D148091480C9091490C41970D
:10442000E1F463E875E083EB9FE00E9492176DE88A
:104430007AE083EB9FE00E9492170E947D146DE862
:1044400075E083EB9FE00E9492176DE876E083EBC6
:104450009FE00E9492170E947D148091480C9091D9
:10446000490C4297E1F46DE875E083EB9FE00E9410
:1044700092176DE87AE083EB9FE00E9492170E940A
:104480007D1467E975E083EB9FE00E9492176DE869
:1044900076E083EB9FE00E9492170E947D1480914A
:1044A000480C9091490C4397E1F467E975E083EB80
:1044B0009FE00E9492176DE87AE083EB9FE00E94F4
:1044C00092170E947D1461EA75E083EB9FE00E94E1
:1044D00092176DE876E083EB9FE00E9492170E94AE
:1044E0007D148091480C9091490C0197F9F461EA90
:1044F00075E083EB9FE00E9492176DE87AE083EB12
:104500009FE00E9492170E947D146DEE74E083EB91
:104510009FE00E9492176DE876E083EB9FE00E9497
:1045200092170C947D1481E090E067CD08958091FE
:104530003802909139020196803191050CF0E6C164
:104540009093390280933802809138029091390219
:104550000197E1F46BEA75E083EB9FE00E9492170C
:104560006DE87AE083EB9FE00E9492170E947D1431
:1045700064EB75E083EB9FE00E9492176DE876E0B4
:1045800083EB9FE00E9492170E947D148091480C5B
:104590009091490C0E94DA1680913802909139026C
:1045A0000297E1F464EB75E083EB9FE00E949217C1
:1045B0006DE87AE083EB9FE00E9492170E947D14E1
:1045C0006DEB75E083EB9FE00E9492176DE876E05B
:1045D00083EB9FE00E9492170E947D148091380225
:1045E000909139020397E1F46DEB75E083EB9FE066
:1045F0000E9492176DE87AE083EB9FE00E94921789
:104600000E947D1466EC75E083EB9FE00E94921798
:104610006DE876E083EB9FE00E9492170E947D1484
:1046200080913802909139020497E1F466EC75E0CC
:1046300083EB9FE00E9492176DE87AE083EB9FE0A6
:104640000E9492170E947D146FEC75E083EB9FE04F
:104650000E9492176DE876E083EB9FE00E9492172C
:104660000E947D1480913802909139020597E1F4FF
:104670006FEC75E083EB9FE00E9492176DE87AE0A3
:1046800083EB9FE00E9492170E947D1468ED75E015
:1046900083EB9FE00E9492176DE876E083EB9FE04A
:1046A0000E9492170E947D148091380290913902E5
:1046B0000697E1F468ED75E083EB9FE00E949217A6
:1046C0006DE87AE083EB9FE00E9492170E947D14D0
:1046D00061EE75E083EB9FE00E9492176DE876E053
:1046E00083EB9FE00E9492170E947D148091380214
:1046F000909139020797E1F461EE75E083EB9FE05A
:104700000E9492176DE87AE083EB9FE00E94921777
:104710000E947D146AEE75E083EB9FE00E94921781
:104720006DE876E083EB9FE00E9492170E947D1473
:1047300080913802909139020897E1F46AEE75E0B1
:1047400083EB9FE00E9492176DE87AE083EB9FE095
:104750000E9492170E947D1463EF75E083EB9FE047
:104760000E9492176DE876E083EB9FE00E9492171B
:104770000E947D1480913802909139020997E1F4EA
:1047800063EF75E083EB9FE00E9492176DE87AE09B
:1047900083EB9FE00E9492170E947D146CEF75E0FE
:1047A00083EB9FE00E9492176DE876E083EB9FE039
:1047B0000E9492170E947D148091380290913902D4
:1047C0000A97E1F46CEF75E083EB9FE00E9492178B
:1047D0006DE87AE083EB9FE00E9492170E947D14BF
:1047E00065E076E083EB9FE00E9492176DE876E04B
:1047F00083EB9FE00E9492170E947D148091380203
:10480000909139020B97E1F465E076E083EB9FE04D
:104810000E9492176DE87AE083EB9FE00E94921766
:104820000E947D146EE076E083EB9FE00E94921779
:104830006DE876E083EB9FE00E9492170E947D1462
:1048400080913802909139020C97E1F46EE076E0A5
:1048500083EB9FE00E9492176DE87AE083EB9FE084
:104860000E9492170E947D1467E176E083EB9FE03F
:104870000E9492176DE876E083EB9FE00E9492170A
:104880000E947D1480913802909139020D97E1F4D5
:1048900067E176E083EB9FE00E9492176DE87AE093
:1048A00083EB9FE00E9492170E947D1460E276E005
:1048B00083EB9FE00E9492176DE876E083EB9FE028
:1048C0000E9492170E947D148091380290913902C3
:1048D0000E97F9F460E276E083EB9FE00E94921776
:1048E0006DE87AE083EB9FE00E9492170E947D14AE
:1048F0006BEA75E083EB9FE00E9492176DE876E02B
:1049000083EB9FE00E9492170C947D1481E090E06D
:1049100017CE089580913A0290913B020197E9F4F5
:1049200080917002909171020196813591050CF091
:104930009FC0909371028093700269E276E083EBEE
:104940009FE00E949217609170027091710283EB58
:104950009FE00E9474150E947D1480913A0290910C
:104960003B020297E9F48091BC0E9091BD0E019636
:10497000893291050CF07FC09093BD0E8093BC0EE0
:1049800062E376E083EB9FE00E9492176091BC0E99
:104990007091BD0E83EB9FE00E9474150E947D1400
:1049A00080913A0290913B020397E9F48091B00E16
:1049B0009091B10E0196803191050CF05FC09093FB
:1049C000B10E8093B00E6BE376E083EB9FE00E9424
:1049D00092176091B00E7091B10E83EB9FE00E9430
:1049E00074150E947D1480913A0290913B020497C5
:1049F000E9F48091AE0E9091AF0E01968831910549
:104A00000CF03FC09093AF0E8093AE0E64E476E05E
:104A100083EB9FE00E9492176091AE0E7091AF0EF3
:104A200083EB9FE00E9474150E947D1480913A02EE
:104A300090913B02059779F58091AC0E9091AD0E67
:104A400001968831910514F59093AD0E8093AC0ECC
:104A50006DE476E083EB9FE00E9492176091AC0ECC
:104A60007091AD0E83EB9FE00E9474150C947D1441
:104A700080E590E05ECF88E290E07ECF8FE090E02E
:104A80009ECF1092AF0E1092AE0EC0CF1092AD0E10
:104A90001092AC0EDDCF089580913A0290913B02C6
:104AA0000197E9F48091700290917102019784312D
:104AB00091050CF49AC0909371028093700269E2A0
:104AC00076E083EB9FE00E949217609170027091F4
:104AD000710283EB9FE00E9474150E947D14809107
:104AE0003A0290913B020297E9F48091BC0E9091BA
:104AF000BD0E0197181619060CF07AC09093BD0EE2
:104B00008093BC0E62E376E083EB9FE00E949217F5
:104B10006091BC0E7091BD0E83EB9FE00E947415F6
:104B20000E947D1480913A0290913B020397D9F440
:104B30008091B00E9091B10E019797FD5EC0909359
:104B4000B10E8093B00E6BE376E083EB9FE00E94A2
:104B500092176091B00E7091B10E83EB9FE00E94AE
:104B600074150E947D1480913A0290913B02049743
:104B7000D9F48091AE0E9091AF0E019797FD42C08F
:104B80009093AF0E8093AE0E64E476E083EB9FE0EB
:104B90000E9492176091AE0E7091AF0E83EB9FE072
:104BA0000E9474150E947D1480913A0290913B02FC
:104BB000059771F58091AC0E9091AD0E019797FD20
:104BC00024C09093AD0E8093AC0E6DE476E083EB41
:104BD0009FE00E9492176091AC0E7091AD0E83EB36
:104BE0009FE00E9474150C947D1484E190E063CFE3
:104BF0001092BD0E1092BC0E85CF1092B10E109285
:104C0000B00EA1CF87E190E0BBCF87E190E0D9CF94
:104C1000089580913A0290913B0201968630910569
:104C20000CF0B4C090933B0280933A0280913A0218
:104C300090913B020197E1F466E576E083EB9FE01B
:104C40000E9492176DE87AE083EB9FE00E94921732
:104C50000E947D146FE576E083EB9FE00E9492173F
:104C60006DE876E083EB9FE00E9492170E947D142E
:104C70008091480C9091490C0E94DA1680913A027A
:104C800090913B020297E1F46FE576E083EB9FE0C1
:104C90000E9492176DE87AE083EB9FE00E949217E2
:104CA0000E947D1468E676E083EB9FE00E949217F5
:104CB0006DE876E083EB9FE00E9492170E947D14DE
:104CC00080913A0290913B020397E1F468E676E026
:104CD00083EB9FE00E9492176DE87AE083EB9FE000
:104CE0000E9492170E947D1461E776E083EB9FE0BB
:104CF0000E9492176DE876E083EB9FE00E94921786
:104D00000E947D1480913A0290913B020497E1F455
:104D100061E776E083EB9FE00E9492176DE87AE00E
:104D200083EB9FE00E9492170E947D146AE776E071
:104D300083EB9FE00E9492176DE876E083EB9FE0A3
:104D40000E9492170E947D1480913A0290913B023A
:104D50000597F9F46AE776E083EB9FE00E949217EB
:104D60006DE87AE083EB9FE00E9492170E947D1429
:104D700066E576E083EB9FE00E9492176DE876E0AF
:104D800083EB9FE00E9492170C947D1481E090E0E9
:104D900049CF0895CF93DF93EC0183EB9FE00E940E
:104DA000AF03892B29F083EB9FE00E948D03F5CFA1
:104DB000BE0183EB9FE00E9492170E943E040E9476
:104DC0003E04DF91CF910C943E0480916E0290914D
:104DD0006F02892BB1F481E090E090936F02809391
:104DE0006E0263E876E083EB9FE00E9492170E94D8
:104DF0007D1460E08BE10E94F70461E084E40C9490
:104E0000F70463E976E083EB9FE00E9492170E942B
:104E10007D1410926F0210926E0261E08BE10E948D
:104E2000F70460E0EBCF60914A0C70914B0C80E589
:104E300090E10E94741563EA76E080E590E10E94BB
:104E4000921780913E0290913F02892B11F581E0EB
:104E500090E090933F0280933E026EEA76E083EB0F
:104E60009FE00E9492176DEB76E080E590E10E9452
:104E7000921780914A0C90914B0C0E94DA160E9476
:104E80007D1460E08AE10E94F70461E085E40C94FF
:104E9000F70467EC76E083EB9FE00E949217609145
:104EA0004A0C70914B0C80E590E10E94741566ED00
:104EB00076E080E590E10E9492170E947D141092A6
:104EC0003F0210923E0261E08AE10E94F70460E036
:104ED000DDCF80913C0290913D02892B21F581E04C
:104EE00090E090933D0280933C026CED76E083EB82
:104EF0009FE00E9492176DEB76E080E590E10E94C2
:104F0000921760914A0C70914B0C80E590E10E94E1
:104F100074150E947D1460E089E10E94F70461E04D
:104F20008FE30C94F7046BEE76E083EB9FE00E9436
:104F300092170E947D1410923D0210923C0261E093
:104F400089E10E94F70460E0EBCF60914A0C709118
:104F50004B0C80E590E10E94741563EA76E080E5F1
:104F600090E10E94921780914A0C90914B0C892BF2
:104F700021F581E090E090934B0C80934A0C6AEF0E
:104F800076E083EB9FE00E9492170E947D146DEB08
:104F900076E080E590E10E94921760914A0C709152
:104FA0004B0C80E590E10E94741560E088E10E945E
:104FB000F70461E080E40C94F70469E077E083EBA8
:104FC0009FE00E94921760914A0C70914B0C80E513
:104FD00090E10E94741566ED76E080E590E10E9414
:104FE00092170E947D1410924B0C10924A0C61E0B3
:104FF00088E10E94F70460E0DDCF68E177E083EBB1
:105000009FE00E9492170E947D141092CB0E109286
:10501000CA0E60E080E40E94F70461E088E10E942B
:10502000F70463E277E080E590E10E94FE161092BB
:10503000D30E1092D20E81E090E090934B0C8093AF
:105040004A0C0895CF93DF938091460C9091470CC2
:10505000892B01F5C1E0D0E0D093CB0EC093CA0EEE
:105060006FE277E083EB9FE00E9492170E947D142D
:1050700061E080E40E94F70460E088E10E94F704A8
:105080006AE377E080E590E10E94FE16D0934B0C36
:10509000C0934A0C8091460C9091470C8130910549
:1050A000B1F49093CB0E8093CA0E60E080E40E942E
:1050B000F70461E088E10E94F7046AE377E080E5A5
:1050C00090E10E94FE1610924B0C10924A0CDF9158
:1050D000CF9108956CEA7AE083EB9FE00E949217EB
:1050E0000E943E040E943E040C943E0480914E0CAB
:1050F00090914F0C0197E9F480919602909197025C
:105100000196863591050CF092C09093970280939A
:10511000960267E477E083EB9FE00E94921760912C
:1051200096027091970283EB9FE00E9474150E9493
:105130006A2880914E0C90914F0C029721F5809136
:1051400060029091610201969093610280936002E7
:1051500020919602309197022817390724F4309352
:1051600061022093600261E577E083EB9FE00E949B
:105170009217609160027091610283EB9FE00E9440
:1051800074150E946A2880914E0C90914F0C0397E1
:1051900021F580915E0290915F02019690935F02EB
:1051A00080935E022091960230919702281739076A
:1051B00024F430935F0220935E026BE577E083EB8B
:1051C0009FE00E94921760915E0270915F0283EBF4
:1051D0009FE00E9474150E946A2880914E0C909165
:1051E0004F0C049739F580915C0290915D02019615
:1051F00090935D0280935C02209196023091970219
:105200002817390724F430935D0220935C0265E689
:1052100077E083EB9FE00E94921760915C027091AF
:105220005D0283EB9FE00E9474150C946A2885E56B
:1052300090E06BCF089580914E0C90914F0C0197A8
:10524000E9F4809196029091970201978832910536
:105250000CF47BC0909397028093960267E477E00A
:1052600083EB9FE00E9492176091960270919702E3
:1052700083EB9FE00E9474150E946A2880914E0C77
:1052800090914F0C0297E9F4809160029091610235
:105290000197883291050CF45BC090936102809372
:1052A000600261E577E083EB9FE00E9492176091D6
:1052B00060027091610283EB9FE00E9474150E946E
:1052C0006A2880914E0C90914F0C0397E1F48091E5
:1052D0005E0290915F02019788329105E4F190930C
:1052E0005F0280935E026BE577E083EB9FE00E94B4
:1052F000921760915E0270915F0283EB9FE00E94C3
:1053000074150E946A2880914E0C90914F0C04975E
:1053100041F580915C0290915D0201978832910580
:10532000ECF090935D0280935C0265E677E083EB9E
:105330009FE00E94921760915C0270915D0283EB86
:105340009FE00E9474150C946A2888E290E082CF56
:1053500088E290E0A2CF88E290E0C1CF88E290E0BE
:10536000E0CF089580914C0C90914D0C892B09F061
:105370004CC08091E00E9091E10E0A969093E10E60
:105380008093E00E6FE677E080E590E10E9492174F
:1053900090E080E00E94DA168091E00E9091E10E9C
:1053A0008734910564F080E590E09093E10E80935E
:1053B000E00E81E090E090934D0C80934C0C609156
:1053C000E00E7091E10E80E590E10E9474156BE8AB
:1053D00077E083EB9FE00E9492170E947D1469EAB8
:1053E00077E083EB9FE00E94921764EB77E083EB1A
:1053F0009FE00E9492176091E00E7091E10E83EBA6
:105400009FE00E9474150C946A286AE977E083EBA8
:105410009FE00E9492170E947D1410924D0C1092F2
:105420004C0C1092E10E1092E00ED9CF80915A02EE
:1054300090915B02019701F510925B0210925A0263
:105440006AEB77E083EB9FE00E9492176DE876E0CD
:1054500083EB9FE00E9492170E947D1463EC77E03B
:1054600083EB9FE00E9492176DEC77E083EB9FE067
:105470000E9492170C946A2881E090E090935B025E
:1054800080935A026AEB77E083EB9FE00E949217C9
:1054900066ED77E083EB9FE00E9492170E947D14F7
:1054A00063EC77E083EB9FE00E9492176BED77E06F
:1054B000DDCF80913802909139020D97F1F48091FF
:1054C000560290915702019687319105CCF5909341
:1054D0005702809356020E94A41363EE77E083EB99
:1054E0009FE00E949217609154027091550283EBE5
:1054F0009FE00E9474150E946A2880913802909162
:1055000039020E9719F5809158029091590201962F
:10551000853F21E09207BCF4909359028093580292
:105520006DEE77E083EB9FE00E9492176091580246
:105530007091590283EB9FE00E9474150C946A28C5
:1055400081E090E0C4CF84EF91E0E6CF08958091B0
:105550003802909139020D97F1F4809156029091A2
:105560005702019718161906C4F5909357028093B5
:1055700056020E94A41363EE77E083EB9FE00E9443
:105580009217609154027091550283EB9FE00E9444
:1055900074150E946A2880913802909139020E9702
:1055A00011F5809158029091590201971816190629
:1055B000BCF490935902809358026DEE77E083EB30
:1055C0009FE00E949217609158027091590283EBFC
:1055D0009FE00E9474150C946A2885E190E0C5CF85
:1055E00089E99FE1E6CF0895EF92FF920F931F9311
:1055F000CF93DF93EC017B01198218821B821A8200
:105600001D821C82FB0101900020E9F731978F0178
:10561000061B170BB8010E94E914288139818111FA
:1056200013C02115310519F0C9010E942A5D1982A4
:1056300018821D821C821B821A82DF91CF911F91DA
:105640000F91FF90EF9008951D830C83B701C9015E
:10565000DF91CF911F910F91FF90EF900C94A95E75
:10566000EF92FF920F931F93CF93DF9300D000D060
:10567000CDB7DEB7FC01E280F38010E0E114F10465
:1056800079F167EF77E0CE0101960E94F42AF701E5
:1056900001900020E9F73197EE19FF09B1F00D8173
:1056A0001E810E0F1F1FB801CE0101960E94E91442
:1056B000882359F029813A818D819E81B701820F1B
:1056C000931F0E94A95E1E830D8389819A810E9487
:1056D000CA260E941017182FCE0101960E9411159C
:1056E000812F26960FB6F894DEBF0FBECDBFDF9197
:1056F000CF911F910F91FF90EF90089583E493E174
:105700000E94302B6DEF77E083EB9FE00E949217B1
:10571000609196027091970283EB9FE00E9474154E
:105720000E947D1460E274E083EB9FE00E94921778
:1057300060916C0270916D0283EB9FE00E94741582
:105740000E947D146AE274E083EB9FE00E9492174E
:10575000609192027091930283EB9FE00E94741516
:105760000E947D1464E374E083EB9FE00E94921733
:10577000609190027091910283EB9FE00E947415FA
:105780000E947D146EE374E083EB9FE00E94921709
:105790006091960270919702809194029091950287
:1057A000681B790B83EB9FE00E9474150E947D14A7
:1057B00068E474E083EB9FE00E94921760916A02B4
:1057C00070916B0283EB9FE00E9474150E947D1420
:1057D00062E574E083EB9FE00E94921760918C0277
:1057E00070918D0283EB9FE00E9474150E947D14DE
:1057F0006CE574E083EB9FE00E94921760918A024F
:1058000070918B0283EB9FE00E9474150E947D14BF
:1058100066E674E083EB9FE00E9492176091960227
:105820007091970280918E0290918F02681B790B84
:105830008091940290919502681B790B83EB9FE015
:105840000E9474150E947D1460E774E083EB9FE072
:105850000E949217609168027091690283EB9FE049
:105860000E9474150E947D146AE774E083EB9FE048
:105870000E949217609186027091870283EB9FE0ED
:105880000E9474150E947D1464E874E083EB9FE02D
:105890000E949217609184027091850283EB9FE0D1
:1058A0000E9474150E947D146EE874E083EB9FE003
:1058B0000E949217609196027091970280918802DF
:1058C00090918902681B790B80918E0290918F02D2
:1058D000681B790B8091940290919502681B790B5B
:1058E00083EB9FE00E9474150E947D1468E974E0C8
:1058F00083EB9FE00E9492176091660270916702AD
:1059000083EB9FE00E9474150E947D1462EA74E0AC
:1059100083EB9FE00E949217609180027091810258
:1059200083EB9FE00E9474150E947D146CEA74E082
:1059300083EB9FE00E94921760917E0270917F023C
:1059400083EB9FE00E9474150E947D1466EB74E067
:1059500083EB9FE00E9492176091960270919702EC
:105960008091820290918302681B790B809188025A
:1059700090918902681B790B80918E0290918F0221
:10598000681B790B8091940290919502681B790BAA
:1059900083EB9FE00E9474150E947D1460EC74E01C
:1059A00083EB9FE00E949217609164027091650200
:1059B00083EB9FE00E9474150E947D146AEC74E0F2
:1059C00083EB9FE00E94921760917C0270917D02B0
:1059D00083EB9FE00E9474150E947D1464ED74E0D7
:1059E00083EB9FE00E94921760917A0270917B0294
:1059F00083EB9FE00E9474150E947D1481E090E08B
:105A00009093490C8093480C6DEE74E083EB9FE01B
:105A10000E9492176DE876E083EB9FE00E94921758
:105A20000C947D1487E393E10E94302B80915A02FD
:105A300090915B020197E1F46AEB77E083EB9FE0E2
:105A40000E94921766ED77E083EB9FE00E94921729
:105A50000E947D1463EC77E083EB9FE00E94921735
:105A60006BED77E083EB9FE00E9492170E946A281B
:105A700080915A0290915B02892BE1F46AEB77E006
:105A800083EB9FE00E9492176DE876E083EB9FE046
:105A90000E9492170E947D1463EC77E083EB9FE0F5
:105AA0000E9492176DEC77E083EB9FE00E949217C3
:105AB0000E946A286DEE77E083EB9FE00E949217C8
:105AC000609158027091590283EB9FE00E94741517
:105AD0000E946A280E94A41363EE77E083EB9FE0A4
